{
  "_format": "hh-sol-artifact-1",
  "contractName": "QuantumOracle",
  "sourceName": "contracts/QuantumOracle.sol",
  "abi": [
    {
      "inputs": [],
      "stateMutability": "nonpayable",
      "type": "constructor"
    },
    {
      "anonymous": false,
      "inputs": [
        {
          "indexed": true,
          "internalType": "address",
          "name": "node",
          "type": "address"
        },
        {
          "indexed": false,
          "internalType": "bool",
          "name": "authorized",
          "type": "bool"
        }
      ],
      "name": "NodeAuthorized",
      "type": "event"
    },
    {
      "anonymous": false,
      "inputs": [
        {
          "indexed": true,
          "internalType": "bytes32",
          "name": "taskId",
          "type": "bytes32"
        },
        {
          "indexed": false,
          "internalType": "string",
          "name": "solutionURI",
          "type": "string"
        },
        {
          "indexed": false,
          "internalType": "uint256",
          "name": "score",
          "type": "uint256"
        },
        {
          "indexed": true,
          "internalType": "address",
          "name": "submitter",
          "type": "address"
        }
      ],
      "name": "ResultSubmitted",
      "type": "event"
    },
    {
      "anonymous": false,
      "inputs": [
        {
          "indexed": true,
          "internalType": "bytes32",
          "name": "taskId",
          "type": "bytes32"
        },
        {
          "indexed": false,
          "internalType": "bool",
          "name": "success",
          "type": "bool"
        },
        {
          "indexed": false,
          "internalType": "uint256",
          "name": "score",
          "type": "uint256"
        },
        {
          "indexed": false,
          "internalType": "string",
          "name": "evidenceURI",
          "type": "string"
        }
      ],
      "name": "TaskVerified",
      "type": "event"
    },
    {
      "inputs": [
        {
          "internalType": "address",
          "name": "",
          "type": "address"
        }
      ],
      "name": "authorizedNodes",
      "outputs": [
        {
          "internalType": "bool",
          "name": "",
          "type": "bool"
        }
      ],
      "stateMutability": "view",
      "type": "function"
    },
    {
      "inputs": [
        {
          "internalType": "bytes32",
          "name": "taskId",
          "type": "bytes32"
        }
      ],
      "name": "getResult",
      "outputs": [
        {
          "components": [
            {
              "internalType": "bytes32",
              "name": "taskId",
              "type": "bytes32"
            },
            {
              "internalType": "string",
              "name": "solutionURI",
              "type": "string"
            },
            {
              "internalType": "uint256",
              "name": "score",
              "type": "uint256"
            },
            {
              "internalType": "address",
              "name": "submitter",
              "type": "address"
            },
            {
              "internalType": "uint256",
              "name": "timestamp",
              "type": "uint256"
            }
          ],
          "internalType": "struct QuantumOracle.OptimizationResult",
          "name": "",
          "type": "tuple"
        }
      ],
      "stateMutability": "view",
      "type": "function"
    },
    {
      "inputs": [
        {
          "internalType": "bytes32",
          "name": "taskId",
          "type": "bytes32"
        }
      ],
      "name": "isVerified",
      "outputs": [
        {
          "internalType": "bool",
          "name": "",
          "type": "bool"
        }
      ],
      "stateMutability": "view",
      "type": "function"
    },
    {
      "inputs": [],
      "name": "owner",
      "outputs": [
        {
          "internalType": "address",
          "name": "",
          "type": "address"
        }
      ],
      "stateMutability": "view",
      "type": "function"
    },
    {
      "inputs": [
        {
          "internalType": "bytes32",
          "name": "",
          "type": "bytes32"
        }
      ],
      "name": "results",
      "outputs": [
        {
          "internalType": "bytes32",
          "name": "taskId",
          "type": "bytes32"
        },
        {
          "internalType": "string",
          "name": "solutionURI",
          "type": "string"
        },
        {
          "internalType": "uint256",
          "name": "score",
          "type": "uint256"
        },
        {
          "internalType": "address",
          "name": "submitter",
          "type": "address"
        },
        {
          "internalType": "uint256",
          "name": "timestamp",
          "type": "uint256"
        }
      ],
      "stateMutability": "view",
      "type": "function"
    },
    {
      "inputs": [],
      "name": "robotRegistryAddress",
      "outputs": [
        {
          "internalType": "address",
          "name": "",
          "type": "address"
        }
      ],
      "stateMutability": "view",
      "type": "function"
    },
    {
      "inputs": [
        {
          "internalType": "address",
          "name": "node",
          "type": "address"
        },
        {
          "internalType": "bool",
          "name": "authorized",
          "type": "bool"
        }
      ],
      "name": "setNode",
      "outputs": [],
      "stateMutability": "nonpayable",
      "type": "function"
    },
    {
      "inputs": [
        {
          "internalType": "address",
          "name": "_registry",
          "type": "address"
        }
      ],
      "name": "setRobotRegistry",
      "outputs": [],
      "stateMutability": "nonpayable",
      "type": "function"
    },
    {
      "inputs": [
        {
          "internalType": "address",
          "name": "_market",
          "type": "address"
        }
      ],
      "name": "setTaskMarket",
      "outputs": [],
      "stateMutability": "nonpayable",
      "type": "function"
    },
    {
      "inputs": [
        {
          "internalType": "bytes32",
          "name": "taskId",
          "type": "bytes32"
        },
        {
          "internalType": "string",
          "name": "solutionURI",
          "type": "string"
        },
        {
          "internalType": "uint256",
          "name": "score",
          "type": "uint256"
        }
      ],
      "name": "submitResult",
      "outputs": [],
      "stateMutability": "nonpayable",
      "type": "function"
    },
    {
      "inputs": [],
      "name": "taskMarketAddress",
      "outputs": [
        {
          "internalType": "address",
          "name": "",
          "type": "address"
        }
      ],
      "stateMutability": "view",
      "type": "function"
    },
    {
      "inputs": [
        {
          "internalType": "bytes32",
          "name": "",
          "type": "bytes32"
        }
      ],
      "name": "verified",
      "outputs": [
        {
          "internalType": "bool",
          "name": "",
          "type": "bool"
        }
      ],
      "stateMutability": "view",
      "type": "function"
    },
    {
      "inputs": [
        {
          "internalType": "bytes32",
          "name": "taskId",
          "type": "bytes32"
        },
        {
          "internalType": "bytes32",
          "name": "robotId",
          "type": "bytes32"
        },
        {
          "internalType": "uint256",
          "name": "requiredScore",
          "type": "uint256"
        },
        {
          "internalType": "string",
          "name": "evidenceURI",
          "type": "string"
        }
      ],
      "name": "verifyTask",
      "outputs": [],
      "stateMutability": "nonpayable",
      "type": "function"
    }
  ],
  "bytecode": "0x60808060405234610040573360018060a01b031960035416176003553360005260006020526040600020600160ff19825416179055610d1590816100468239f35b600080fdfe6080604052600436101561001257600080fd5b6000803560e01c8063208e489214610a1b57806341addb7b1461099557806343c1d6a9146106e35780634c6b25b11461066b5780637e53a7401461062d5780638da5cb5b14610604578063a4bf7cf6146105db578063add4c78414610508578063bc70c574146104df578063c181b273146104b0578063c59e43e5146104b0578063d95f14d0146104605763dc1ca1b1146100ac57600080fd5b3461045d57606036600319011261045d5767ffffffffffffffff6024358181116102cc576100de903690600401610a86565b91338452836020526100f660ff604086205416610c7c565b8215610420576004358452600160205260046040852001546103db576040519061011f82610b18565b60043582528084116103c75760405190610143601f8601601f191660200183610b34565b84825236858501116103c357848460208401378560208684010152602083019182526044356040840152336060840152426080840152600435865260016020526040862091835183555180519182116103af579082916101a860018996950154610ab4565b601f811161035a575b50602090601f83116001146102ea57859190836102df575b50508160011b916000199060031b1c19161760018201555b6040820151600282015560608201516003820180546001600160a01b0319166001600160a01b039283161790556080909201516004909101556005541680610272575b505061023c9060405192604084526040840191610cbe565b60443560208301527f44055ecdcb16a5c0cbb8c982a010196b70f883de0e4369679097b22f5d24c07d339280600435930390a380f35b803b156102db5781604051809263042e48fd60e41b82526004356004830152604060248301528183816102a9604482018b8b610cbe565b03925af180156102d05715610224576102c190610aee565b6102cc578238610224565b8280fd5b6040513d84823e3d90fd5b5080fd5b0151905038806101c9565b906001840186526020862091865b601f198516811061033f575090839291600194601f19811610610326575b505050811b0160018201556101e1565b015160001960f88460031b161c19169055388080610316565b8183015184558a9750600190930192602092830192016102f8565b90919293945060018401885260208820601f840160051c8101602085106103a8575b90899695949392915b601f830160051c8201811061039b5750506101b1565b9687558996600101610385565b508061037c565b634e487b7160e01b87526041600452602487fd5b8580fd5b634e487b7160e01b85526041600452602485fd5b60405162461bcd60e51b815260206004820152601860248201527f526573756c7420616c7265616479207375626d697474656400000000000000006044820152606490fd5b60405162461bcd60e51b815260206004820152601560248201527414dbdb1d5d1a5bdb88155492481c995c5d5a5c9959605a1b6044820152606490fd5b80fd5b503461045d57602036600319011261045d5761047a610a6b565b6003546001600160a01b0391906104949083163314610c3b565b166bffffffffffffffffffffffff60a01b600454161760045580f35b503461045d57602036600319011261045d5760ff60406020926004358152600284522054166040519015158152f35b503461045d578060031936011261045d576004546040516001600160a01b039091168152602090f35b503461045d576020908160031936011261045d57806040916080835161052d81610b18565b82815260608682015282858201528260608201520152600435815260018352206040519061055a82610b18565b8054825261056a60018201610b56565b8383019081526002820154916040840192835260018060a01b03906105c360048360038401541692606088019384520154936080870194855260405197889781895251908801525160a0604088015260c0870190610bfb565b93516060860152511660808401525160a08301520390f35b503461045d578060031936011261045d576005546040516001600160a01b039091168152602090f35b503461045d578060031936011261045d576003546040516001600160a01b039091168152602090f35b503461045d57602036600319011261045d5760209060ff906040906001600160a01b03610658610a6b565b1681528084522054166040519015158152f35b503461045d57602036600319011261045d576040906004358152600160205220805461069960018301610b56565b91600281015490600460018060a01b03600383015416910154906106cf604051958695865260a0602087015260a0860190610bfb565b926040850152606084015260808301520390f35b503461045d57608036600319011261045d576004356044602460643567ffffffffffffffff81116109915761071c903690600401610a86565b92909233865260209286845261073860ff604089205416610c7c565b8587526002845260ff60408820541661095c57858752600184526004604088200154156109245781156108ea5786908682526002855260408220600160ff19825416179055600185528335600260408420015410159360018060a01b0380600454168061086f575b50600554169182610806575b5050509361080091867f4c6dc80f49c457d035753735461eb2b016af504977ec73ce82847341fac056b796526001855260026040892001546040519586958652850152606060408501526060840191610cbe565b0390a280f35b823b1561086b5785926060859360405195869463e59965d560e01b86528d60048701528501528301528183816108418c8a6064840191610cbe565b03925af180156102d057610857575b80806107ac565b61086090610aee565b6103c3578538610850565b8380fd5b849192939450866000146108e157600a905b803b156102cc57848392604051948593849263cf83306160e01b84528a3560048501528a8401525af180156108d6576108bf575b90899392916107a0565b6108cd909991939299610aee565b979091386108b5565b6040513d8c823e3d90fd5b60041990610881565b8374115d9a59195b98d948155492481c995c5d5a5c9959605a1b8460156064946040519462461bcd60e51b86526004860152840152820152fd5b8372139bc81c995cdd5b1d081cdd589b5a5d1d1959606a1b8460136064946040519462461bcd60e51b86526004860152840152820152fd5b836f105b1c9958591e481d995c9a599a595960821b8460106064946040519462461bcd60e51b86526004860152840152820152fd5b8480fd5b503461045d57604036600319011261045d576109af610a6b565b602435908115158092036102cc5760207f133bd293b8ca6fa1205d5bcb378f4c713567ae5ffec78c38d98ac59fe9c258bb9160018060a01b03906109f882600354163314610c3b565b16928385528482526040852060ff1981541660ff8316179055604051908152a280f35b503461045d57602036600319011261045d57610a35610a6b565b6003546001600160a01b039190610a4f9083163314610c3b565b166bffffffffffffffffffffffff60a01b600554161760055580f35b600435906001600160a01b0382168203610a8157565b600080fd5b9181601f84011215610a815782359167ffffffffffffffff8311610a815760208381860195010111610a8157565b90600182811c92168015610ae4575b6020831014610ace57565b634e487b7160e01b600052602260045260246000fd5b91607f1691610ac3565b67ffffffffffffffff8111610b0257604052565b634e487b7160e01b600052604160045260246000fd5b60a0810190811067ffffffffffffffff821117610b0257604052565b90601f8019910116810190811067ffffffffffffffff821117610b0257604052565b90604051918260008254610b6981610ab4565b90818452602094600191600181169081600014610bd95750600114610b9a575b505050610b9892500383610b34565b565b600090815285812095935091905b818310610bc1575050610b989350820101388080610b89565b85548884018501529485019487945091830191610ba8565b92505050610b9894925060ff191682840152151560051b820101388080610b89565b919082519283825260005b848110610c27575050826000602080949584010152601f8019910116010190565b602081830181015184830182015201610c06565b15610c4257565b60405162461bcd60e51b81526020600482015260126024820152712737ba1031b7b73a3930b1ba1037bbb732b960711b6044820152606490fd5b15610c8357565b60405162461bcd60e51b81526020600482015260136024820152724e6f7420617574686f72697a6564206e6f646560681b6044820152606490fd5b908060209392818452848401376000828201840152601f01601f191601019056fea2646970667358221220ca2eaf02e92c276d74f0357b0deb5dc4dd43982e98613bf96c3dfccf5451a7dd64736f6c63430008180033",
  "linkReferences": {},
  "deployedLinkReferences": {}
}