{
  "_format": "hh-sol-artifact-1",
  "contractName": "EthicalDAO",
  "sourceName": "contracts/EthicalDAO.sol",
  "abi": [
    {
      "inputs": [],
      "stateMutability": "nonpayable",
      "type": "constructor"
    },
    {
      "anonymous": false,
      "inputs": [
        {
          "indexed": true,
          "internalType": "uint256",
          "name": "proposalId",
          "type": "uint256"
        },
        {
          "indexed": true,
          "internalType": "address",
          "name": "proposer",
          "type": "address"
        },
        {
          "indexed": false,
          "internalType": "string",
          "name": "title",
          "type": "string"
        }
      ],
      "name": "ProposalCreated",
      "type": "event"
    },
    {
      "anonymous": false,
      "inputs": [
        {
          "indexed": true,
          "internalType": "uint256",
          "name": "proposalId",
          "type": "uint256"
        },
        {
          "indexed": false,
          "internalType": "bool",
          "name": "passed",
          "type": "bool"
        }
      ],
      "name": "ProposalExecuted",
      "type": "event"
    },
    {
      "anonymous": false,
      "inputs": [
        {
          "indexed": true,
          "internalType": "uint256",
          "name": "proposalId",
          "type": "uint256"
        },
        {
          "indexed": true,
          "internalType": "address",
          "name": "voter",
          "type": "address"
        },
        {
          "indexed": false,
          "internalType": "bool",
          "name": "support",
          "type": "bool"
        },
        {
          "indexed": false,
          "internalType": "uint256",
          "name": "weight",
          "type": "uint256"
        }
      ],
      "name": "Voted",
      "type": "event"
    },
    {
      "inputs": [
        {
          "internalType": "uint256",
          "name": "proposalId",
          "type": "uint256"
        }
      ],
      "name": "canExecute",
      "outputs": [
        {
          "internalType": "bool",
          "name": "",
          "type": "bool"
        }
      ],
      "stateMutability": "view",
      "type": "function"
    },
    {
      "inputs": [
        {
          "internalType": "uint256",
          "name": "proposalId",
          "type": "uint256"
        }
      ],
      "name": "execute",
      "outputs": [],
      "stateMutability": "nonpayable",
      "type": "function"
    },
    {
      "inputs": [
        {
          "internalType": "uint256",
          "name": "proposalId",
          "type": "uint256"
        }
      ],
      "name": "getProposal",
      "outputs": [
        {
          "components": [
            {
              "internalType": "uint256",
              "name": "id",
              "type": "uint256"
            },
            {
              "internalType": "address",
              "name": "proposer",
              "type": "address"
            },
            {
              "internalType": "string",
              "name": "title",
              "type": "string"
            },
            {
              "internalType": "string",
              "name": "description",
              "type": "string"
            },
            {
              "internalType": "bytes",
              "name": "callData",
              "type": "bytes"
            },
            {
              "internalType": "address",
              "name": "target",
              "type": "address"
            },
            {
              "internalType": "uint256",
              "name": "yesVotes",
              "type": "uint256"
            },
            {
              "internalType": "uint256",
              "name": "noVotes",
              "type": "uint256"
            },
            {
              "internalType": "uint256",
              "name": "createdAt",
              "type": "uint256"
            },
            {
              "internalType": "uint256",
              "name": "votingEnds",
              "type": "uint256"
            },
            {
              "internalType": "bool",
              "name": "executed",
              "type": "bool"
            },
            {
              "internalType": "bool",
              "name": "passed",
              "type": "bool"
            }
          ],
          "internalType": "struct EthicalDAO.Proposal",
          "name": "",
          "type": "tuple"
        }
      ],
      "stateMutability": "view",
      "type": "function"
    },
    {
      "inputs": [
        {
          "internalType": "uint256",
          "name": "proposalId",
          "type": "uint256"
        }
      ],
      "name": "getTotalVotes",
      "outputs": [
        {
          "internalType": "uint256",
          "name": "",
          "type": "uint256"
        }
      ],
      "stateMutability": "view",
      "type": "function"
    },
    {
      "inputs": [
        {
          "internalType": "uint256",
          "name": "proposalId",
          "type": "uint256"
        },
        {
          "internalType": "address",
          "name": "voter",
          "type": "address"
        }
      ],
      "name": "getVote",
      "outputs": [
        {
          "components": [
            {
              "internalType": "bool",
              "name": "voted",
              "type": "bool"
            },
            {
              "internalType": "bool",
              "name": "support",
              "type": "bool"
            },
            {
              "internalType": "uint256",
              "name": "weight",
              "type": "uint256"
            }
          ],
          "internalType": "struct EthicalDAO.Vote",
          "name": "",
          "type": "tuple"
        }
      ],
      "stateMutability": "view",
      "type": "function"
    },
    {
      "inputs": [],
      "name": "minProposalWeight",
      "outputs": [
        {
          "internalType": "uint256",
          "name": "",
          "type": "uint256"
        }
      ],
      "stateMutability": "view",
      "type": "function"
    },
    {
      "inputs": [],
      "name": "owner",
      "outputs": [
        {
          "internalType": "address",
          "name": "",
          "type": "address"
        }
      ],
      "stateMutability": "view",
      "type": "function"
    },
    {
      "inputs": [],
      "name": "proposalCount",
      "outputs": [
        {
          "internalType": "uint256",
          "name": "",
          "type": "uint256"
        }
      ],
      "stateMutability": "view",
      "type": "function"
    },
    {
      "inputs": [
        {
          "internalType": "uint256",
          "name": "",
          "type": "uint256"
        }
      ],
      "name": "proposals",
      "outputs": [
        {
          "internalType": "uint256",
          "name": "id",
          "type": "uint256"
        },
        {
          "internalType": "address",
          "name": "proposer",
          "type": "address"
        },
        {
          "internalType": "string",
          "name": "title",
          "type": "string"
        },
        {
          "internalType": "string",
          "name": "description",
          "type": "string"
        },
        {
          "internalType": "bytes",
          "name": "callData",
          "type": "bytes"
        },
        {
          "internalType": "address",
          "name": "target",
          "type": "address"
        },
        {
          "internalType": "uint256",
          "name": "yesVotes",
          "type": "uint256"
        },
        {
          "internalType": "uint256",
          "name": "noVotes",
          "type": "uint256"
        },
        {
          "internalType": "uint256",
          "name": "createdAt",
          "type": "uint256"
        },
        {
          "internalType": "uint256",
          "name": "votingEnds",
          "type": "uint256"
        },
        {
          "internalType": "bool",
          "name": "executed",
          "type": "bool"
        },
        {
          "internalType": "bool",
          "name": "passed",
          "type": "bool"
        }
      ],
      "stateMutability": "view",
      "type": "function"
    },
    {
      "inputs": [
        {
          "internalType": "string",
          "name": "title",
          "type": "string"
        },
        {
          "internalType": "string",
          "name": "description",
          "type": "string"
        },
        {
          "internalType": "address",
          "name": "target",
          "type": "address"
        },
        {
          "internalType": "bytes",
          "name": "callData",
          "type": "bytes"
        }
      ],
      "name": "propose",
      "outputs": [
        {
          "internalType": "uint256",
          "name": "",
          "type": "uint256"
        }
      ],
      "stateMutability": "nonpayable",
      "type": "function"
    },
    {
      "inputs": [],
      "name": "robotRegistryAddress",
      "outputs": [
        {
          "internalType": "address",
          "name": "",
          "type": "address"
        }
      ],
      "stateMutability": "view",
      "type": "function"
    },
    {
      "inputs": [
        {
          "internalType": "address",
          "name": "_registry",
          "type": "address"
        }
      ],
      "name": "setRobotRegistry",
      "outputs": [],
      "stateMutability": "nonpayable",
      "type": "function"
    },
    {
      "inputs": [
        {
          "internalType": "uint256",
          "name": "_votingPeriod",
          "type": "uint256"
        }
      ],
      "name": "setVotingPeriod",
      "outputs": [],
      "stateMutability": "nonpayable",
      "type": "function"
    },
    {
      "inputs": [
        {
          "internalType": "uint256",
          "name": "proposalId",
          "type": "uint256"
        },
        {
          "internalType": "bool",
          "name": "support",
          "type": "bool"
        }
      ],
      "name": "vote",
      "outputs": [],
      "stateMutability": "nonpayable",
      "type": "function"
    },
    {
      "inputs": [
        {
          "internalType": "uint256",
          "name": "",
          "type": "uint256"
        },
        {
          "internalType": "address",
          "name": "",
          "type": "address"
        }
      ],
      "name": "votes",
      "outputs": [
        {
          "internalType": "bool",
          "name": "voted",
          "type": "bool"
        },
        {
          "internalType": "bool",
          "name": "support",
          "type": "bool"
        },
        {
          "internalType": "uint256",
          "name": "weight",
          "type": "uint256"
        }
      ],
      "stateMutability": "view",
      "type": "function"
    },
    {
      "inputs": [],
      "name": "votingPeriod",
      "outputs": [
        {
          "internalType": "uint256",
          "name": "",
          "type": "uint256"
        }
      ],
      "stateMutability": "view",
      "type": "function"
    }
  ],
  "bytecode": "0x60808060405234610034576203f4806003556001600455600580546001600160a01b031916331790556114c4908161003a8239f35b600080fdfe608080604052600436101561001357600080fd5b60003560e01c908163013cf08b146110405750806302a251a3146110225780632ce35e1114610fd75780638da5cb5b14610fae578063bc3f931f14610f0d578063bc70c57414610ee4578063c7f758a814610cc9578063c9d27afe14610af4578063cc63604a146109d9578063d23254b414610974578063d95f14d014610926578063da35c66414610908578063de7b163814610346578063e3415cc714610328578063ea0217cf146102fa5763fe0d94c1146100cf57600080fd5b346102f5576020806003193601126102f557600435906100f2600254831061130c565b81600052600081526040600020600981015442106102ba57600a810190815461011e60ff821615611365565b60ff19808216600190811785556006840154600785015461ffff19909416931060081b61ff0016929092178217845560ff845460081c16806102a4575b610196575b857f948f4a9cd986f1118c3fbd459f7a22b23c0693e1ca3ef06a6a8be5aa7d39cc038660ff875460081c166040519015158152a2005b600460018060a01b036005850154169301906040519260009280546101ba8161115d565b936001821691821561028d575050600114610252575b50505091816000809493819403925af13d1561024d573d6101f0816113e5565b906101fe6040519283611266565b81526000843d92013e5b1561021557388080610160565b60405162461bcd60e51b815260048101839052601060248201526f115e1958dd5d1a5bdb8819985a5b195960821b6044820152606490fd5b610208565b909192506000528560002090866000925b84841061027b575050509082019050816000806101d0565b80548685015292019187908201610263565b1686525050508015150282019050816000806101d0565b5060058301546001600160a01b0316151561015b565b60405162461bcd60e51b8152600481018390526013602482015272566f74696e67207374696c6c2061637469766560681b6044820152606490fd5b600080fd5b346102f55760203660031901126102f55761032060018060a01b036005541633146113a4565b600435600355005b346102f55760003660031901126102f5576020600454604051908152f35b346102f55760803660031901126102f55760043567ffffffffffffffff81116102f5576103779036906004016112de565b60243567ffffffffffffffff81116102f5576103979036906004016112de565b60443592916001600160a01b03841684036102f55760643567ffffffffffffffff81116102f5576103cc9036906004016112de565b84959195156108d2578315610896576002549560001987146108805761043c916001880160025561043061040260035442611358565b956040519761041089611249565b8a89523360208a0152610424368b8e611401565b60408a01523691611401565b60608701523691611401565b608084015260018060a01b031660a0830152600060c0830152600060e08301524261010083015261012082015260006101408201526000610160820152826000526000602052604060002093815185556001850160018060a01b036020840151166001600160601b0360a01b825416179055604082015180519067ffffffffffffffff821161077b576104df826104d660028a015461115d565b60028a01611438565b602090601f831160011461080e57610510929160009183610791575b50508160011b916000199060031b1c19161790565b60028601555b606082015180519067ffffffffffffffff821161077b576105478261053e60038a015461115d565b60038a01611438565b602090601f831160011461079c576105779291600091836107915750508160011b916000199060031b1c19161790565b60038601555b60808201519182519567ffffffffffffffff871161077b578686946105b46020996105ab600486015461115d565b60048601611438565b8890601f83116001146106d95761069993610610847f7585f467599d0f008985f231af99293be388626ac16ca59505c2f8f88969cd6398979561016095600a956000926106ce5750508160011b916000199060031b1c19161790565b60048201555b6005810160018060a01b0360a0860151166001600160601b0360a01b82541617905560c0840151600682015560e084015160078201556101008401516008820155610120840151600982015501916106816101408201511515849060ff801983541691151516179055565b0151815461ff00191690151560081b61ff0016179055565b8360405191878352818884015260408301376000604085830101526040813395601f80199101168101030190a3604051908152f35b015190508e806104fb565b95949392919060048301600052896000209660005b601f19841681106107615750926001837f7585f467599d0f008985f231af99293be388626ac16ca59505c2f8f88969cd639899600a94610699989761016097601f19811610610748575b505050811b016004820155610616565b015160001960f88460031b161c191690558d8080610738565b8282015189556001909801978a9750918b01918b016106ee565b634e487b7160e01b600052604160045260246000fd5b0151905088806104fb565b9190600388016000526020600020906000935b601f19841685106107f3576001945083601f198116106107da575b505050811b01600386015561057d565b015160001960f88460031b161c191690558780806107ca565b818101518355602094850194600190930192909101906107af565b9190600288016000526020600020906000935b601f1984168510610865576001945083601f1981161061084c575b505050811b016002860155610516565b015160001960f88460031b161c1916905587808061083c565b81810151835560209485019460019093019290910190610821565b634e487b7160e01b600052601160045260246000fd5b60405162461bcd60e51b815260206004820152601460248201527311195cd8dc9a5c1d1a5bdb881c995c5d5a5c995960621b6044820152606490fd5b60405162461bcd60e51b815260206004820152600e60248201526d151a5d1b19481c995c5d5a5c995960921b6044820152606490fd5b346102f55760003660031901126102f5576020600254604051908152f35b346102f55760203660031901126102f5576004356001600160a01b03818116918290036102f55761095c906005541633146113a4565b6001600160601b0360a01b6006541617600655600080f35b346102f55760403660031901126102f55761098d6112c8565b600435600052600160205260406000209060018060a01b0316600052602052606060406000206001815491015460ff604051928181161515845260081c16151560208301526040820152f35b346102f55760203660031901126102f5576004356109fa600254821061130c565b60005260006020526020604060002060405190610a1682611249565b8054825260018101546001600160a01b0390811684840152604051610a4981610a428160028701611197565b0382611266565b6040840152604051610a6281610a428160038701611197565b6060840152604051610a7b81610a428160048701611197565b608084015260058201541660a0830152600681015460c0830152600781015460e08301526008810154610100830152600a6009820154918261012085015201549161016060ff8085161594851561014085015260081c1615159101524210159081610aec575b506040519015158152f35b905082610ae1565b346102f55760403660031901126102f55760043560243590811515918281036102f557610b24600254831061130c565b81600052602060008152600960406000200154421015610c96578260005260008152610b5b60ff600a604060002001541615611365565b82600052600191828252604060002033600052825260ff60406000205416610c6157604051610b898161122d565b83815283838201878152610be56040840191838352886000528387526040600020336000528752610bce604060002095511515869060ff801983541691151516179055565b51845461ff00191690151560081b61ff0016178455565b5191015515610c3e578260005260008152600660406000200180549083820180921161088057555b6040519384528301527f7c2de587c00d75474a0c6c6fa96fd3b45dc974cd4e8a75f712bb84c950dce1b560403393a3005b826000526000815260076040600020018054908382018092116108805755610c0d565b60405162461bcd60e51b815260048101839052600d60248201526c105b1c9958591e481d9bdd1959609a1b6044820152606490fd5b6064906040519062461bcd60e51b82526004820152600c60248201526b159bdd1a5b99c8195b99195960a21b6044820152fd5b346102f55760203660031901126102f5576004356000610160604051610cee81611249565b82815282602082015260606040820152606080820152606060808201528260a08201528260c08201528260e08201528261010082015282610120820152826101408201520152610d41600254821061130c565b6000526000602052604060002060ff600a60405192610d5f84611249565b8054845260018101546001600160a01b03166020850152604051610d8a81610a428160028601611197565b6040850152604051610da381610a428160038601611197565b6060850152604051610dbc81610a428160048601611197565b608085015260018060a01b0360058201541660a0850152600681015460c0850152600781015460e0850152600881015461010085015260098101546101208501520154818116151561014084015260081c1615156101608201526040518091602082528051602083015260018060a01b036020820151166040830152610160610e8a610e59604084015161018060608701526101a0860190611288565b610e75606085015191601f199283888303016080890152611288565b906080850151908683030160a0870152611288565b9160018060a01b0360a08201511660c085015260c081015160e085015260e0810151610100850152610100810151610120850152610120810151610140850152610140810151151582850152015115156101808301520390f35b346102f55760003660031901126102f5576006546040516001600160a01b039091168152602090f35b346102f55760403660031901126102f557610f266112c8565b600060408051610f358161122d565b8281528260208201520152600435600052600160205260406000209060018060a01b031660005260205260606040600020604051610f728161122d565b81546040600160ff831615159485855260ff602086019460081c1615158452015492019182526040519283525115156020830152516040820152f35b346102f55760003660031901126102f5576005546040516001600160a01b039091168152602090f35b346102f55760203660031901126102f557600435610ff8600254821061130c565b6000526000602052602061101a60406000206007600682015491015490611358565b604051908152f35b346102f55760003660031901126102f5576020600354604051908152f35b346102f55760203660031901126102f5576004356000526000602052604060002080549160ff60018060a01b0391826001850154169361108e826110878160028501611197565b0383611266565b6040516110a281610a428160038601611197565b604051946110be866110b78160048701611197565b0387611266565b60058301541694600683015461112660078501549261111860088701549561110a600a60098a0154990154996040519e8f9e8f9061018092825260208201528160408201520190611288565b8c810360608e015290611288565b908a820360808c0152611288565b9660a089015260c088015260e0870152610100860152610120850152818116151561014085015260081c1615156101608301520390f35b90600182811c9216801561118d575b602083101461117757565b634e487b7160e01b600052602260045260246000fd5b91607f169161116c565b8054600093926111a68261115d565b9182825260209360019160018116908160001461120e57506001146111cd575b5050505050565b90939495506000929192528360002092846000945b8386106111fa575050505001019038808080806111c6565b8054858701830152940193859082016111e2565b60ff19168685015250505090151560051b0101915038808080806111c6565b6060810190811067ffffffffffffffff82111761077b57604052565b610180810190811067ffffffffffffffff82111761077b57604052565b90601f8019910116810190811067ffffffffffffffff82111761077b57604052565b919082519283825260005b8481106112b4575050826000602080949584010152601f8019910116010190565b602081830181015184830182015201611293565b602435906001600160a01b03821682036102f557565b9181601f840112156102f55782359167ffffffffffffffff83116102f557602083818601950101116102f557565b1561131357565b60405162461bcd60e51b815260206004820152601760248201527f50726f706f73616c20646f6573206e6f742065786973740000000000000000006044820152606490fd5b9190820180921161088057565b1561136c57565b60405162461bcd60e51b815260206004820152601060248201526f105b1c9958591e48195e1958dd5d195960821b6044820152606490fd5b156113ab57565b60405162461bcd60e51b81526020600482015260126024820152712737ba1031b7b73a3930b1ba1037bbb732b960711b6044820152606490fd5b67ffffffffffffffff811161077b57601f01601f191660200190565b92919261140d826113e5565b9161141b6040519384611266565b8294818452818301116102f5578281602093846000960137010152565b90601f811161144657505050565b6000916000526020600020906020601f850160051c83019410611484575b601f0160051c01915b82811061147957505050565b81815560010161146d565b909250829061146456fea26469706673582212203bd79b31101e5bff569713618e08e099d0639fe710fae2b2064d6a59c6ed7b9764736f6c63430008180033",
  "linkReferences": {},
  "deployedLinkReferences": {}
}