{"contracts/QuantumOracle.sol":{"QuantumOracle":{"abi":[{"inputs":[],"stateMutability":"nonpayable","type":"constructor"},{"anonymous":false,"inputs":[{"indexed":true,"internalType":"address","name":"node","type":"address"},{"indexed":false,"internalType":"bool","name":"authorized","type":"bool"}],"name":"NodeAuthorized","type":"event"},{"anonymous":false,"inputs":[{"indexed":true,"internalType":"bytes32","name":"taskId","type":"bytes32"},{"indexed":false,"internalType":"string","name":"solutionURI","type":"string"},{"indexed":false,"internalType":"uint256","name":"score","type":"uint256"},{"indexed":true,"internalType":"address","name":"submitter","type":"address"}],"name":"ResultSubmitted","type":"event"},{"anonymous":false,"inputs":[{"indexed":true,"internalType":"bytes32","name":"taskId","type":"bytes32"},{"indexed":false,"internalType":"bool","name":"success","type":"bool"},{"indexed":false,"internalType":"uint256","name":"score","type":"uint256"},{"indexed":false,"internalType":"string","name":"evidenceURI","type":"string"}],"name":"TaskVerified","type":"event"},{"inputs":[{"internalType":"address","name":"","type":"address"}],"name":"authorizedNodes","outputs":[{"internalType":"bool","name":"","type":"bool"}],"stateMutability":"view","type":"function"},{"inputs":[{"internalType":"bytes32","name":"taskId","type":"bytes32"}],"name":"getResult","outputs":[{"components":[{"internalType":"bytes32","name":"taskId","type":"bytes32"},{"internalType":"string","name":"solutionURI","type":"string"},{"internalType":"uint256","name":"score","type":"uint256"},{"internalType":"address","name":"submitter","type":"address"},{"internalType":"uint256","name":"timestamp","type":"uint256"}],"internalType":"struct QuantumOracle.OptimizationResult","name":"","type":"tuple"}],"stateMutability":"view","type":"function"},{"inputs":[{"internalType":"bytes32","name":"taskId","type":"bytes32"}],"name":"isVerified","outputs":[{"internalType":"bool","name":"","type":"bool"}],"stateMutability":"view","type":"function"},{"inputs":[],"name":"owner","outputs":[{"internalType":"address","name":"","type":"address"}],"stateMutability":"view","type":"function"},{"inputs":[{"internalType":"bytes32","name":"","type":"bytes32"}],"name":"results","outputs":[{"internalType":"bytes32","name":"taskId","type":"bytes32"},{"internalType":"string","name":"solutionURI","type":"string"},{"internalType":"uint256","name":"score","type":"uint256"},{"internalType":"address","name":"submitter","type":"address"},{"internalType":"uint256","name":"timestamp","type":"uint256"}],"stateMutability":"view","type":"function"},{"inputs":[],"name":"robotRegistryAddress","outputs":[{"internalType":"address","name":"","type":"address"}],"stateMutability":"view","type":"function"},{"inputs":[{"internalType":"address","name":"node","type":"address"},{"internalType":"bool","name":"authorized","type":"bool"}],"name":"setNode","outputs":[],"stateMutability":"nonpayable","type":"function"},{"inputs":[{"internalType":"address","name":"_registry","type":"address"}],"name":"setRobotRegistry","outputs":[],"stateMutability":"nonpayable","type":"function"},{"inputs":[{"internalType":"address","name":"_market","type":"address"}],"name":"setTaskMarket","outputs":[],"stateMutability":"nonpayable","type":"function"},{"inputs":[{"internalType":"bytes32","name":"taskId","type":"bytes32"},{"internalType":"string","name":"solutionURI","type":"string"},{"internalType":"uint256","name":"score","type":"uint256"}],"name":"submitResult","outputs":[],"stateMutability":"nonpayable","type":"function"},{"inputs":[],"name":"taskMarketAddress","outputs":[{"internalType":"address","name":"","type":"address"}],"stateMutability":"view","type":"function"},{"inputs":[{"internalType":"bytes32","name":"","type":"bytes32"}],"name":"verified","outputs":[{"internalType":"bool","name":"","type":"bool"}],"stateMutability":"view","type":"function"},{"inputs":[{"internalType":"bytes32","name":"taskId","type":"bytes32"},{"internalType":"bytes32","name":"robotId","type":"bytes32"},{"internalType":"uint256","name":"requiredScore","type":"uint256"},{"internalType":"string","name":"evidenceURI","type":"string"}],"name":"verifyTask","outputs":[],"stateMutability":"nonpayable","type":"function"}],"evm":{"bytecode":{"linkReferences":{},"object":"60808060405234610040573360018060a01b031960035416176003553360005260006020526040600020600160ff19825416179055610d1590816100468239f35b600080fdfe6080604052600436101561001257600080fd5b6000803560e01c8063208e489214610a1b57806341addb7b1461099557806343c1d6a9146106e35780634c6b25b11461066b5780637e53a7401461062d5780638da5cb5b14610604578063a4bf7cf6146105db578063add4c78414610508578063bc70c574146104df578063c181b273146104b0578063c59e43e5146104b0578063d95f14d0146104605763dc1ca1b1146100ac57600080fd5b3461045d57606036600319011261045d5767ffffffffffffffff6024358181116102cc576100de903690600401610a86565b91338452836020526100f660ff604086205416610c7c565b8215610420576004358452600160205260046040852001546103db576040519061011f82610b18565b60043582528084116103c75760405190610143601f8601601f191660200183610b34565b84825236858501116103c357848460208401378560208684010152602083019182526044356040840152336060840152426080840152600435865260016020526040862091835183555180519182116103af579082916101a860018996950154610ab4565b601f811161035a575b50602090601f83116001146102ea57859190836102df575b50508160011b916000199060031b1c19161760018201555b6040820151600282015560608201516003820180546001600160a01b0319166001600160a01b039283161790556080909201516004909101556005541680610272575b505061023c9060405192604084526040840191610cbe565b60443560208301527f44055ecdcb16a5c0cbb8c982a010196b70f883de0e4369679097b22f5d24c07d339280600435930390a380f35b803b156102db5781604051809263042e48fd60e41b82526004356004830152604060248301528183816102a9604482018b8b610cbe565b03925af180156102d05715610224576102c190610aee565b6102cc578238610224565b8280fd5b6040513d84823e3d90fd5b5080fd5b0151905038806101c9565b906001840186526020862091865b601f198516811061033f575090839291600194601f19811610610326575b505050811b0160018201556101e1565b015160001960f88460031b161c19169055388080610316565b8183015184558a9750600190930192602092830192016102f8565b90919293945060018401885260208820601f840160051c8101602085106103a8575b90899695949392915b601f830160051c8201811061039b5750506101b1565b9687558996600101610385565b508061037c565b634e487b7160e01b87526041600452602487fd5b8580fd5b634e487b7160e01b85526041600452602485fd5b60405162461bcd60e51b815260206004820152601860248201527f526573756c7420616c7265616479207375626d697474656400000000000000006044820152606490fd5b60405162461bcd60e51b815260206004820152601560248201527414dbdb1d5d1a5bdb88155492481c995c5d5a5c9959605a1b6044820152606490fd5b80fd5b503461045d57602036600319011261045d5761047a610a6b565b6003546001600160a01b0391906104949083163314610c3b565b166bffffffffffffffffffffffff60a01b600454161760045580f35b503461045d57602036600319011261045d5760ff60406020926004358152600284522054166040519015158152f35b503461045d578060031936011261045d576004546040516001600160a01b039091168152602090f35b503461045d576020908160031936011261045d57806040916080835161052d81610b18565b82815260608682015282858201528260608201520152600435815260018352206040519061055a82610b18565b8054825261056a60018201610b56565b8383019081526002820154916040840192835260018060a01b03906105c360048360038401541692606088019384520154936080870194855260405197889781895251908801525160a0604088015260c0870190610bfb565b93516060860152511660808401525160a08301520390f35b503461045d578060031936011261045d576005546040516001600160a01b039091168152602090f35b503461045d578060031936011261045d576003546040516001600160a01b039091168152602090f35b503461045d57602036600319011261045d5760209060ff906040906001600160a01b03610658610a6b565b1681528084522054166040519015158152f35b503461045d57602036600319011261045d576040906004358152600160205220805461069960018301610b56565b91600281015490600460018060a01b03600383015416910154906106cf604051958695865260a0602087015260a0860190610bfb565b926040850152606084015260808301520390f35b503461045d57608036600319011261045d576004356044602460643567ffffffffffffffff81116109915761071c903690600401610a86565b92909233865260209286845261073860ff604089205416610c7c565b8587526002845260ff60408820541661095c57858752600184526004604088200154156109245781156108ea5786908682526002855260408220600160ff19825416179055600185528335600260408420015410159360018060a01b0380600454168061086f575b50600554169182610806575b5050509361080091867f4c6dc80f49c457d035753735461eb2b016af504977ec73ce82847341fac056b796526001855260026040892001546040519586958652850152606060408501526060840191610cbe565b0390a280f35b823b1561086b5785926060859360405195869463e59965d560e01b86528d60048701528501528301528183816108418c8a6064840191610cbe565b03925af180156102d057610857575b80806107ac565b61086090610aee565b6103c3578538610850565b8380fd5b849192939450866000146108e157600a905b803b156102cc57848392604051948593849263cf83306160e01b84528a3560048501528a8401525af180156108d6576108bf575b90899392916107a0565b6108cd909991939299610aee565b979091386108b5565b6040513d8c823e3d90fd5b60041990610881565b8374115d9a59195b98d948155492481c995c5d5a5c9959605a1b8460156064946040519462461bcd60e51b86526004860152840152820152fd5b8372139bc81c995cdd5b1d081cdd589b5a5d1d1959606a1b8460136064946040519462461bcd60e51b86526004860152840152820152fd5b836f105b1c9958591e481d995c9a599a595960821b8460106064946040519462461bcd60e51b86526004860152840152820152fd5b8480fd5b503461045d57604036600319011261045d576109af610a6b565b602435908115158092036102cc5760207f133bd293b8ca6fa1205d5bcb378f4c713567ae5ffec78c38d98ac59fe9c258bb9160018060a01b03906109f882600354163314610c3b565b16928385528482526040852060ff1981541660ff8316179055604051908152a280f35b503461045d57602036600319011261045d57610a35610a6b565b6003546001600160a01b039190610a4f9083163314610c3b565b166bffffffffffffffffffffffff60a01b600554161760055580f35b600435906001600160a01b0382168203610a8157565b600080fd5b9181601f84011215610a815782359167ffffffffffffffff8311610a815760208381860195010111610a8157565b90600182811c92168015610ae4575b6020831014610ace57565b634e487b7160e01b600052602260045260246000fd5b91607f1691610ac3565b67ffffffffffffffff8111610b0257604052565b634e487b7160e01b600052604160045260246000fd5b60a0810190811067ffffffffffffffff821117610b0257604052565b90601f8019910116810190811067ffffffffffffffff821117610b0257604052565b90604051918260008254610b6981610ab4565b90818452602094600191600181169081600014610bd95750600114610b9a575b505050610b9892500383610b34565b565b600090815285812095935091905b818310610bc1575050610b989350820101388080610b89565b85548884018501529485019487945091830191610ba8565b92505050610b9894925060ff191682840152151560051b820101388080610b89565b919082519283825260005b848110610c27575050826000602080949584010152601f8019910116010190565b602081830181015184830182015201610c06565b15610c4257565b60405162461bcd60e51b81526020600482015260126024820152712737ba1031b7b73a3930b1ba1037bbb732b960711b6044820152606490fd5b15610c8357565b60405162461bcd60e51b81526020600482015260136024820152724e6f7420617574686f72697a6564206e6f646560681b6044820152606490fd5b908060209392818452848401376000828201840152601f01601f191601019056fea2646970667358221220ca2eaf02e92c276d74f0357b0deb5dc4dd43982e98613bf96c3dfccf5451a7dd64736f6c63430008180033","opcodes":"PUSH1 0x80 DUP1 PUSH1 0x40 MSTORE CALLVALUE PUSH2 0x40 JUMPI CALLER PUSH1 0x1 DUP1 PUSH1 0xA0 SHL SUB NOT PUSH1 0x3 SLOAD AND OR PUSH1 0x3 SSTORE CALLER PUSH1 0x0 MSTORE PUSH1 0x0 PUSH1 0x20 MSTORE PUSH1 0x40 PUSH1 0x0 KECCAK256 PUSH1 0x1 PUSH1 0xFF NOT DUP3 SLOAD AND OR SWAP1 SSTORE PUSH2 0xD15 SWAP1 DUP2 PUSH2 0x46 DUP3 CODECOPY RETURN JUMPDEST PUSH1 0x0 DUP1 REVERT INVALID PUSH1 0x80 PUSH1 0x40 MSTORE PUSH1 0x4 CALLDATASIZE LT ISZERO PUSH2 0x12 JUMPI PUSH1 0x0 DUP1 REVERT JUMPDEST PUSH1 0x0 DUP1 CALLDATALOAD PUSH1 0xE0 SHR DUP1 PUSH4 0x208E4892 EQ PUSH2 0xA1B JUMPI DUP1 PUSH4 0x41ADDB7B EQ PUSH2 0x995 JUMPI DUP1 PUSH4 0x43C1D6A9 EQ PUSH2 0x6E3 JUMPI DUP1 PUSH4 0x4C6B25B1 EQ PUSH2 0x66B JUMPI DUP1 PUSH4 0x7E53A740 EQ PUSH2 0x62D JUMPI DUP1 PUSH4 0x8DA5CB5B EQ PUSH2 0x604 JUMPI DUP1 PUSH4 0xA4BF7CF6 EQ PUSH2 0x5DB JUMPI DUP1 PUSH4 0xADD4C784 EQ PUSH2 0x508 JUMPI DUP1 PUSH4 0xBC70C574 EQ PUSH2 0x4DF JUMPI DUP1 PUSH4 0xC181B273 EQ PUSH2 0x4B0 JUMPI DUP1 PUSH4 0xC59E43E5 EQ PUSH2 0x4B0 JUMPI DUP1 PUSH4 0xD95F14D0 EQ PUSH2 0x460 JUMPI PUSH4 0xDC1CA1B1 EQ PUSH2 0xAC JUMPI PUSH1 0x0 DUP1 REVERT JUMPDEST CALLVALUE PUSH2 0x45D JUMPI PUSH1 0x60 CALLDATASIZE PUSH1 0x3 NOT ADD SLT PUSH2 0x45D JUMPI PUSH8 0xFFFFFFFFFFFFFFFF PUSH1 0x24 CALLDATALOAD DUP2 DUP2 GT PUSH2 0x2CC JUMPI PUSH2 0xDE SWAP1 CALLDATASIZE SWAP1 PUSH1 0x4 ADD PUSH2 0xA86 JUMP JUMPDEST SWAP2 CALLER DUP5 MSTORE DUP4 PUSH1 0x20 MSTORE PUSH2 0xF6 PUSH1 0xFF PUSH1 0x40 DUP7 KECCAK256 SLOAD AND PUSH2 0xC7C JUMP JUMPDEST DUP3 ISZERO PUSH2 0x420 JUMPI PUSH1 0x4 CALLDATALOAD DUP5 MSTORE PUSH1 0x1 PUSH1 0x20 MSTORE PUSH1 0x4 PUSH1 0x40 DUP6 KECCAK256 ADD SLOAD PUSH2 0x3DB JUMPI PUSH1 0x40 MLOAD SWAP1 PUSH2 0x11F DUP3 PUSH2 0xB18 JUMP JUMPDEST PUSH1 0x4 CALLDATALOAD DUP3 MSTORE DUP1 DUP5 GT PUSH2 0x3C7 JUMPI PUSH1 0x40 MLOAD SWAP1 PUSH2 0x143 PUSH1 0x1F DUP7 ADD PUSH1 0x1F NOT AND PUSH1 0x20 ADD DUP4 PUSH2 0xB34 JUMP JUMPDEST DUP5 DUP3 MSTORE CALLDATASIZE DUP6 DUP6 ADD GT PUSH2 0x3C3 JUMPI DUP5 DUP5 PUSH1 0x20 DUP5 ADD CALLDATACOPY DUP6 PUSH1 0x20 DUP7 DUP5 ADD ADD MSTORE PUSH1 0x20 DUP4 ADD SWAP2 DUP3 MSTORE PUSH1 0x44 CALLDATALOAD PUSH1 0x40 DUP5 ADD MSTORE CALLER PUSH1 0x60 DUP5 ADD MSTORE TIMESTAMP PUSH1 0x80 DUP5 ADD MSTORE PUSH1 0x4 CALLDATALOAD DUP7 MSTORE PUSH1 0x1 PUSH1 0x20 MSTORE PUSH1 0x40 DUP7 KECCAK256 SWAP2 DUP4 MLOAD DUP4 SSTORE MLOAD DUP1 MLOAD SWAP2 DUP3 GT PUSH2 0x3AF JUMPI SWAP1 DUP3 SWAP2 PUSH2 0x1A8 PUSH1 0x1 DUP10 SWAP7 SWAP6 ADD SLOAD PUSH2 0xAB4 JUMP JUMPDEST PUSH1 0x1F DUP2 GT PUSH2 0x35A JUMPI JUMPDEST POP PUSH1 0x20 SWAP1 PUSH1 0x1F DUP4 GT PUSH1 0x1 EQ PUSH2 0x2EA JUMPI DUP6 SWAP2 SWAP1 DUP4 PUSH2 0x2DF JUMPI JUMPDEST POP POP DUP2 PUSH1 0x1 SHL SWAP2 PUSH1 0x0 NOT SWAP1 PUSH1 0x3 SHL SHR NOT AND OR PUSH1 0x1 DUP3 ADD SSTORE JUMPDEST PUSH1 0x40 DUP3 ADD MLOAD PUSH1 0x2 DUP3 ADD SSTORE PUSH1 0x60 DUP3 ADD MLOAD PUSH1 0x3 DUP3 ADD DUP1 SLOAD PUSH1 0x1 PUSH1 0x1 PUSH1 0xA0 SHL SUB NOT AND PUSH1 0x1 PUSH1 0x1 PUSH1 0xA0 SHL SUB SWAP3 DUP4 AND OR SWAP1 SSTORE PUSH1 0x80 SWAP1 SWAP3 ADD MLOAD PUSH1 0x4 SWAP1 SWAP2 ADD SSTORE PUSH1 0x5 SLOAD AND DUP1 PUSH2 0x272 JUMPI JUMPDEST POP POP PUSH2 0x23C SWAP1 PUSH1 0x40 MLOAD SWAP3 PUSH1 0x40 DUP5 MSTORE PUSH1 0x40 DUP5 ADD SWAP2 PUSH2 0xCBE JUMP JUMPDEST PUSH1 0x44 CALLDATALOAD PUSH1 0x20 DUP4 ADD MSTORE PUSH32 0x44055ECDCB16A5C0CBB8C982A010196B70F883DE0E4369679097B22F5D24C07D CALLER SWAP3 DUP1 PUSH1 0x4 CALLDATALOAD SWAP4 SUB SWAP1 LOG3 DUP1 RETURN JUMPDEST DUP1 EXTCODESIZE ISZERO PUSH2 0x2DB JUMPI DUP2 PUSH1 0x40 MLOAD DUP1 SWAP3 PUSH4 0x42E48FD PUSH1 0xE4 SHL DUP3 MSTORE PUSH1 0x4 CALLDATALOAD PUSH1 0x4 DUP4 ADD MSTORE PUSH1 0x40 PUSH1 0x24 DUP4 ADD MSTORE DUP2 DUP4 DUP2 PUSH2 0x2A9 PUSH1 0x44 DUP3 ADD DUP12 DUP12 PUSH2 0xCBE JUMP JUMPDEST SUB SWAP3 GAS CALL DUP1 ISZERO PUSH2 0x2D0 JUMPI ISZERO PUSH2 0x224 JUMPI PUSH2 0x2C1 SWAP1 PUSH2 0xAEE JUMP JUMPDEST PUSH2 0x2CC JUMPI DUP3 CODESIZE PUSH2 0x224 JUMP JUMPDEST DUP3 DUP1 REVERT JUMPDEST PUSH1 0x40 MLOAD RETURNDATASIZE DUP5 DUP3 RETURNDATACOPY RETURNDATASIZE SWAP1 REVERT JUMPDEST POP DUP1 REVERT JUMPDEST ADD MLOAD SWAP1 POP CODESIZE DUP1 PUSH2 0x1C9 JUMP JUMPDEST SWAP1 PUSH1 0x1 DUP5 ADD DUP7 MSTORE PUSH1 0x20 DUP7 KECCAK256 SWAP2 DUP7 JUMPDEST PUSH1 0x1F NOT DUP6 AND DUP2 LT PUSH2 0x33F JUMPI POP SWAP1 DUP4 SWAP3 SWAP2 PUSH1 0x1 SWAP5 PUSH1 0x1F NOT DUP2 AND LT PUSH2 0x326 JUMPI JUMPDEST POP POP POP DUP2 SHL ADD PUSH1 0x1 DUP3 ADD SSTORE PUSH2 0x1E1 JUMP JUMPDEST ADD MLOAD PUSH1 0x0 NOT PUSH1 0xF8 DUP5 PUSH1 0x3 SHL AND SHR NOT AND SWAP1 SSTORE CODESIZE DUP1 DUP1 PUSH2 0x316 JUMP JUMPDEST DUP2 DUP4 ADD MLOAD DUP5 SSTORE DUP11 SWAP8 POP PUSH1 0x1 SWAP1 SWAP4 ADD SWAP3 PUSH1 0x20 SWAP3 DUP4 ADD SWAP3 ADD PUSH2 0x2F8 JUMP JUMPDEST SWAP1 SWAP2 SWAP3 SWAP4 SWAP5 POP PUSH1 0x1 DUP5 ADD DUP9 MSTORE PUSH1 0x20 DUP9 KECCAK256 PUSH1 0x1F DUP5 ADD PUSH1 0x5 SHR DUP2 ADD PUSH1 0x20 DUP6 LT PUSH2 0x3A8 JUMPI JUMPDEST SWAP1 DUP10 SWAP7 SWAP6 SWAP5 SWAP4 SWAP3 SWAP2 JUMPDEST PUSH1 0x1F DUP4 ADD PUSH1 0x5 SHR DUP3 ADD DUP2 LT PUSH2 0x39B JUMPI POP POP PUSH2 0x1B1 JUMP JUMPDEST SWAP7 DUP8 SSTORE DUP10 SWAP7 PUSH1 0x1 ADD PUSH2 0x385 JUMP JUMPDEST POP DUP1 PUSH2 0x37C JUMP JUMPDEST PUSH4 0x4E487B71 PUSH1 0xE0 SHL DUP8 MSTORE PUSH1 0x41 PUSH1 0x4 MSTORE PUSH1 0x24 DUP8 REVERT JUMPDEST DUP6 DUP1 REVERT JUMPDEST PUSH4 0x4E487B71 PUSH1 0xE0 SHL DUP6 MSTORE PUSH1 0x41 PUSH1 0x4 MSTORE PUSH1 0x24 DUP6 REVERT JUMPDEST PUSH1 0x40 MLOAD PUSH3 0x461BCD PUSH1 0xE5 SHL DUP2 MSTORE PUSH1 0x20 PUSH1 0x4 DUP3 ADD MSTORE PUSH1 0x18 PUSH1 0x24 DUP3 ADD MSTORE PUSH32 0x526573756C7420616C7265616479207375626D69747465640000000000000000 PUSH1 0x44 DUP3 ADD MSTORE PUSH1 0x64 SWAP1 REVERT JUMPDEST PUSH1 0x40 MLOAD PUSH3 0x461BCD PUSH1 0xE5 SHL DUP2 MSTORE PUSH1 0x20 PUSH1 0x4 DUP3 ADD MSTORE PUSH1 0x15 PUSH1 0x24 DUP3 ADD MSTORE PUSH21 0x14DBDB1D5D1A5BDB88155492481C995C5D5A5C9959 PUSH1 0x5A SHL PUSH1 0x44 DUP3 ADD MSTORE PUSH1 0x64 SWAP1 REVERT JUMPDEST DUP1 REVERT JUMPDEST POP CALLVALUE PUSH2 0x45D JUMPI PUSH1 0x20 CALLDATASIZE PUSH1 0x3 NOT ADD SLT PUSH2 0x45D JUMPI PUSH2 0x47A PUSH2 0xA6B JUMP JUMPDEST PUSH1 0x3 SLOAD PUSH1 0x1 PUSH1 0x1 PUSH1 0xA0 SHL SUB SWAP2 SWAP1 PUSH2 0x494 SWAP1 DUP4 AND CALLER EQ PUSH2 0xC3B JUMP JUMPDEST AND PUSH12 0xFFFFFFFFFFFFFFFFFFFFFFFF PUSH1 0xA0 SHL PUSH1 0x4 SLOAD AND OR PUSH1 0x4 SSTORE DUP1 RETURN JUMPDEST POP CALLVALUE PUSH2 0x45D JUMPI PUSH1 0x20 CALLDATASIZE PUSH1 0x3 NOT ADD SLT PUSH2 0x45D JUMPI PUSH1 0xFF PUSH1 0x40 PUSH1 0x20 SWAP3 PUSH1 0x4 CALLDATALOAD DUP2 MSTORE PUSH1 0x2 DUP5 MSTORE KECCAK256 SLOAD AND PUSH1 0x40 MLOAD SWAP1 ISZERO ISZERO DUP2 MSTORE RETURN JUMPDEST POP CALLVALUE PUSH2 0x45D JUMPI DUP1 PUSH1 0x3 NOT CALLDATASIZE ADD SLT PUSH2 0x45D JUMPI PUSH1 0x4 SLOAD PUSH1 0x40 MLOAD PUSH1 0x1 PUSH1 0x1 PUSH1 0xA0 SHL SUB SWAP1 SWAP2 AND DUP2 MSTORE PUSH1 0x20 SWAP1 RETURN JUMPDEST POP CALLVALUE PUSH2 0x45D JUMPI PUSH1 0x20 SWAP1 DUP2 PUSH1 0x3 NOT CALLDATASIZE ADD SLT PUSH2 0x45D JUMPI DUP1 PUSH1 0x40 SWAP2 PUSH1 0x80 DUP4 MLOAD PUSH2 0x52D DUP2 PUSH2 0xB18 JUMP JUMPDEST DUP3 DUP2 MSTORE PUSH1 0x60 DUP7 DUP3 ADD MSTORE DUP3 DUP6 DUP3 ADD MSTORE DUP3 PUSH1 0x60 DUP3 ADD MSTORE ADD MSTORE PUSH1 0x4 CALLDATALOAD DUP2 MSTORE PUSH1 0x1 DUP4 MSTORE KECCAK256 PUSH1 0x40 MLOAD SWAP1 PUSH2 0x55A DUP3 PUSH2 0xB18 JUMP JUMPDEST DUP1 SLOAD DUP3 MSTORE PUSH2 0x56A PUSH1 0x1 DUP3 ADD PUSH2 0xB56 JUMP JUMPDEST DUP4 DUP4 ADD SWAP1 DUP2 MSTORE PUSH1 0x2 DUP3 ADD SLOAD SWAP2 PUSH1 0x40 DUP5 ADD SWAP3 DUP4 MSTORE PUSH1 0x1 DUP1 PUSH1 0xA0 SHL SUB SWAP1 PUSH2 0x5C3 PUSH1 0x4 DUP4 PUSH1 0x3 DUP5 ADD SLOAD AND SWAP3 PUSH1 0x60 DUP9 ADD SWAP4 DUP5 MSTORE ADD SLOAD SWAP4 PUSH1 0x80 DUP8 ADD SWAP5 DUP6 MSTORE PUSH1 0x40 MLOAD SWAP8 DUP9 SWAP8 DUP2 DUP10 MSTORE MLOAD SWAP1 DUP9 ADD MSTORE MLOAD PUSH1 0xA0 PUSH1 0x40 DUP9 ADD MSTORE PUSH1 0xC0 DUP8 ADD SWAP1 PUSH2 0xBFB JUMP JUMPDEST SWAP4 MLOAD PUSH1 0x60 DUP7 ADD MSTORE MLOAD AND PUSH1 0x80 DUP5 ADD MSTORE MLOAD PUSH1 0xA0 DUP4 ADD MSTORE SUB SWAP1 RETURN JUMPDEST POP CALLVALUE PUSH2 0x45D JUMPI DUP1 PUSH1 0x3 NOT CALLDATASIZE ADD SLT PUSH2 0x45D JUMPI PUSH1 0x5 SLOAD PUSH1 0x40 MLOAD PUSH1 0x1 PUSH1 0x1 PUSH1 0xA0 SHL SUB SWAP1 SWAP2 AND DUP2 MSTORE PUSH1 0x20 SWAP1 RETURN JUMPDEST POP CALLVALUE PUSH2 0x45D JUMPI DUP1 PUSH1 0x3 NOT CALLDATASIZE ADD SLT PUSH2 0x45D JUMPI PUSH1 0x3 SLOAD PUSH1 0x40 MLOAD PUSH1 0x1 PUSH1 0x1 PUSH1 0xA0 SHL SUB SWAP1 SWAP2 AND DUP2 MSTORE PUSH1 0x20 SWAP1 RETURN JUMPDEST POP CALLVALUE PUSH2 0x45D JUMPI PUSH1 0x20 CALLDATASIZE PUSH1 0x3 NOT ADD SLT PUSH2 0x45D JUMPI PUSH1 0x20 SWAP1 PUSH1 0xFF SWAP1 PUSH1 0x40 SWAP1 PUSH1 0x1 PUSH1 0x1 PUSH1 0xA0 SHL SUB PUSH2 0x658 PUSH2 0xA6B JUMP JUMPDEST AND DUP2 MSTORE DUP1 DUP5 MSTORE KECCAK256 SLOAD AND PUSH1 0x40 MLOAD SWAP1 ISZERO ISZERO DUP2 MSTORE RETURN JUMPDEST POP CALLVALUE PUSH2 0x45D JUMPI PUSH1 0x20 CALLDATASIZE PUSH1 0x3 NOT ADD SLT PUSH2 0x45D JUMPI PUSH1 0x40 SWAP1 PUSH1 0x4 CALLDATALOAD DUP2 MSTORE PUSH1 0x1 PUSH1 0x20 MSTORE KECCAK256 DUP1 SLOAD PUSH2 0x699 PUSH1 0x1 DUP4 ADD PUSH2 0xB56 JUMP JUMPDEST SWAP2 PUSH1 0x2 DUP2 ADD SLOAD SWAP1 PUSH1 0x4 PUSH1 0x1 DUP1 PUSH1 0xA0 SHL SUB PUSH1 0x3 DUP4 ADD SLOAD AND SWAP2 ADD SLOAD SWAP1 PUSH2 0x6CF PUSH1 0x40 MLOAD SWAP6 DUP7 SWAP6 DUP7 MSTORE PUSH1 0xA0 PUSH1 0x20 DUP8 ADD MSTORE PUSH1 0xA0 DUP7 ADD SWAP1 PUSH2 0xBFB JUMP JUMPDEST SWAP3 PUSH1 0x40 DUP6 ADD MSTORE PUSH1 0x60 DUP5 ADD MSTORE PUSH1 0x80 DUP4 ADD MSTORE SUB SWAP1 RETURN JUMPDEST POP CALLVALUE PUSH2 0x45D JUMPI PUSH1 0x80 CALLDATASIZE PUSH1 0x3 NOT ADD SLT PUSH2 0x45D JUMPI PUSH1 0x4 CALLDATALOAD PUSH1 0x44 PUSH1 0x24 PUSH1 0x64 CALLDATALOAD PUSH8 0xFFFFFFFFFFFFFFFF DUP2 GT PUSH2 0x991 JUMPI PUSH2 0x71C SWAP1 CALLDATASIZE SWAP1 PUSH1 0x4 ADD PUSH2 0xA86 JUMP JUMPDEST SWAP3 SWAP1 SWAP3 CALLER DUP7 MSTORE PUSH1 0x20 SWAP3 DUP7 DUP5 MSTORE PUSH2 0x738 PUSH1 0xFF PUSH1 0x40 DUP10 KECCAK256 SLOAD AND PUSH2 0xC7C JUMP JUMPDEST DUP6 DUP8 MSTORE PUSH1 0x2 DUP5 MSTORE PUSH1 0xFF PUSH1 0x40 DUP9 KECCAK256 SLOAD AND PUSH2 0x95C JUMPI DUP6 DUP8 MSTORE PUSH1 0x1 DUP5 MSTORE PUSH1 0x4 PUSH1 0x40 DUP9 KECCAK256 ADD SLOAD ISZERO PUSH2 0x924 JUMPI DUP2 ISZERO PUSH2 0x8EA JUMPI DUP7 SWAP1 DUP7 DUP3 MSTORE PUSH1 0x2 DUP6 MSTORE PUSH1 0x40 DUP3 KECCAK256 PUSH1 0x1 PUSH1 0xFF NOT DUP3 SLOAD AND OR SWAP1 SSTORE PUSH1 0x1 DUP6 MSTORE DUP4 CALLDATALOAD PUSH1 0x2 PUSH1 0x40 DUP5 KECCAK256 ADD SLOAD LT ISZERO SWAP4 PUSH1 0x1 DUP1 PUSH1 0xA0 SHL SUB DUP1 PUSH1 0x4 SLOAD AND DUP1 PUSH2 0x86F JUMPI JUMPDEST POP PUSH1 0x5 SLOAD AND SWAP2 DUP3 PUSH2 0x806 JUMPI JUMPDEST POP POP POP SWAP4 PUSH2 0x800 SWAP2 DUP7 PUSH32 0x4C6DC80F49C457D035753735461EB2B016AF504977EC73CE82847341FAC056B7 SWAP7 MSTORE PUSH1 0x1 DUP6 MSTORE PUSH1 0x2 PUSH1 0x40 DUP10 KECCAK256 ADD SLOAD PUSH1 0x40 MLOAD SWAP6 DUP7 SWAP6 DUP7 MSTORE DUP6 ADD MSTORE PUSH1 0x60 PUSH1 0x40 DUP6 ADD MSTORE PUSH1 0x60 DUP5 ADD SWAP2 PUSH2 0xCBE JUMP JUMPDEST SUB SWAP1 LOG2 DUP1 RETURN JUMPDEST DUP3 EXTCODESIZE ISZERO PUSH2 0x86B JUMPI DUP6 SWAP3 PUSH1 0x60 DUP6 SWAP4 PUSH1 0x40 MLOAD SWAP6 DUP7 SWAP5 PUSH4 0xE59965D5 PUSH1 0xE0 SHL DUP7 MSTORE DUP14 PUSH1 0x4 DUP8 ADD MSTORE DUP6 ADD MSTORE DUP4 ADD MSTORE DUP2 DUP4 DUP2 PUSH2 0x841 DUP13 DUP11 PUSH1 0x64 DUP5 ADD SWAP2 PUSH2 0xCBE JUMP JUMPDEST SUB SWAP3 GAS CALL DUP1 ISZERO PUSH2 0x2D0 JUMPI PUSH2 0x857 JUMPI JUMPDEST DUP1 DUP1 PUSH2 0x7AC JUMP JUMPDEST PUSH2 0x860 SWAP1 PUSH2 0xAEE JUMP JUMPDEST PUSH2 0x3C3 JUMPI DUP6 CODESIZE PUSH2 0x850 JUMP JUMPDEST DUP4 DUP1 REVERT JUMPDEST DUP5 SWAP2 SWAP3 SWAP4 SWAP5 POP DUP7 PUSH1 0x0 EQ PUSH2 0x8E1 JUMPI PUSH1 0xA SWAP1 JUMPDEST DUP1 EXTCODESIZE ISZERO PUSH2 0x2CC JUMPI DUP5 DUP4 SWAP3 PUSH1 0x40 MLOAD SWAP5 DUP6 SWAP4 DUP5 SWAP3 PUSH4 0xCF833061 PUSH1 0xE0 SHL DUP5 MSTORE DUP11 CALLDATALOAD PUSH1 0x4 DUP6 ADD MSTORE DUP11 DUP5 ADD MSTORE GAS CALL DUP1 ISZERO PUSH2 0x8D6 JUMPI PUSH2 0x8BF JUMPI JUMPDEST SWAP1 DUP10 SWAP4 SWAP3 SWAP2 PUSH2 0x7A0 JUMP JUMPDEST PUSH2 0x8CD SWAP1 SWAP10 SWAP2 SWAP4 SWAP3 SWAP10 PUSH2 0xAEE JUMP JUMPDEST SWAP8 SWAP1 SWAP2 CODESIZE PUSH2 0x8B5 JUMP JUMPDEST PUSH1 0x40 MLOAD RETURNDATASIZE DUP13 DUP3 RETURNDATACOPY RETURNDATASIZE SWAP1 REVERT JUMPDEST PUSH1 0x4 NOT SWAP1 PUSH2 0x881 JUMP JUMPDEST DUP4 PUSH21 0x115D9A59195B98D948155492481C995C5D5A5C9959 PUSH1 0x5A SHL DUP5 PUSH1 0x15 PUSH1 0x64 SWAP5 PUSH1 0x40 MLOAD SWAP5 PUSH3 0x461BCD PUSH1 0xE5 SHL DUP7 MSTORE PUSH1 0x4 DUP7 ADD MSTORE DUP5 ADD MSTORE DUP3 ADD MSTORE REVERT JUMPDEST DUP4 PUSH19 0x139BC81C995CDD5B1D081CDD589B5A5D1D1959 PUSH1 0x6A SHL DUP5 PUSH1 0x13 PUSH1 0x64 SWAP5 PUSH1 0x40 MLOAD SWAP5 PUSH3 0x461BCD PUSH1 0xE5 SHL DUP7 MSTORE PUSH1 0x4 DUP7 ADD MSTORE DUP5 ADD MSTORE DUP3 ADD MSTORE REVERT JUMPDEST DUP4 PUSH16 0x105B1C9958591E481D995C9A599A5959 PUSH1 0x82 SHL DUP5 PUSH1 0x10 PUSH1 0x64 SWAP5 PUSH1 0x40 MLOAD SWAP5 PUSH3 0x461BCD PUSH1 0xE5 SHL DUP7 MSTORE PUSH1 0x4 DUP7 ADD MSTORE DUP5 ADD MSTORE DUP3 ADD MSTORE REVERT JUMPDEST DUP5 DUP1 REVERT JUMPDEST POP CALLVALUE PUSH2 0x45D JUMPI PUSH1 0x40 CALLDATASIZE PUSH1 0x3 NOT ADD SLT PUSH2 0x45D JUMPI PUSH2 0x9AF PUSH2 0xA6B JUMP JUMPDEST PUSH1 0x24 CALLDATALOAD SWAP1 DUP2 ISZERO ISZERO DUP1 SWAP3 SUB PUSH2 0x2CC JUMPI PUSH1 0x20 PUSH32 0x133BD293B8CA6FA1205D5BCB378F4C713567AE5FFEC78C38D98AC59FE9C258BB SWAP2 PUSH1 0x1 DUP1 PUSH1 0xA0 SHL SUB SWAP1 PUSH2 0x9F8 DUP3 PUSH1 0x3 SLOAD AND CALLER EQ PUSH2 0xC3B JUMP JUMPDEST AND SWAP3 DUP4 DUP6 MSTORE DUP5 DUP3 MSTORE PUSH1 0x40 DUP6 KECCAK256 PUSH1 0xFF NOT DUP2 SLOAD AND PUSH1 0xFF DUP4 AND OR SWAP1 SSTORE PUSH1 0x40 MLOAD SWAP1 DUP2 MSTORE LOG2 DUP1 RETURN JUMPDEST POP CALLVALUE PUSH2 0x45D JUMPI PUSH1 0x20 CALLDATASIZE PUSH1 0x3 NOT ADD SLT PUSH2 0x45D JUMPI PUSH2 0xA35 PUSH2 0xA6B JUMP JUMPDEST PUSH1 0x3 SLOAD PUSH1 0x1 PUSH1 0x1 PUSH1 0xA0 SHL SUB SWAP2 SWAP1 PUSH2 0xA4F SWAP1 DUP4 AND CALLER EQ PUSH2 0xC3B JUMP JUMPDEST AND PUSH12 0xFFFFFFFFFFFFFFFFFFFFFFFF PUSH1 0xA0 SHL PUSH1 0x5 SLOAD AND OR PUSH1 0x5 SSTORE DUP1 RETURN JUMPDEST PUSH1 0x4 CALLDATALOAD SWAP1 PUSH1 0x1 PUSH1 0x1 PUSH1 0xA0 SHL SUB DUP3 AND DUP3 SUB PUSH2 0xA81 JUMPI JUMP JUMPDEST PUSH1 0x0 DUP1 REVERT JUMPDEST SWAP2 DUP2 PUSH1 0x1F DUP5 ADD SLT ISZERO PUSH2 0xA81 JUMPI DUP3 CALLDATALOAD SWAP2 PUSH8 0xFFFFFFFFFFFFFFFF DUP4 GT PUSH2 0xA81 JUMPI PUSH1 0x20 DUP4 DUP2 DUP7 ADD SWAP6 ADD ADD GT PUSH2 0xA81 JUMPI JUMP JUMPDEST SWAP1 PUSH1 0x1 DUP3 DUP2 SHR SWAP3 AND DUP1 ISZERO PUSH2 0xAE4 JUMPI JUMPDEST PUSH1 0x20 DUP4 LT EQ PUSH2 0xACE JUMPI JUMP JUMPDEST PUSH4 0x4E487B71 PUSH1 0xE0 SHL PUSH1 0x0 MSTORE PUSH1 0x22 PUSH1 0x4 MSTORE PUSH1 0x24 PUSH1 0x0 REVERT JUMPDEST SWAP2 PUSH1 0x7F AND SWAP2 PUSH2 0xAC3 JUMP JUMPDEST PUSH8 0xFFFFFFFFFFFFFFFF DUP2 GT PUSH2 0xB02 JUMPI PUSH1 0x40 MSTORE JUMP JUMPDEST PUSH4 0x4E487B71 PUSH1 0xE0 SHL PUSH1 0x0 MSTORE PUSH1 0x41 PUSH1 0x4 MSTORE PUSH1 0x24 PUSH1 0x0 REVERT JUMPDEST PUSH1 0xA0 DUP2 ADD SWAP1 DUP2 LT PUSH8 0xFFFFFFFFFFFFFFFF DUP3 GT OR PUSH2 0xB02 JUMPI PUSH1 0x40 MSTORE JUMP JUMPDEST SWAP1 PUSH1 0x1F DUP1 NOT SWAP2 ADD AND DUP2 ADD SWAP1 DUP2 LT PUSH8 0xFFFFFFFFFFFFFFFF DUP3 GT OR PUSH2 0xB02 JUMPI PUSH1 0x40 MSTORE JUMP JUMPDEST SWAP1 PUSH1 0x40 MLOAD SWAP2 DUP3 PUSH1 0x0 DUP3 SLOAD PUSH2 0xB69 DUP2 PUSH2 0xAB4 JUMP JUMPDEST SWAP1 DUP2 DUP5 MSTORE PUSH1 0x20 SWAP5 PUSH1 0x1 SWAP2 PUSH1 0x1 DUP2 AND SWAP1 DUP2 PUSH1 0x0 EQ PUSH2 0xBD9 JUMPI POP PUSH1 0x1 EQ PUSH2 0xB9A JUMPI JUMPDEST POP POP POP PUSH2 0xB98 SWAP3 POP SUB DUP4 PUSH2 0xB34 JUMP JUMPDEST JUMP JUMPDEST PUSH1 0x0 SWAP1 DUP2 MSTORE DUP6 DUP2 KECCAK256 SWAP6 SWAP4 POP SWAP2 SWAP1 JUMPDEST DUP2 DUP4 LT PUSH2 0xBC1 JUMPI POP POP PUSH2 0xB98 SWAP4 POP DUP3 ADD ADD CODESIZE DUP1 DUP1 PUSH2 0xB89 JUMP JUMPDEST DUP6 SLOAD DUP9 DUP5 ADD DUP6 ADD MSTORE SWAP5 DUP6 ADD SWAP5 DUP8 SWAP5 POP SWAP2 DUP4 ADD SWAP2 PUSH2 0xBA8 JUMP JUMPDEST SWAP3 POP POP POP PUSH2 0xB98 SWAP5 SWAP3 POP PUSH1 0xFF NOT AND DUP3 DUP5 ADD MSTORE ISZERO ISZERO PUSH1 0x5 SHL DUP3 ADD ADD CODESIZE DUP1 DUP1 PUSH2 0xB89 JUMP JUMPDEST SWAP2 SWAP1 DUP3 MLOAD SWAP3 DUP4 DUP3 MSTORE PUSH1 0x0 JUMPDEST DUP5 DUP2 LT PUSH2 0xC27 JUMPI POP POP DUP3 PUSH1 0x0 PUSH1 0x20 DUP1 SWAP5 SWAP6 DUP5 ADD ADD MSTORE PUSH1 0x1F DUP1 NOT SWAP2 ADD AND ADD ADD SWAP1 JUMP JUMPDEST PUSH1 0x20 DUP2 DUP4 ADD DUP2 ADD MLOAD DUP5 DUP4 ADD DUP3 ADD MSTORE ADD PUSH2 0xC06 JUMP JUMPDEST ISZERO PUSH2 0xC42 JUMPI JUMP JUMPDEST PUSH1 0x40 MLOAD PUSH3 0x461BCD PUSH1 0xE5 SHL DUP2 MSTORE PUSH1 0x20 PUSH1 0x4 DUP3 ADD MSTORE PUSH1 0x12 PUSH1 0x24 DUP3 ADD MSTORE PUSH18 0x2737BA1031B7B73A3930B1BA1037BBB732B9 PUSH1 0x71 SHL PUSH1 0x44 DUP3 ADD MSTORE PUSH1 0x64 SWAP1 REVERT JUMPDEST ISZERO PUSH2 0xC83 JUMPI JUMP JUMPDEST PUSH1 0x40 MLOAD PUSH3 0x461BCD PUSH1 0xE5 SHL DUP2 MSTORE PUSH1 0x20 PUSH1 0x4 DUP3 ADD MSTORE PUSH1 0x13 PUSH1 0x24 DUP3 ADD MSTORE PUSH19 0x4E6F7420617574686F72697A6564206E6F6465 PUSH1 0x68 SHL PUSH1 0x44 DUP3 ADD MSTORE PUSH1 0x64 SWAP1 REVERT JUMPDEST SWAP1 DUP1 PUSH1 0x20 SWAP4 SWAP3 DUP2 DUP5 MSTORE DUP5 DUP5 ADD CALLDATACOPY PUSH1 0x0 DUP3 DUP3 ADD DUP5 ADD MSTORE PUSH1 0x1F ADD PUSH1 0x1F NOT AND ADD ADD SWAP1 JUMP INVALID LOG2 PUSH5 0x6970667358 0x22 SLT KECCAK256 0xCA 0x2E 0xAF MUL 0xE9 0x2C 0x27 PUSH14 0x74F0357B0DEB5DC4DD43982E9861 EXTCODESIZE 0xF9 PUSH13 0x3DFCCF5451A7DD64736F6C6343 STOP ADDMOD XOR STOP CALLER "},"methodIdentifiers":{"authorizedNodes(address)":"7e53a740","getResult(bytes32)":"add4c784","isVerified(bytes32)":"c181b273","owner()":"8da5cb5b","results(bytes32)":"4c6b25b1","robotRegistryAddress()":"bc70c574","setNode(address,bool)":"41addb7b","setRobotRegistry(address)":"d95f14d0","setTaskMarket(address)":"208e4892","submitResult(bytes32,string,uint256)":"dc1ca1b1","taskMarketAddress()":"a4bf7cf6","verified(bytes32)":"c59e43e5","verifyTask(bytes32,bytes32,uint256,string)":"43c1d6a9"}}}}}