{"contracts/EthicalDAO.sol":{"EthicalDAO":{"abi":[{"inputs":[],"stateMutability":"nonpayable","type":"constructor"},{"anonymous":false,"inputs":[{"indexed":true,"internalType":"uint256","name":"proposalId","type":"uint256"},{"indexed":true,"internalType":"address","name":"proposer","type":"address"},{"indexed":false,"internalType":"string","name":"title","type":"string"}],"name":"ProposalCreated","type":"event"},{"anonymous":false,"inputs":[{"indexed":true,"internalType":"uint256","name":"proposalId","type":"uint256"},{"indexed":false,"internalType":"bool","name":"passed","type":"bool"}],"name":"ProposalExecuted","type":"event"},{"anonymous":false,"inputs":[{"indexed":true,"internalType":"uint256","name":"proposalId","type":"uint256"},{"indexed":true,"internalType":"address","name":"voter","type":"address"},{"indexed":false,"internalType":"bool","name":"support","type":"bool"},{"indexed":false,"internalType":"uint256","name":"weight","type":"uint256"}],"name":"Voted","type":"event"},{"inputs":[{"internalType":"uint256","name":"proposalId","type":"uint256"}],"name":"canExecute","outputs":[{"internalType":"bool","name":"","type":"bool"}],"stateMutability":"view","type":"function"},{"inputs":[{"internalType":"uint256","name":"proposalId","type":"uint256"}],"name":"execute","outputs":[],"stateMutability":"nonpayable","type":"function"},{"inputs":[{"internalType":"uint256","name":"proposalId","type":"uint256"}],"name":"getProposal","outputs":[{"components":[{"internalType":"uint256","name":"id","type":"uint256"},{"internalType":"address","name":"proposer","type":"address"},{"internalType":"string","name":"title","type":"string"},{"internalType":"string","name":"description","type":"string"},{"internalType":"bytes","name":"callData","type":"bytes"},{"internalType":"address","name":"target","type":"address"},{"internalType":"uint256","name":"yesVotes","type":"uint256"},{"internalType":"uint256","name":"noVotes","type":"uint256"},{"internalType":"uint256","name":"createdAt","type":"uint256"},{"internalType":"uint256","name":"votingEnds","type":"uint256"},{"internalType":"bool","name":"executed","type":"bool"},{"internalType":"bool","name":"passed","type":"bool"}],"internalType":"struct EthicalDAO.Proposal","name":"","type":"tuple"}],"stateMutability":"view","type":"function"},{"inputs":[{"internalType":"uint256","name":"proposalId","type":"uint256"}],"name":"getTotalVotes","outputs":[{"internalType":"uint256","name":"","type":"uint256"}],"stateMutability":"view","type":"function"},{"inputs":[{"internalType":"uint256","name":"proposalId","type":"uint256"},{"internalType":"address","name":"voter","type":"address"}],"name":"getVote","outputs":[{"components":[{"internalType":"bool","name":"voted","type":"bool"},{"internalType":"bool","name":"support","type":"bool"},{"internalType":"uint256","name":"weight","type":"uint256"}],"internalType":"struct EthicalDAO.Vote","name":"","type":"tuple"}],"stateMutability":"view","type":"function"},{"inputs":[],"name":"minProposalWeight","outputs":[{"internalType":"uint256","name":"","type":"uint256"}],"stateMutability":"view","type":"function"},{"inputs":[],"name":"owner","outputs":[{"internalType":"address","name":"","type":"address"}],"stateMutability":"view","type":"function"},{"inputs":[],"name":"proposalCount","outputs":[{"internalType":"uint256","name":"","type":"uint256"}],"stateMutability":"view","type":"function"},{"inputs":[{"internalType":"uint256","name":"","type":"uint256"}],"name":"proposals","outputs":[{"internalType":"uint256","name":"id","type":"uint256"},{"internalType":"address","name":"proposer","type":"address"},{"internalType":"string","name":"title","type":"string"},{"internalType":"string","name":"description","type":"string"},{"internalType":"bytes","name":"callData","type":"bytes"},{"internalType":"address","name":"target","type":"address"},{"internalType":"uint256","name":"yesVotes","type":"uint256"},{"internalType":"uint256","name":"noVotes","type":"uint256"},{"internalType":"uint256","name":"createdAt","type":"uint256"},{"internalType":"uint256","name":"votingEnds","type":"uint256"},{"internalType":"bool","name":"executed","type":"bool"},{"internalType":"bool","name":"passed","type":"bool"}],"stateMutability":"view","type":"function"},{"inputs":[{"internalType":"string","name":"title","type":"string"},{"internalType":"string","name":"description","type":"string"},{"internalType":"address","name":"target","type":"address"},{"internalType":"bytes","name":"callData","type":"bytes"}],"name":"propose","outputs":[{"internalType":"uint256","name":"","type":"uint256"}],"stateMutability":"nonpayable","type":"function"},{"inputs":[],"name":"robotRegistryAddress","outputs":[{"internalType":"address","name":"","type":"address"}],"stateMutability":"view","type":"function"},{"inputs":[{"internalType":"address","name":"_registry","type":"address"}],"name":"setRobotRegistry","outputs":[],"stateMutability":"nonpayable","type":"function"},{"inputs":[{"internalType":"uint256","name":"_votingPeriod","type":"uint256"}],"name":"setVotingPeriod","outputs":[],"stateMutability":"nonpayable","type":"function"},{"inputs":[{"internalType":"uint256","name":"proposalId","type":"uint256"},{"internalType":"bool","name":"support","type":"bool"}],"name":"vote","outputs":[],"stateMutability":"nonpayable","type":"function"},{"inputs":[{"internalType":"uint256","name":"","type":"uint256"},{"internalType":"address","name":"","type":"address"}],"name":"votes","outputs":[{"internalType":"bool","name":"voted","type":"bool"},{"internalType":"bool","name":"support","type":"bool"},{"internalType":"uint256","name":"weight","type":"uint256"}],"stateMutability":"view","type":"function"},{"inputs":[],"name":"votingPeriod","outputs":[{"internalType":"uint256","name":"","type":"uint256"}],"stateMutability":"view","type":"function"}],"evm":{"bytecode":{"linkReferences":{},"object":"60808060405234610034576203f4806003556001600455600580546001600160a01b031916331790556114c4908161003a8239f35b600080fdfe608080604052600436101561001357600080fd5b60003560e01c908163013cf08b146110405750806302a251a3146110225780632ce35e1114610fd75780638da5cb5b14610fae578063bc3f931f14610f0d578063bc70c57414610ee4578063c7f758a814610cc9578063c9d27afe14610af4578063cc63604a146109d9578063d23254b414610974578063d95f14d014610926578063da35c66414610908578063de7b163814610346578063e3415cc714610328578063ea0217cf146102fa5763fe0d94c1146100cf57600080fd5b346102f5576020806003193601126102f557600435906100f2600254831061130c565b81600052600081526040600020600981015442106102ba57600a810190815461011e60ff821615611365565b60ff19808216600190811785556006840154600785015461ffff19909416931060081b61ff0016929092178217845560ff845460081c16806102a4575b610196575b857f948f4a9cd986f1118c3fbd459f7a22b23c0693e1ca3ef06a6a8be5aa7d39cc038660ff875460081c166040519015158152a2005b600460018060a01b036005850154169301906040519260009280546101ba8161115d565b936001821691821561028d575050600114610252575b50505091816000809493819403925af13d1561024d573d6101f0816113e5565b906101fe6040519283611266565b81526000843d92013e5b1561021557388080610160565b60405162461bcd60e51b815260048101839052601060248201526f115e1958dd5d1a5bdb8819985a5b195960821b6044820152606490fd5b610208565b909192506000528560002090866000925b84841061027b575050509082019050816000806101d0565b80548685015292019187908201610263565b1686525050508015150282019050816000806101d0565b5060058301546001600160a01b0316151561015b565b60405162461bcd60e51b8152600481018390526013602482015272566f74696e67207374696c6c2061637469766560681b6044820152606490fd5b600080fd5b346102f55760203660031901126102f55761032060018060a01b036005541633146113a4565b600435600355005b346102f55760003660031901126102f5576020600454604051908152f35b346102f55760803660031901126102f55760043567ffffffffffffffff81116102f5576103779036906004016112de565b60243567ffffffffffffffff81116102f5576103979036906004016112de565b60443592916001600160a01b03841684036102f55760643567ffffffffffffffff81116102f5576103cc9036906004016112de565b84959195156108d2578315610896576002549560001987146108805761043c916001880160025561043061040260035442611358565b956040519761041089611249565b8a89523360208a0152610424368b8e611401565b60408a01523691611401565b60608701523691611401565b608084015260018060a01b031660a0830152600060c0830152600060e08301524261010083015261012082015260006101408201526000610160820152826000526000602052604060002093815185556001850160018060a01b036020840151166001600160601b0360a01b825416179055604082015180519067ffffffffffffffff821161077b576104df826104d660028a015461115d565b60028a01611438565b602090601f831160011461080e57610510929160009183610791575b50508160011b916000199060031b1c19161790565b60028601555b606082015180519067ffffffffffffffff821161077b576105478261053e60038a015461115d565b60038a01611438565b602090601f831160011461079c576105779291600091836107915750508160011b916000199060031b1c19161790565b60038601555b60808201519182519567ffffffffffffffff871161077b578686946105b46020996105ab600486015461115d565b60048601611438565b8890601f83116001146106d95761069993610610847f7585f467599d0f008985f231af99293be388626ac16ca59505c2f8f88969cd6398979561016095600a956000926106ce5750508160011b916000199060031b1c19161790565b60048201555b6005810160018060a01b0360a0860151166001600160601b0360a01b82541617905560c0840151600682015560e084015160078201556101008401516008820155610120840151600982015501916106816101408201511515849060ff801983541691151516179055565b0151815461ff00191690151560081b61ff0016179055565b8360405191878352818884015260408301376000604085830101526040813395601f80199101168101030190a3604051908152f35b015190508e806104fb565b95949392919060048301600052896000209660005b601f19841681106107615750926001837f7585f467599d0f008985f231af99293be388626ac16ca59505c2f8f88969cd639899600a94610699989761016097601f19811610610748575b505050811b016004820155610616565b015160001960f88460031b161c191690558d8080610738565b8282015189556001909801978a9750918b01918b016106ee565b634e487b7160e01b600052604160045260246000fd5b0151905088806104fb565b9190600388016000526020600020906000935b601f19841685106107f3576001945083601f198116106107da575b505050811b01600386015561057d565b015160001960f88460031b161c191690558780806107ca565b818101518355602094850194600190930192909101906107af565b9190600288016000526020600020906000935b601f1984168510610865576001945083601f1981161061084c575b505050811b016002860155610516565b015160001960f88460031b161c1916905587808061083c565b81810151835560209485019460019093019290910190610821565b634e487b7160e01b600052601160045260246000fd5b60405162461bcd60e51b815260206004820152601460248201527311195cd8dc9a5c1d1a5bdb881c995c5d5a5c995960621b6044820152606490fd5b60405162461bcd60e51b815260206004820152600e60248201526d151a5d1b19481c995c5d5a5c995960921b6044820152606490fd5b346102f55760003660031901126102f5576020600254604051908152f35b346102f55760203660031901126102f5576004356001600160a01b03818116918290036102f55761095c906005541633146113a4565b6001600160601b0360a01b6006541617600655600080f35b346102f55760403660031901126102f55761098d6112c8565b600435600052600160205260406000209060018060a01b0316600052602052606060406000206001815491015460ff604051928181161515845260081c16151560208301526040820152f35b346102f55760203660031901126102f5576004356109fa600254821061130c565b60005260006020526020604060002060405190610a1682611249565b8054825260018101546001600160a01b0390811684840152604051610a4981610a428160028701611197565b0382611266565b6040840152604051610a6281610a428160038701611197565b6060840152604051610a7b81610a428160048701611197565b608084015260058201541660a0830152600681015460c0830152600781015460e08301526008810154610100830152600a6009820154918261012085015201549161016060ff8085161594851561014085015260081c1615159101524210159081610aec575b506040519015158152f35b905082610ae1565b346102f55760403660031901126102f55760043560243590811515918281036102f557610b24600254831061130c565b81600052602060008152600960406000200154421015610c96578260005260008152610b5b60ff600a604060002001541615611365565b82600052600191828252604060002033600052825260ff60406000205416610c6157604051610b898161122d565b83815283838201878152610be56040840191838352886000528387526040600020336000528752610bce604060002095511515869060ff801983541691151516179055565b51845461ff00191690151560081b61ff0016178455565b5191015515610c3e578260005260008152600660406000200180549083820180921161088057555b6040519384528301527f7c2de587c00d75474a0c6c6fa96fd3b45dc974cd4e8a75f712bb84c950dce1b560403393a3005b826000526000815260076040600020018054908382018092116108805755610c0d565b60405162461bcd60e51b815260048101839052600d60248201526c105b1c9958591e481d9bdd1959609a1b6044820152606490fd5b6064906040519062461bcd60e51b82526004820152600c60248201526b159bdd1a5b99c8195b99195960a21b6044820152fd5b346102f55760203660031901126102f5576004356000610160604051610cee81611249565b82815282602082015260606040820152606080820152606060808201528260a08201528260c08201528260e08201528261010082015282610120820152826101408201520152610d41600254821061130c565b6000526000602052604060002060ff600a60405192610d5f84611249565b8054845260018101546001600160a01b03166020850152604051610d8a81610a428160028601611197565b6040850152604051610da381610a428160038601611197565b6060850152604051610dbc81610a428160048601611197565b608085015260018060a01b0360058201541660a0850152600681015460c0850152600781015460e0850152600881015461010085015260098101546101208501520154818116151561014084015260081c1615156101608201526040518091602082528051602083015260018060a01b036020820151166040830152610160610e8a610e59604084015161018060608701526101a0860190611288565b610e75606085015191601f199283888303016080890152611288565b906080850151908683030160a0870152611288565b9160018060a01b0360a08201511660c085015260c081015160e085015260e0810151610100850152610100810151610120850152610120810151610140850152610140810151151582850152015115156101808301520390f35b346102f55760003660031901126102f5576006546040516001600160a01b039091168152602090f35b346102f55760403660031901126102f557610f266112c8565b600060408051610f358161122d565b8281528260208201520152600435600052600160205260406000209060018060a01b031660005260205260606040600020604051610f728161122d565b81546040600160ff831615159485855260ff602086019460081c1615158452015492019182526040519283525115156020830152516040820152f35b346102f55760003660031901126102f5576005546040516001600160a01b039091168152602090f35b346102f55760203660031901126102f557600435610ff8600254821061130c565b6000526000602052602061101a60406000206007600682015491015490611358565b604051908152f35b346102f55760003660031901126102f5576020600354604051908152f35b346102f55760203660031901126102f5576004356000526000602052604060002080549160ff60018060a01b0391826001850154169361108e826110878160028501611197565b0383611266565b6040516110a281610a428160038601611197565b604051946110be866110b78160048701611197565b0387611266565b60058301541694600683015461112660078501549261111860088701549561110a600a60098a0154990154996040519e8f9e8f9061018092825260208201528160408201520190611288565b8c810360608e015290611288565b908a820360808c0152611288565b9660a089015260c088015260e0870152610100860152610120850152818116151561014085015260081c1615156101608301520390f35b90600182811c9216801561118d575b602083101461117757565b634e487b7160e01b600052602260045260246000fd5b91607f169161116c565b8054600093926111a68261115d565b9182825260209360019160018116908160001461120e57506001146111cd575b5050505050565b90939495506000929192528360002092846000945b8386106111fa575050505001019038808080806111c6565b8054858701830152940193859082016111e2565b60ff19168685015250505090151560051b0101915038808080806111c6565b6060810190811067ffffffffffffffff82111761077b57604052565b610180810190811067ffffffffffffffff82111761077b57604052565b90601f8019910116810190811067ffffffffffffffff82111761077b57604052565b919082519283825260005b8481106112b4575050826000602080949584010152601f8019910116010190565b602081830181015184830182015201611293565b602435906001600160a01b03821682036102f557565b9181601f840112156102f55782359167ffffffffffffffff83116102f557602083818601950101116102f557565b1561131357565b60405162461bcd60e51b815260206004820152601760248201527f50726f706f73616c20646f6573206e6f742065786973740000000000000000006044820152606490fd5b9190820180921161088057565b1561136c57565b60405162461bcd60e51b815260206004820152601060248201526f105b1c9958591e48195e1958dd5d195960821b6044820152606490fd5b156113ab57565b60405162461bcd60e51b81526020600482015260126024820152712737ba1031b7b73a3930b1ba1037bbb732b960711b6044820152606490fd5b67ffffffffffffffff811161077b57601f01601f191660200190565b92919261140d826113e5565b9161141b6040519384611266565b8294818452818301116102f5578281602093846000960137010152565b90601f811161144657505050565b6000916000526020600020906020601f850160051c83019410611484575b601f0160051c01915b82811061147957505050565b81815560010161146d565b909250829061146456fea26469706673582212203bd79b31101e5bff569713618e08e099d0639fe710fae2b2064d6a59c6ed7b9764736f6c63430008180033","opcodes":"PUSH1 0x80 DUP1 PUSH1 0x40 MSTORE CALLVALUE PUSH2 0x34 JUMPI PUSH3 0x3F480 PUSH1 0x3 SSTORE PUSH1 0x1 PUSH1 0x4 SSTORE PUSH1 0x5 DUP1 SLOAD PUSH1 0x1 PUSH1 0x1 PUSH1 0xA0 SHL SUB NOT AND CALLER OR SWAP1 SSTORE PUSH2 0x14C4 SWAP1 DUP2 PUSH2 0x3A DUP3 CODECOPY RETURN JUMPDEST PUSH1 0x0 DUP1 REVERT INVALID PUSH1 0x80 DUP1 PUSH1 0x40 MSTORE PUSH1 0x4 CALLDATASIZE LT ISZERO PUSH2 0x13 JUMPI PUSH1 0x0 DUP1 REVERT JUMPDEST PUSH1 0x0 CALLDATALOAD PUSH1 0xE0 SHR SWAP1 DUP2 PUSH4 0x13CF08B EQ PUSH2 0x1040 JUMPI POP DUP1 PUSH4 0x2A251A3 EQ PUSH2 0x1022 JUMPI DUP1 PUSH4 0x2CE35E11 EQ PUSH2 0xFD7 JUMPI DUP1 PUSH4 0x8DA5CB5B EQ PUSH2 0xFAE JUMPI DUP1 PUSH4 0xBC3F931F EQ PUSH2 0xF0D JUMPI DUP1 PUSH4 0xBC70C574 EQ PUSH2 0xEE4 JUMPI DUP1 PUSH4 0xC7F758A8 EQ PUSH2 0xCC9 JUMPI DUP1 PUSH4 0xC9D27AFE EQ PUSH2 0xAF4 JUMPI DUP1 PUSH4 0xCC63604A EQ PUSH2 0x9D9 JUMPI DUP1 PUSH4 0xD23254B4 EQ PUSH2 0x974 JUMPI DUP1 PUSH4 0xD95F14D0 EQ PUSH2 0x926 JUMPI DUP1 PUSH4 0xDA35C664 EQ PUSH2 0x908 JUMPI DUP1 PUSH4 0xDE7B1638 EQ PUSH2 0x346 JUMPI DUP1 PUSH4 0xE3415CC7 EQ PUSH2 0x328 JUMPI DUP1 PUSH4 0xEA0217CF EQ PUSH2 0x2FA JUMPI PUSH4 0xFE0D94C1 EQ PUSH2 0xCF JUMPI PUSH1 0x0 DUP1 REVERT JUMPDEST CALLVALUE PUSH2 0x2F5 JUMPI PUSH1 0x20 DUP1 PUSH1 0x3 NOT CALLDATASIZE ADD SLT PUSH2 0x2F5 JUMPI PUSH1 0x4 CALLDATALOAD SWAP1 PUSH2 0xF2 PUSH1 0x2 SLOAD DUP4 LT PUSH2 0x130C JUMP JUMPDEST DUP2 PUSH1 0x0 MSTORE PUSH1 0x0 DUP2 MSTORE PUSH1 0x40 PUSH1 0x0 KECCAK256 PUSH1 0x9 DUP2 ADD SLOAD TIMESTAMP LT PUSH2 0x2BA JUMPI PUSH1 0xA DUP2 ADD SWAP1 DUP2 SLOAD PUSH2 0x11E PUSH1 0xFF DUP3 AND ISZERO PUSH2 0x1365 JUMP JUMPDEST PUSH1 0xFF NOT DUP1 DUP3 AND PUSH1 0x1 SWAP1 DUP2 OR DUP6 SSTORE PUSH1 0x6 DUP5 ADD SLOAD PUSH1 0x7 DUP6 ADD SLOAD PUSH2 0xFFFF NOT SWAP1 SWAP5 AND SWAP4 LT PUSH1 0x8 SHL PUSH2 0xFF00 AND SWAP3 SWAP1 SWAP3 OR DUP3 OR DUP5 SSTORE PUSH1 0xFF DUP5 SLOAD PUSH1 0x8 SHR AND DUP1 PUSH2 0x2A4 JUMPI JUMPDEST PUSH2 0x196 JUMPI JUMPDEST DUP6 PUSH32 0x948F4A9CD986F1118C3FBD459F7A22B23C0693E1CA3EF06A6A8BE5AA7D39CC03 DUP7 PUSH1 0xFF DUP8 SLOAD PUSH1 0x8 SHR AND PUSH1 0x40 MLOAD SWAP1 ISZERO ISZERO DUP2 MSTORE LOG2 STOP JUMPDEST PUSH1 0x4 PUSH1 0x1 DUP1 PUSH1 0xA0 SHL SUB PUSH1 0x5 DUP6 ADD SLOAD AND SWAP4 ADD SWAP1 PUSH1 0x40 MLOAD SWAP3 PUSH1 0x0 SWAP3 DUP1 SLOAD PUSH2 0x1BA DUP2 PUSH2 0x115D JUMP JUMPDEST SWAP4 PUSH1 0x1 DUP3 AND SWAP2 DUP3 ISZERO PUSH2 0x28D JUMPI POP POP PUSH1 0x1 EQ PUSH2 0x252 JUMPI JUMPDEST POP POP POP SWAP2 DUP2 PUSH1 0x0 DUP1 SWAP5 SWAP4 DUP2 SWAP5 SUB SWAP3 GAS CALL RETURNDATASIZE ISZERO PUSH2 0x24D JUMPI RETURNDATASIZE PUSH2 0x1F0 DUP2 PUSH2 0x13E5 JUMP JUMPDEST SWAP1 PUSH2 0x1FE PUSH1 0x40 MLOAD SWAP3 DUP4 PUSH2 0x1266 JUMP JUMPDEST DUP2 MSTORE PUSH1 0x0 DUP5 RETURNDATASIZE SWAP3 ADD RETURNDATACOPY JUMPDEST ISZERO PUSH2 0x215 JUMPI CODESIZE DUP1 DUP1 PUSH2 0x160 JUMP JUMPDEST PUSH1 0x40 MLOAD PUSH3 0x461BCD PUSH1 0xE5 SHL DUP2 MSTORE PUSH1 0x4 DUP2 ADD DUP4 SWAP1 MSTORE PUSH1 0x10 PUSH1 0x24 DUP3 ADD MSTORE PUSH16 0x115E1958DD5D1A5BDB8819985A5B1959 PUSH1 0x82 SHL PUSH1 0x44 DUP3 ADD MSTORE PUSH1 0x64 SWAP1 REVERT JUMPDEST PUSH2 0x208 JUMP JUMPDEST SWAP1 SWAP2 SWAP3 POP PUSH1 0x0 MSTORE DUP6 PUSH1 0x0 KECCAK256 SWAP1 DUP7 PUSH1 0x0 SWAP3 JUMPDEST DUP5 DUP5 LT PUSH2 0x27B JUMPI POP POP POP SWAP1 DUP3 ADD SWAP1 POP DUP2 PUSH1 0x0 DUP1 PUSH2 0x1D0 JUMP JUMPDEST DUP1 SLOAD DUP7 DUP6 ADD MSTORE SWAP3 ADD SWAP2 DUP8 SWAP1 DUP3 ADD PUSH2 0x263 JUMP JUMPDEST AND DUP7 MSTORE POP POP POP DUP1 ISZERO ISZERO MUL DUP3 ADD SWAP1 POP DUP2 PUSH1 0x0 DUP1 PUSH2 0x1D0 JUMP JUMPDEST POP PUSH1 0x5 DUP4 ADD SLOAD PUSH1 0x1 PUSH1 0x1 PUSH1 0xA0 SHL SUB AND ISZERO ISZERO PUSH2 0x15B JUMP JUMPDEST PUSH1 0x40 MLOAD PUSH3 0x461BCD PUSH1 0xE5 SHL DUP2 MSTORE PUSH1 0x4 DUP2 ADD DUP4 SWAP1 MSTORE PUSH1 0x13 PUSH1 0x24 DUP3 ADD MSTORE PUSH19 0x566F74696E67207374696C6C20616374697665 PUSH1 0x68 SHL PUSH1 0x44 DUP3 ADD MSTORE PUSH1 0x64 SWAP1 REVERT JUMPDEST PUSH1 0x0 DUP1 REVERT JUMPDEST CALLVALUE PUSH2 0x2F5 JUMPI PUSH1 0x20 CALLDATASIZE PUSH1 0x3 NOT ADD SLT PUSH2 0x2F5 JUMPI PUSH2 0x320 PUSH1 0x1 DUP1 PUSH1 0xA0 SHL SUB PUSH1 0x5 SLOAD AND CALLER EQ PUSH2 0x13A4 JUMP JUMPDEST PUSH1 0x4 CALLDATALOAD PUSH1 0x3 SSTORE STOP JUMPDEST CALLVALUE PUSH2 0x2F5 JUMPI PUSH1 0x0 CALLDATASIZE PUSH1 0x3 NOT ADD SLT PUSH2 0x2F5 JUMPI PUSH1 0x20 PUSH1 0x4 SLOAD PUSH1 0x40 MLOAD SWAP1 DUP2 MSTORE RETURN JUMPDEST CALLVALUE PUSH2 0x2F5 JUMPI PUSH1 0x80 CALLDATASIZE PUSH1 0x3 NOT ADD SLT PUSH2 0x2F5 JUMPI PUSH1 0x4 CALLDATALOAD PUSH8 0xFFFFFFFFFFFFFFFF DUP2 GT PUSH2 0x2F5 JUMPI PUSH2 0x377 SWAP1 CALLDATASIZE SWAP1 PUSH1 0x4 ADD PUSH2 0x12DE JUMP JUMPDEST PUSH1 0x24 CALLDATALOAD PUSH8 0xFFFFFFFFFFFFFFFF DUP2 GT PUSH2 0x2F5 JUMPI PUSH2 0x397 SWAP1 CALLDATASIZE SWAP1 PUSH1 0x4 ADD PUSH2 0x12DE JUMP JUMPDEST PUSH1 0x44 CALLDATALOAD SWAP3 SWAP2 PUSH1 0x1 PUSH1 0x1 PUSH1 0xA0 SHL SUB DUP5 AND DUP5 SUB PUSH2 0x2F5 JUMPI PUSH1 0x64 CALLDATALOAD PUSH8 0xFFFFFFFFFFFFFFFF DUP2 GT PUSH2 0x2F5 JUMPI PUSH2 0x3CC SWAP1 CALLDATASIZE SWAP1 PUSH1 0x4 ADD PUSH2 0x12DE JUMP JUMPDEST DUP5 SWAP6 SWAP2 SWAP6 ISZERO PUSH2 0x8D2 JUMPI DUP4 ISZERO PUSH2 0x896 JUMPI PUSH1 0x2 SLOAD SWAP6 PUSH1 0x0 NOT DUP8 EQ PUSH2 0x880 JUMPI PUSH2 0x43C SWAP2 PUSH1 0x1 DUP9 ADD PUSH1 0x2 SSTORE PUSH2 0x430 PUSH2 0x402 PUSH1 0x3 SLOAD TIMESTAMP PUSH2 0x1358 JUMP JUMPDEST SWAP6 PUSH1 0x40 MLOAD SWAP8 PUSH2 0x410 DUP10 PUSH2 0x1249 JUMP JUMPDEST DUP11 DUP10 MSTORE CALLER PUSH1 0x20 DUP11 ADD MSTORE PUSH2 0x424 CALLDATASIZE DUP12 DUP15 PUSH2 0x1401 JUMP JUMPDEST PUSH1 0x40 DUP11 ADD MSTORE CALLDATASIZE SWAP2 PUSH2 0x1401 JUMP JUMPDEST PUSH1 0x60 DUP8 ADD MSTORE CALLDATASIZE SWAP2 PUSH2 0x1401 JUMP JUMPDEST PUSH1 0x80 DUP5 ADD MSTORE PUSH1 0x1 DUP1 PUSH1 0xA0 SHL SUB AND PUSH1 0xA0 DUP4 ADD MSTORE PUSH1 0x0 PUSH1 0xC0 DUP4 ADD MSTORE PUSH1 0x0 PUSH1 0xE0 DUP4 ADD MSTORE TIMESTAMP PUSH2 0x100 DUP4 ADD MSTORE PUSH2 0x120 DUP3 ADD MSTORE PUSH1 0x0 PUSH2 0x140 DUP3 ADD MSTORE PUSH1 0x0 PUSH2 0x160 DUP3 ADD MSTORE DUP3 PUSH1 0x0 MSTORE PUSH1 0x0 PUSH1 0x20 MSTORE PUSH1 0x40 PUSH1 0x0 KECCAK256 SWAP4 DUP2 MLOAD DUP6 SSTORE PUSH1 0x1 DUP6 ADD PUSH1 0x1 DUP1 PUSH1 0xA0 SHL SUB PUSH1 0x20 DUP5 ADD MLOAD AND PUSH1 0x1 PUSH1 0x1 PUSH1 0x60 SHL SUB PUSH1 0xA0 SHL DUP3 SLOAD AND OR SWAP1 SSTORE PUSH1 0x40 DUP3 ADD MLOAD DUP1 MLOAD SWAP1 PUSH8 0xFFFFFFFFFFFFFFFF DUP3 GT PUSH2 0x77B JUMPI PUSH2 0x4DF DUP3 PUSH2 0x4D6 PUSH1 0x2 DUP11 ADD SLOAD PUSH2 0x115D JUMP JUMPDEST PUSH1 0x2 DUP11 ADD PUSH2 0x1438 JUMP JUMPDEST PUSH1 0x20 SWAP1 PUSH1 0x1F DUP4 GT PUSH1 0x1 EQ PUSH2 0x80E JUMPI PUSH2 0x510 SWAP3 SWAP2 PUSH1 0x0 SWAP2 DUP4 PUSH2 0x791 JUMPI JUMPDEST POP POP DUP2 PUSH1 0x1 SHL SWAP2 PUSH1 0x0 NOT SWAP1 PUSH1 0x3 SHL SHR NOT AND OR SWAP1 JUMP JUMPDEST PUSH1 0x2 DUP7 ADD SSTORE JUMPDEST PUSH1 0x60 DUP3 ADD MLOAD DUP1 MLOAD SWAP1 PUSH8 0xFFFFFFFFFFFFFFFF DUP3 GT PUSH2 0x77B JUMPI PUSH2 0x547 DUP3 PUSH2 0x53E PUSH1 0x3 DUP11 ADD SLOAD PUSH2 0x115D JUMP JUMPDEST PUSH1 0x3 DUP11 ADD PUSH2 0x1438 JUMP JUMPDEST PUSH1 0x20 SWAP1 PUSH1 0x1F DUP4 GT PUSH1 0x1 EQ PUSH2 0x79C JUMPI PUSH2 0x577 SWAP3 SWAP2 PUSH1 0x0 SWAP2 DUP4 PUSH2 0x791 JUMPI POP POP DUP2 PUSH1 0x1 SHL SWAP2 PUSH1 0x0 NOT SWAP1 PUSH1 0x3 SHL SHR NOT AND OR SWAP1 JUMP JUMPDEST PUSH1 0x3 DUP7 ADD SSTORE JUMPDEST PUSH1 0x80 DUP3 ADD MLOAD SWAP2 DUP3 MLOAD SWAP6 PUSH8 0xFFFFFFFFFFFFFFFF DUP8 GT PUSH2 0x77B JUMPI DUP7 DUP7 SWAP5 PUSH2 0x5B4 PUSH1 0x20 SWAP10 PUSH2 0x5AB PUSH1 0x4 DUP7 ADD SLOAD PUSH2 0x115D JUMP JUMPDEST PUSH1 0x4 DUP7 ADD PUSH2 0x1438 JUMP JUMPDEST DUP9 SWAP1 PUSH1 0x1F DUP4 GT PUSH1 0x1 EQ PUSH2 0x6D9 JUMPI PUSH2 0x699 SWAP4 PUSH2 0x610 DUP5 PUSH32 0x7585F467599D0F008985F231AF99293BE388626AC16CA59505C2F8F88969CD63 SWAP9 SWAP8 SWAP6 PUSH2 0x160 SWAP6 PUSH1 0xA SWAP6 PUSH1 0x0 SWAP3 PUSH2 0x6CE JUMPI POP POP DUP2 PUSH1 0x1 SHL SWAP2 PUSH1 0x0 NOT SWAP1 PUSH1 0x3 SHL SHR NOT AND OR SWAP1 JUMP JUMPDEST PUSH1 0x4 DUP3 ADD SSTORE JUMPDEST PUSH1 0x5 DUP2 ADD PUSH1 0x1 DUP1 PUSH1 0xA0 SHL SUB PUSH1 0xA0 DUP7 ADD MLOAD AND PUSH1 0x1 PUSH1 0x1 PUSH1 0x60 SHL SUB PUSH1 0xA0 SHL DUP3 SLOAD AND OR SWAP1 SSTORE PUSH1 0xC0 DUP5 ADD MLOAD PUSH1 0x6 DUP3 ADD SSTORE PUSH1 0xE0 DUP5 ADD MLOAD PUSH1 0x7 DUP3 ADD SSTORE PUSH2 0x100 DUP5 ADD MLOAD PUSH1 0x8 DUP3 ADD SSTORE PUSH2 0x120 DUP5 ADD MLOAD PUSH1 0x9 DUP3 ADD SSTORE ADD SWAP2 PUSH2 0x681 PUSH2 0x140 DUP3 ADD MLOAD ISZERO ISZERO DUP5 SWAP1 PUSH1 0xFF DUP1 NOT DUP4 SLOAD AND SWAP2 ISZERO ISZERO AND OR SWAP1 SSTORE JUMP JUMPDEST ADD MLOAD DUP2 SLOAD PUSH2 0xFF00 NOT AND SWAP1 ISZERO ISZERO PUSH1 0x8 SHL PUSH2 0xFF00 AND OR SWAP1 SSTORE JUMP JUMPDEST DUP4 PUSH1 0x40 MLOAD SWAP2 DUP8 DUP4 MSTORE DUP2 DUP9 DUP5 ADD MSTORE PUSH1 0x40 DUP4 ADD CALLDATACOPY PUSH1 0x0 PUSH1 0x40 DUP6 DUP4 ADD ADD MSTORE PUSH1 0x40 DUP2 CALLER SWAP6 PUSH1 0x1F DUP1 NOT SWAP2 ADD AND DUP2 ADD SUB ADD SWAP1 LOG3 PUSH1 0x40 MLOAD SWAP1 DUP2 MSTORE RETURN JUMPDEST ADD MLOAD SWAP1 POP DUP15 DUP1 PUSH2 0x4FB JUMP JUMPDEST SWAP6 SWAP5 SWAP4 SWAP3 SWAP2 SWAP1 PUSH1 0x4 DUP4 ADD PUSH1 0x0 MSTORE DUP10 PUSH1 0x0 KECCAK256 SWAP7 PUSH1 0x0 JUMPDEST PUSH1 0x1F NOT DUP5 AND DUP2 LT PUSH2 0x761 JUMPI POP SWAP3 PUSH1 0x1 DUP4 PUSH32 0x7585F467599D0F008985F231AF99293BE388626AC16CA59505C2F8F88969CD63 SWAP9 SWAP10 PUSH1 0xA SWAP5 PUSH2 0x699 SWAP9 SWAP8 PUSH2 0x160 SWAP8 PUSH1 0x1F NOT DUP2 AND LT PUSH2 0x748 JUMPI JUMPDEST POP POP POP DUP2 SHL ADD PUSH1 0x4 DUP3 ADD SSTORE PUSH2 0x616 JUMP JUMPDEST ADD MLOAD PUSH1 0x0 NOT PUSH1 0xF8 DUP5 PUSH1 0x3 SHL AND SHR NOT AND SWAP1 SSTORE DUP14 DUP1 DUP1 PUSH2 0x738 JUMP JUMPDEST DUP3 DUP3 ADD MLOAD DUP10 SSTORE PUSH1 0x1 SWAP1 SWAP9 ADD SWAP8 DUP11 SWAP8 POP SWAP2 DUP12 ADD SWAP2 DUP12 ADD PUSH2 0x6EE JUMP JUMPDEST PUSH4 0x4E487B71 PUSH1 0xE0 SHL PUSH1 0x0 MSTORE PUSH1 0x41 PUSH1 0x4 MSTORE PUSH1 0x24 PUSH1 0x0 REVERT JUMPDEST ADD MLOAD SWAP1 POP DUP9 DUP1 PUSH2 0x4FB JUMP JUMPDEST SWAP2 SWAP1 PUSH1 0x3 DUP9 ADD PUSH1 0x0 MSTORE PUSH1 0x20 PUSH1 0x0 KECCAK256 SWAP1 PUSH1 0x0 SWAP4 JUMPDEST PUSH1 0x1F NOT DUP5 AND DUP6 LT PUSH2 0x7F3 JUMPI PUSH1 0x1 SWAP5 POP DUP4 PUSH1 0x1F NOT DUP2 AND LT PUSH2 0x7DA JUMPI JUMPDEST POP POP POP DUP2 SHL ADD PUSH1 0x3 DUP7 ADD SSTORE PUSH2 0x57D JUMP JUMPDEST ADD MLOAD PUSH1 0x0 NOT PUSH1 0xF8 DUP5 PUSH1 0x3 SHL AND SHR NOT AND SWAP1 SSTORE DUP8 DUP1 DUP1 PUSH2 0x7CA JUMP JUMPDEST DUP2 DUP2 ADD MLOAD DUP4 SSTORE PUSH1 0x20 SWAP5 DUP6 ADD SWAP5 PUSH1 0x1 SWAP1 SWAP4 ADD SWAP3 SWAP1 SWAP2 ADD SWAP1 PUSH2 0x7AF JUMP JUMPDEST SWAP2 SWAP1 PUSH1 0x2 DUP9 ADD PUSH1 0x0 MSTORE PUSH1 0x20 PUSH1 0x0 KECCAK256 SWAP1 PUSH1 0x0 SWAP4 JUMPDEST PUSH1 0x1F NOT DUP5 AND DUP6 LT PUSH2 0x865 JUMPI PUSH1 0x1 SWAP5 POP DUP4 PUSH1 0x1F NOT DUP2 AND LT PUSH2 0x84C JUMPI JUMPDEST POP POP POP DUP2 SHL ADD PUSH1 0x2 DUP7 ADD SSTORE PUSH2 0x516 JUMP JUMPDEST ADD MLOAD PUSH1 0x0 NOT PUSH1 0xF8 DUP5 PUSH1 0x3 SHL AND SHR NOT AND SWAP1 SSTORE DUP8 DUP1 DUP1 PUSH2 0x83C JUMP JUMPDEST DUP2 DUP2 ADD MLOAD DUP4 SSTORE PUSH1 0x20 SWAP5 DUP6 ADD SWAP5 PUSH1 0x1 SWAP1 SWAP4 ADD SWAP3 SWAP1 SWAP2 ADD SWAP1 PUSH2 0x821 JUMP JUMPDEST PUSH4 0x4E487B71 PUSH1 0xE0 SHL PUSH1 0x0 MSTORE PUSH1 0x11 PUSH1 0x4 MSTORE PUSH1 0x24 PUSH1 0x0 REVERT JUMPDEST PUSH1 0x40 MLOAD PUSH3 0x461BCD PUSH1 0xE5 SHL DUP2 MSTORE PUSH1 0x20 PUSH1 0x4 DUP3 ADD MSTORE PUSH1 0x14 PUSH1 0x24 DUP3 ADD MSTORE PUSH20 0x11195CD8DC9A5C1D1A5BDB881C995C5D5A5C9959 PUSH1 0x62 SHL PUSH1 0x44 DUP3 ADD MSTORE PUSH1 0x64 SWAP1 REVERT JUMPDEST PUSH1 0x40 MLOAD PUSH3 0x461BCD PUSH1 0xE5 SHL DUP2 MSTORE PUSH1 0x20 PUSH1 0x4 DUP3 ADD MSTORE PUSH1 0xE PUSH1 0x24 DUP3 ADD MSTORE PUSH14 0x151A5D1B19481C995C5D5A5C9959 PUSH1 0x92 SHL PUSH1 0x44 DUP3 ADD MSTORE PUSH1 0x64 SWAP1 REVERT JUMPDEST CALLVALUE PUSH2 0x2F5 JUMPI PUSH1 0x0 CALLDATASIZE PUSH1 0x3 NOT ADD SLT PUSH2 0x2F5 JUMPI PUSH1 0x20 PUSH1 0x2 SLOAD PUSH1 0x40 MLOAD SWAP1 DUP2 MSTORE RETURN JUMPDEST CALLVALUE PUSH2 0x2F5 JUMPI PUSH1 0x20 CALLDATASIZE PUSH1 0x3 NOT ADD SLT PUSH2 0x2F5 JUMPI PUSH1 0x4 CALLDATALOAD PUSH1 0x1 PUSH1 0x1 PUSH1 0xA0 SHL SUB DUP2 DUP2 AND SWAP2 DUP3 SWAP1 SUB PUSH2 0x2F5 JUMPI PUSH2 0x95C SWAP1 PUSH1 0x5 SLOAD AND CALLER EQ PUSH2 0x13A4 JUMP JUMPDEST PUSH1 0x1 PUSH1 0x1 PUSH1 0x60 SHL SUB PUSH1 0xA0 SHL PUSH1 0x6 SLOAD AND OR PUSH1 0x6 SSTORE PUSH1 0x0 DUP1 RETURN JUMPDEST CALLVALUE PUSH2 0x2F5 JUMPI PUSH1 0x40 CALLDATASIZE PUSH1 0x3 NOT ADD SLT PUSH2 0x2F5 JUMPI PUSH2 0x98D PUSH2 0x12C8 JUMP JUMPDEST PUSH1 0x4 CALLDATALOAD PUSH1 0x0 MSTORE PUSH1 0x1 PUSH1 0x20 MSTORE PUSH1 0x40 PUSH1 0x0 KECCAK256 SWAP1 PUSH1 0x1 DUP1 PUSH1 0xA0 SHL SUB AND PUSH1 0x0 MSTORE PUSH1 0x20 MSTORE PUSH1 0x60 PUSH1 0x40 PUSH1 0x0 KECCAK256 PUSH1 0x1 DUP2 SLOAD SWAP2 ADD SLOAD PUSH1 0xFF PUSH1 0x40 MLOAD SWAP3 DUP2 DUP2 AND ISZERO ISZERO DUP5 MSTORE PUSH1 0x8 SHR AND ISZERO ISZERO PUSH1 0x20 DUP4 ADD MSTORE PUSH1 0x40 DUP3 ADD MSTORE RETURN JUMPDEST CALLVALUE PUSH2 0x2F5 JUMPI PUSH1 0x20 CALLDATASIZE PUSH1 0x3 NOT ADD SLT PUSH2 0x2F5 JUMPI PUSH1 0x4 CALLDATALOAD PUSH2 0x9FA PUSH1 0x2 SLOAD DUP3 LT PUSH2 0x130C JUMP JUMPDEST PUSH1 0x0 MSTORE PUSH1 0x0 PUSH1 0x20 MSTORE PUSH1 0x20 PUSH1 0x40 PUSH1 0x0 KECCAK256 PUSH1 0x40 MLOAD SWAP1 PUSH2 0xA16 DUP3 PUSH2 0x1249 JUMP JUMPDEST DUP1 SLOAD DUP3 MSTORE PUSH1 0x1 DUP2 ADD SLOAD PUSH1 0x1 PUSH1 0x1 PUSH1 0xA0 SHL SUB SWAP1 DUP2 AND DUP5 DUP5 ADD MSTORE PUSH1 0x40 MLOAD PUSH2 0xA49 DUP2 PUSH2 0xA42 DUP2 PUSH1 0x2 DUP8 ADD PUSH2 0x1197 JUMP JUMPDEST SUB DUP3 PUSH2 0x1266 JUMP JUMPDEST PUSH1 0x40 DUP5 ADD MSTORE PUSH1 0x40 MLOAD PUSH2 0xA62 DUP2 PUSH2 0xA42 DUP2 PUSH1 0x3 DUP8 ADD PUSH2 0x1197 JUMP JUMPDEST PUSH1 0x60 DUP5 ADD MSTORE PUSH1 0x40 MLOAD PUSH2 0xA7B DUP2 PUSH2 0xA42 DUP2 PUSH1 0x4 DUP8 ADD PUSH2 0x1197 JUMP JUMPDEST PUSH1 0x80 DUP5 ADD MSTORE PUSH1 0x5 DUP3 ADD SLOAD AND PUSH1 0xA0 DUP4 ADD MSTORE PUSH1 0x6 DUP2 ADD SLOAD PUSH1 0xC0 DUP4 ADD MSTORE PUSH1 0x7 DUP2 ADD SLOAD PUSH1 0xE0 DUP4 ADD MSTORE PUSH1 0x8 DUP2 ADD SLOAD PUSH2 0x100 DUP4 ADD MSTORE PUSH1 0xA PUSH1 0x9 DUP3 ADD SLOAD SWAP2 DUP3 PUSH2 0x120 DUP6 ADD MSTORE ADD SLOAD SWAP2 PUSH2 0x160 PUSH1 0xFF DUP1 DUP6 AND ISZERO SWAP5 DUP6 ISZERO PUSH2 0x140 DUP6 ADD MSTORE PUSH1 0x8 SHR AND ISZERO ISZERO SWAP2 ADD MSTORE TIMESTAMP LT ISZERO SWAP1 DUP2 PUSH2 0xAEC JUMPI JUMPDEST POP PUSH1 0x40 MLOAD SWAP1 ISZERO ISZERO DUP2 MSTORE RETURN JUMPDEST SWAP1 POP DUP3 PUSH2 0xAE1 JUMP JUMPDEST CALLVALUE PUSH2 0x2F5 JUMPI PUSH1 0x40 CALLDATASIZE PUSH1 0x3 NOT ADD SLT PUSH2 0x2F5 JUMPI PUSH1 0x4 CALLDATALOAD PUSH1 0x24 CALLDATALOAD SWAP1 DUP2 ISZERO ISZERO SWAP2 DUP3 DUP2 SUB PUSH2 0x2F5 JUMPI PUSH2 0xB24 PUSH1 0x2 SLOAD DUP4 LT PUSH2 0x130C JUMP JUMPDEST DUP2 PUSH1 0x0 MSTORE PUSH1 0x20 PUSH1 0x0 DUP2 MSTORE PUSH1 0x9 PUSH1 0x40 PUSH1 0x0 KECCAK256 ADD SLOAD TIMESTAMP LT ISZERO PUSH2 0xC96 JUMPI DUP3 PUSH1 0x0 MSTORE PUSH1 0x0 DUP2 MSTORE PUSH2 0xB5B PUSH1 0xFF PUSH1 0xA PUSH1 0x40 PUSH1 0x0 KECCAK256 ADD SLOAD AND ISZERO PUSH2 0x1365 JUMP JUMPDEST DUP3 PUSH1 0x0 MSTORE PUSH1 0x1 SWAP2 DUP3 DUP3 MSTORE PUSH1 0x40 PUSH1 0x0 KECCAK256 CALLER PUSH1 0x0 MSTORE DUP3 MSTORE PUSH1 0xFF PUSH1 0x40 PUSH1 0x0 KECCAK256 SLOAD AND PUSH2 0xC61 JUMPI PUSH1 0x40 MLOAD PUSH2 0xB89 DUP2 PUSH2 0x122D JUMP JUMPDEST DUP4 DUP2 MSTORE DUP4 DUP4 DUP3 ADD DUP8 DUP2 MSTORE PUSH2 0xBE5 PUSH1 0x40 DUP5 ADD SWAP2 DUP4 DUP4 MSTORE DUP9 PUSH1 0x0 MSTORE DUP4 DUP8 MSTORE PUSH1 0x40 PUSH1 0x0 KECCAK256 CALLER PUSH1 0x0 MSTORE DUP8 MSTORE PUSH2 0xBCE PUSH1 0x40 PUSH1 0x0 KECCAK256 SWAP6 MLOAD ISZERO ISZERO DUP7 SWAP1 PUSH1 0xFF DUP1 NOT DUP4 SLOAD AND SWAP2 ISZERO ISZERO AND OR SWAP1 SSTORE JUMP JUMPDEST MLOAD DUP5 SLOAD PUSH2 0xFF00 NOT AND SWAP1 ISZERO ISZERO PUSH1 0x8 SHL PUSH2 0xFF00 AND OR DUP5 SSTORE JUMP JUMPDEST MLOAD SWAP2 ADD SSTORE ISZERO PUSH2 0xC3E JUMPI DUP3 PUSH1 0x0 MSTORE PUSH1 0x0 DUP2 MSTORE PUSH1 0x6 PUSH1 0x40 PUSH1 0x0 KECCAK256 ADD DUP1 SLOAD SWAP1 DUP4 DUP3 ADD DUP1 SWAP3 GT PUSH2 0x880 JUMPI SSTORE JUMPDEST PUSH1 0x40 MLOAD SWAP4 DUP5 MSTORE DUP4 ADD MSTORE PUSH32 0x7C2DE587C00D75474A0C6C6FA96FD3B45DC974CD4E8A75F712BB84C950DCE1B5 PUSH1 0x40 CALLER SWAP4 LOG3 STOP JUMPDEST DUP3 PUSH1 0x0 MSTORE PUSH1 0x0 DUP2 MSTORE PUSH1 0x7 PUSH1 0x40 PUSH1 0x0 KECCAK256 ADD DUP1 SLOAD SWAP1 DUP4 DUP3 ADD DUP1 SWAP3 GT PUSH2 0x880 JUMPI SSTORE PUSH2 0xC0D JUMP JUMPDEST PUSH1 0x40 MLOAD PUSH3 0x461BCD PUSH1 0xE5 SHL DUP2 MSTORE PUSH1 0x4 DUP2 ADD DUP4 SWAP1 MSTORE PUSH1 0xD PUSH1 0x24 DUP3 ADD MSTORE PUSH13 0x105B1C9958591E481D9BDD1959 PUSH1 0x9A SHL PUSH1 0x44 DUP3 ADD MSTORE PUSH1 0x64 SWAP1 REVERT JUMPDEST PUSH1 0x64 SWAP1 PUSH1 0x40 MLOAD SWAP1 PUSH3 0x461BCD PUSH1 0xE5 SHL DUP3 MSTORE PUSH1 0x4 DUP3 ADD MSTORE PUSH1 0xC PUSH1 0x24 DUP3 ADD MSTORE PUSH12 0x159BDD1A5B99C8195B991959 PUSH1 0xA2 SHL PUSH1 0x44 DUP3 ADD MSTORE REVERT JUMPDEST CALLVALUE PUSH2 0x2F5 JUMPI PUSH1 0x20 CALLDATASIZE PUSH1 0x3 NOT ADD SLT PUSH2 0x2F5 JUMPI PUSH1 0x4 CALLDATALOAD PUSH1 0x0 PUSH2 0x160 PUSH1 0x40 MLOAD PUSH2 0xCEE DUP2 PUSH2 0x1249 JUMP JUMPDEST DUP3 DUP2 MSTORE DUP3 PUSH1 0x20 DUP3 ADD MSTORE PUSH1 0x60 PUSH1 0x40 DUP3 ADD MSTORE PUSH1 0x60 DUP1 DUP3 ADD MSTORE PUSH1 0x60 PUSH1 0x80 DUP3 ADD MSTORE DUP3 PUSH1 0xA0 DUP3 ADD MSTORE DUP3 PUSH1 0xC0 DUP3 ADD MSTORE DUP3 PUSH1 0xE0 DUP3 ADD MSTORE DUP3 PUSH2 0x100 DUP3 ADD MSTORE DUP3 PUSH2 0x120 DUP3 ADD MSTORE DUP3 PUSH2 0x140 DUP3 ADD MSTORE ADD MSTORE PUSH2 0xD41 PUSH1 0x2 SLOAD DUP3 LT PUSH2 0x130C JUMP JUMPDEST PUSH1 0x0 MSTORE PUSH1 0x0 PUSH1 0x20 MSTORE PUSH1 0x40 PUSH1 0x0 KECCAK256 PUSH1 0xFF PUSH1 0xA PUSH1 0x40 MLOAD SWAP3 PUSH2 0xD5F DUP5 PUSH2 0x1249 JUMP JUMPDEST DUP1 SLOAD DUP5 MSTORE PUSH1 0x1 DUP2 ADD SLOAD PUSH1 0x1 PUSH1 0x1 PUSH1 0xA0 SHL SUB AND PUSH1 0x20 DUP6 ADD MSTORE PUSH1 0x40 MLOAD PUSH2 0xD8A DUP2 PUSH2 0xA42 DUP2 PUSH1 0x2 DUP7 ADD PUSH2 0x1197 JUMP JUMPDEST PUSH1 0x40 DUP6 ADD MSTORE PUSH1 0x40 MLOAD PUSH2 0xDA3 DUP2 PUSH2 0xA42 DUP2 PUSH1 0x3 DUP7 ADD PUSH2 0x1197 JUMP JUMPDEST PUSH1 0x60 DUP6 ADD MSTORE PUSH1 0x40 MLOAD PUSH2 0xDBC DUP2 PUSH2 0xA42 DUP2 PUSH1 0x4 DUP7 ADD PUSH2 0x1197 JUMP JUMPDEST PUSH1 0x80 DUP6 ADD MSTORE PUSH1 0x1 DUP1 PUSH1 0xA0 SHL SUB PUSH1 0x5 DUP3 ADD SLOAD AND PUSH1 0xA0 DUP6 ADD MSTORE PUSH1 0x6 DUP2 ADD SLOAD PUSH1 0xC0 DUP6 ADD MSTORE PUSH1 0x7 DUP2 ADD SLOAD PUSH1 0xE0 DUP6 ADD MSTORE PUSH1 0x8 DUP2 ADD SLOAD PUSH2 0x100 DUP6 ADD MSTORE PUSH1 0x9 DUP2 ADD SLOAD PUSH2 0x120 DUP6 ADD MSTORE ADD SLOAD DUP2 DUP2 AND ISZERO ISZERO PUSH2 0x140 DUP5 ADD MSTORE PUSH1 0x8 SHR AND ISZERO ISZERO PUSH2 0x160 DUP3 ADD MSTORE PUSH1 0x40 MLOAD DUP1 SWAP2 PUSH1 0x20 DUP3 MSTORE DUP1 MLOAD PUSH1 0x20 DUP4 ADD MSTORE PUSH1 0x1 DUP1 PUSH1 0xA0 SHL SUB PUSH1 0x20 DUP3 ADD MLOAD AND PUSH1 0x40 DUP4 ADD MSTORE PUSH2 0x160 PUSH2 0xE8A PUSH2 0xE59 PUSH1 0x40 DUP5 ADD MLOAD PUSH2 0x180 PUSH1 0x60 DUP8 ADD MSTORE PUSH2 0x1A0 DUP7 ADD SWAP1 PUSH2 0x1288 JUMP JUMPDEST PUSH2 0xE75 PUSH1 0x60 DUP6 ADD MLOAD SWAP2 PUSH1 0x1F NOT SWAP3 DUP4 DUP9 DUP4 SUB ADD PUSH1 0x80 DUP10 ADD MSTORE PUSH2 0x1288 JUMP JUMPDEST SWAP1 PUSH1 0x80 DUP6 ADD MLOAD SWAP1 DUP7 DUP4 SUB ADD PUSH1 0xA0 DUP8 ADD MSTORE PUSH2 0x1288 JUMP JUMPDEST SWAP2 PUSH1 0x1 DUP1 PUSH1 0xA0 SHL SUB PUSH1 0xA0 DUP3 ADD MLOAD AND PUSH1 0xC0 DUP6 ADD MSTORE PUSH1 0xC0 DUP2 ADD MLOAD PUSH1 0xE0 DUP6 ADD MSTORE PUSH1 0xE0 DUP2 ADD MLOAD PUSH2 0x100 DUP6 ADD MSTORE PUSH2 0x100 DUP2 ADD MLOAD PUSH2 0x120 DUP6 ADD MSTORE PUSH2 0x120 DUP2 ADD MLOAD PUSH2 0x140 DUP6 ADD MSTORE PUSH2 0x140 DUP2 ADD MLOAD ISZERO ISZERO DUP3 DUP6 ADD MSTORE ADD MLOAD ISZERO ISZERO PUSH2 0x180 DUP4 ADD MSTORE SUB SWAP1 RETURN JUMPDEST CALLVALUE PUSH2 0x2F5 JUMPI PUSH1 0x0 CALLDATASIZE PUSH1 0x3 NOT ADD SLT PUSH2 0x2F5 JUMPI PUSH1 0x6 SLOAD PUSH1 0x40 MLOAD PUSH1 0x1 PUSH1 0x1 PUSH1 0xA0 SHL SUB SWAP1 SWAP2 AND DUP2 MSTORE PUSH1 0x20 SWAP1 RETURN JUMPDEST CALLVALUE PUSH2 0x2F5 JUMPI PUSH1 0x40 CALLDATASIZE PUSH1 0x3 NOT ADD SLT PUSH2 0x2F5 JUMPI PUSH2 0xF26 PUSH2 0x12C8 JUMP JUMPDEST PUSH1 0x0 PUSH1 0x40 DUP1 MLOAD PUSH2 0xF35 DUP2 PUSH2 0x122D JUMP JUMPDEST DUP3 DUP2 MSTORE DUP3 PUSH1 0x20 DUP3 ADD MSTORE ADD MSTORE PUSH1 0x4 CALLDATALOAD PUSH1 0x0 MSTORE PUSH1 0x1 PUSH1 0x20 MSTORE PUSH1 0x40 PUSH1 0x0 KECCAK256 SWAP1 PUSH1 0x1 DUP1 PUSH1 0xA0 SHL SUB AND PUSH1 0x0 MSTORE PUSH1 0x20 MSTORE PUSH1 0x60 PUSH1 0x40 PUSH1 0x0 KECCAK256 PUSH1 0x40 MLOAD PUSH2 0xF72 DUP2 PUSH2 0x122D JUMP JUMPDEST DUP2 SLOAD PUSH1 0x40 PUSH1 0x1 PUSH1 0xFF DUP4 AND ISZERO ISZERO SWAP5 DUP6 DUP6 MSTORE PUSH1 0xFF PUSH1 0x20 DUP7 ADD SWAP5 PUSH1 0x8 SHR AND ISZERO ISZERO DUP5 MSTORE ADD SLOAD SWAP3 ADD SWAP2 DUP3 MSTORE PUSH1 0x40 MLOAD SWAP3 DUP4 MSTORE MLOAD ISZERO ISZERO PUSH1 0x20 DUP4 ADD MSTORE MLOAD PUSH1 0x40 DUP3 ADD MSTORE RETURN JUMPDEST CALLVALUE PUSH2 0x2F5 JUMPI PUSH1 0x0 CALLDATASIZE PUSH1 0x3 NOT ADD SLT PUSH2 0x2F5 JUMPI PUSH1 0x5 SLOAD PUSH1 0x40 MLOAD PUSH1 0x1 PUSH1 0x1 PUSH1 0xA0 SHL SUB SWAP1 SWAP2 AND DUP2 MSTORE PUSH1 0x20 SWAP1 RETURN JUMPDEST CALLVALUE PUSH2 0x2F5 JUMPI PUSH1 0x20 CALLDATASIZE PUSH1 0x3 NOT ADD SLT PUSH2 0x2F5 JUMPI PUSH1 0x4 CALLDATALOAD PUSH2 0xFF8 PUSH1 0x2 SLOAD DUP3 LT PUSH2 0x130C JUMP JUMPDEST PUSH1 0x0 MSTORE PUSH1 0x0 PUSH1 0x20 MSTORE PUSH1 0x20 PUSH2 0x101A PUSH1 0x40 PUSH1 0x0 KECCAK256 PUSH1 0x7 PUSH1 0x6 DUP3 ADD SLOAD SWAP2 ADD SLOAD SWAP1 PUSH2 0x1358 JUMP JUMPDEST PUSH1 0x40 MLOAD SWAP1 DUP2 MSTORE RETURN JUMPDEST CALLVALUE PUSH2 0x2F5 JUMPI PUSH1 0x0 CALLDATASIZE PUSH1 0x3 NOT ADD SLT PUSH2 0x2F5 JUMPI PUSH1 0x20 PUSH1 0x3 SLOAD PUSH1 0x40 MLOAD SWAP1 DUP2 MSTORE RETURN JUMPDEST CALLVALUE PUSH2 0x2F5 JUMPI PUSH1 0x20 CALLDATASIZE PUSH1 0x3 NOT ADD SLT PUSH2 0x2F5 JUMPI PUSH1 0x4 CALLDATALOAD PUSH1 0x0 MSTORE PUSH1 0x0 PUSH1 0x20 MSTORE PUSH1 0x40 PUSH1 0x0 KECCAK256 DUP1 SLOAD SWAP2 PUSH1 0xFF PUSH1 0x1 DUP1 PUSH1 0xA0 SHL SUB SWAP2 DUP3 PUSH1 0x1 DUP6 ADD SLOAD AND SWAP4 PUSH2 0x108E DUP3 PUSH2 0x1087 DUP2 PUSH1 0x2 DUP6 ADD PUSH2 0x1197 JUMP JUMPDEST SUB DUP4 PUSH2 0x1266 JUMP JUMPDEST PUSH1 0x40 MLOAD PUSH2 0x10A2 DUP2 PUSH2 0xA42 DUP2 PUSH1 0x3 DUP7 ADD PUSH2 0x1197 JUMP JUMPDEST PUSH1 0x40 MLOAD SWAP5 PUSH2 0x10BE DUP7 PUSH2 0x10B7 DUP2 PUSH1 0x4 DUP8 ADD PUSH2 0x1197 JUMP JUMPDEST SUB DUP8 PUSH2 0x1266 JUMP JUMPDEST PUSH1 0x5 DUP4 ADD SLOAD AND SWAP5 PUSH1 0x6 DUP4 ADD SLOAD PUSH2 0x1126 PUSH1 0x7 DUP6 ADD SLOAD SWAP3 PUSH2 0x1118 PUSH1 0x8 DUP8 ADD SLOAD SWAP6 PUSH2 0x110A PUSH1 0xA PUSH1 0x9 DUP11 ADD SLOAD SWAP10 ADD SLOAD SWAP10 PUSH1 0x40 MLOAD SWAP15 DUP16 SWAP15 DUP16 SWAP1 PUSH2 0x180 SWAP3 DUP3 MSTORE PUSH1 0x20 DUP3 ADD MSTORE DUP2 PUSH1 0x40 DUP3 ADD MSTORE ADD SWAP1 PUSH2 0x1288 JUMP JUMPDEST DUP13 DUP2 SUB PUSH1 0x60 DUP15 ADD MSTORE SWAP1 PUSH2 0x1288 JUMP JUMPDEST SWAP1 DUP11 DUP3 SUB PUSH1 0x80 DUP13 ADD MSTORE PUSH2 0x1288 JUMP JUMPDEST SWAP7 PUSH1 0xA0 DUP10 ADD MSTORE PUSH1 0xC0 DUP9 ADD MSTORE PUSH1 0xE0 DUP8 ADD MSTORE PUSH2 0x100 DUP7 ADD MSTORE PUSH2 0x120 DUP6 ADD MSTORE DUP2 DUP2 AND ISZERO ISZERO PUSH2 0x140 DUP6 ADD MSTORE PUSH1 0x8 SHR AND ISZERO ISZERO PUSH2 0x160 DUP4 ADD MSTORE SUB SWAP1 RETURN JUMPDEST SWAP1 PUSH1 0x1 DUP3 DUP2 SHR SWAP3 AND DUP1 ISZERO PUSH2 0x118D JUMPI JUMPDEST PUSH1 0x20 DUP4 LT EQ PUSH2 0x1177 JUMPI JUMP JUMPDEST PUSH4 0x4E487B71 PUSH1 0xE0 SHL PUSH1 0x0 MSTORE PUSH1 0x22 PUSH1 0x4 MSTORE PUSH1 0x24 PUSH1 0x0 REVERT JUMPDEST SWAP2 PUSH1 0x7F AND SWAP2 PUSH2 0x116C JUMP JUMPDEST DUP1 SLOAD PUSH1 0x0 SWAP4 SWAP3 PUSH2 0x11A6 DUP3 PUSH2 0x115D JUMP JUMPDEST SWAP2 DUP3 DUP3 MSTORE PUSH1 0x20 SWAP4 PUSH1 0x1 SWAP2 PUSH1 0x1 DUP2 AND SWAP1 DUP2 PUSH1 0x0 EQ PUSH2 0x120E JUMPI POP PUSH1 0x1 EQ PUSH2 0x11CD JUMPI JUMPDEST POP POP POP POP POP JUMP JUMPDEST SWAP1 SWAP4 SWAP5 SWAP6 POP PUSH1 0x0 SWAP3 SWAP2 SWAP3 MSTORE DUP4 PUSH1 0x0 KECCAK256 SWAP3 DUP5 PUSH1 0x0 SWAP5 JUMPDEST DUP4 DUP7 LT PUSH2 0x11FA JUMPI POP POP POP POP ADD ADD SWAP1 CODESIZE DUP1 DUP1 DUP1 DUP1 PUSH2 0x11C6 JUMP JUMPDEST DUP1 SLOAD DUP6 DUP8 ADD DUP4 ADD MSTORE SWAP5 ADD SWAP4 DUP6 SWAP1 DUP3 ADD PUSH2 0x11E2 JUMP JUMPDEST PUSH1 0xFF NOT AND DUP7 DUP6 ADD MSTORE POP POP POP SWAP1 ISZERO ISZERO PUSH1 0x5 SHL ADD ADD SWAP2 POP CODESIZE DUP1 DUP1 DUP1 DUP1 PUSH2 0x11C6 JUMP JUMPDEST PUSH1 0x60 DUP2 ADD SWAP1 DUP2 LT PUSH8 0xFFFFFFFFFFFFFFFF DUP3 GT OR PUSH2 0x77B JUMPI PUSH1 0x40 MSTORE JUMP JUMPDEST PUSH2 0x180 DUP2 ADD SWAP1 DUP2 LT PUSH8 0xFFFFFFFFFFFFFFFF DUP3 GT OR PUSH2 0x77B JUMPI PUSH1 0x40 MSTORE JUMP JUMPDEST SWAP1 PUSH1 0x1F DUP1 NOT SWAP2 ADD AND DUP2 ADD SWAP1 DUP2 LT PUSH8 0xFFFFFFFFFFFFFFFF DUP3 GT OR PUSH2 0x77B JUMPI PUSH1 0x40 MSTORE JUMP JUMPDEST SWAP2 SWAP1 DUP3 MLOAD SWAP3 DUP4 DUP3 MSTORE PUSH1 0x0 JUMPDEST DUP5 DUP2 LT PUSH2 0x12B4 JUMPI POP POP DUP3 PUSH1 0x0 PUSH1 0x20 DUP1 SWAP5 SWAP6 DUP5 ADD ADD MSTORE PUSH1 0x1F DUP1 NOT SWAP2 ADD AND ADD ADD SWAP1 JUMP JUMPDEST PUSH1 0x20 DUP2 DUP4 ADD DUP2 ADD MLOAD DUP5 DUP4 ADD DUP3 ADD MSTORE ADD PUSH2 0x1293 JUMP JUMPDEST PUSH1 0x24 CALLDATALOAD SWAP1 PUSH1 0x1 PUSH1 0x1 PUSH1 0xA0 SHL SUB DUP3 AND DUP3 SUB PUSH2 0x2F5 JUMPI JUMP JUMPDEST SWAP2 DUP2 PUSH1 0x1F DUP5 ADD SLT ISZERO PUSH2 0x2F5 JUMPI DUP3 CALLDATALOAD SWAP2 PUSH8 0xFFFFFFFFFFFFFFFF DUP4 GT PUSH2 0x2F5 JUMPI PUSH1 0x20 DUP4 DUP2 DUP7 ADD SWAP6 ADD ADD GT PUSH2 0x2F5 JUMPI JUMP JUMPDEST ISZERO PUSH2 0x1313 JUMPI JUMP JUMPDEST PUSH1 0x40 MLOAD PUSH3 0x461BCD PUSH1 0xE5 SHL DUP2 MSTORE PUSH1 0x20 PUSH1 0x4 DUP3 ADD MSTORE PUSH1 0x17 PUSH1 0x24 DUP3 ADD MSTORE PUSH32 0x50726F706F73616C20646F6573206E6F74206578697374000000000000000000 PUSH1 0x44 DUP3 ADD MSTORE PUSH1 0x64 SWAP1 REVERT JUMPDEST SWAP2 SWAP1 DUP3 ADD DUP1 SWAP3 GT PUSH2 0x880 JUMPI JUMP JUMPDEST ISZERO PUSH2 0x136C JUMPI JUMP JUMPDEST PUSH1 0x40 MLOAD PUSH3 0x461BCD PUSH1 0xE5 SHL DUP2 MSTORE PUSH1 0x20 PUSH1 0x4 DUP3 ADD MSTORE PUSH1 0x10 PUSH1 0x24 DUP3 ADD MSTORE PUSH16 0x105B1C9958591E48195E1958DD5D1959 PUSH1 0x82 SHL PUSH1 0x44 DUP3 ADD MSTORE PUSH1 0x64 SWAP1 REVERT JUMPDEST ISZERO PUSH2 0x13AB JUMPI JUMP JUMPDEST PUSH1 0x40 MLOAD PUSH3 0x461BCD PUSH1 0xE5 SHL DUP2 MSTORE PUSH1 0x20 PUSH1 0x4 DUP3 ADD MSTORE PUSH1 0x12 PUSH1 0x24 DUP3 ADD MSTORE PUSH18 0x2737BA1031B7B73A3930B1BA1037BBB732B9 PUSH1 0x71 SHL PUSH1 0x44 DUP3 ADD MSTORE PUSH1 0x64 SWAP1 REVERT JUMPDEST PUSH8 0xFFFFFFFFFFFFFFFF DUP2 GT PUSH2 0x77B JUMPI PUSH1 0x1F ADD PUSH1 0x1F NOT AND PUSH1 0x20 ADD SWAP1 JUMP JUMPDEST SWAP3 SWAP2 SWAP3 PUSH2 0x140D DUP3 PUSH2 0x13E5 JUMP JUMPDEST SWAP2 PUSH2 0x141B PUSH1 0x40 MLOAD SWAP4 DUP5 PUSH2 0x1266 JUMP JUMPDEST DUP3 SWAP5 DUP2 DUP5 MSTORE DUP2 DUP4 ADD GT PUSH2 0x2F5 JUMPI DUP3 DUP2 PUSH1 0x20 SWAP4 DUP5 PUSH1 0x0 SWAP7 ADD CALLDATACOPY ADD ADD MSTORE JUMP JUMPDEST SWAP1 PUSH1 0x1F DUP2 GT PUSH2 0x1446 JUMPI POP POP POP JUMP JUMPDEST PUSH1 0x0 SWAP2 PUSH1 0x0 MSTORE PUSH1 0x20 PUSH1 0x0 KECCAK256 SWAP1 PUSH1 0x20 PUSH1 0x1F DUP6 ADD PUSH1 0x5 SHR DUP4 ADD SWAP5 LT PUSH2 0x1484 JUMPI JUMPDEST PUSH1 0x1F ADD PUSH1 0x5 SHR ADD SWAP2 JUMPDEST DUP3 DUP2 LT PUSH2 0x1479 JUMPI POP POP POP JUMP JUMPDEST DUP2 DUP2 SSTORE PUSH1 0x1 ADD PUSH2 0x146D JUMP JUMPDEST SWAP1 SWAP3 POP DUP3 SWAP1 PUSH2 0x1464 JUMP INVALID LOG2 PUSH5 0x6970667358 0x22 SLT KECCAK256 EXTCODESIZE 0xD7 SWAP12 BALANCE LT 0x1E JUMPDEST SELFDESTRUCT JUMP SWAP8 SGT PUSH2 0x8E08 0xE0 SWAP10 0xD0 PUSH4 0x9FE710FA 0xE2 0xB2 MOD 0x4D PUSH11 0x59C6ED7B9764736F6C6343 STOP ADDMOD XOR STOP CALLER "},"methodIdentifiers":{"canExecute(uint256)":"cc63604a","execute(uint256)":"fe0d94c1","getProposal(uint256)":"c7f758a8","getTotalVotes(uint256)":"2ce35e11","getVote(uint256,address)":"bc3f931f","minProposalWeight()":"e3415cc7","owner()":"8da5cb5b","proposalCount()":"da35c664","proposals(uint256)":"013cf08b","propose(string,string,address,bytes)":"de7b1638","robotRegistryAddress()":"bc70c574","setRobotRegistry(address)":"d95f14d0","setVotingPeriod(uint256)":"ea0217cf","vote(uint256,bool)":"c9d27afe","votes(uint256,address)":"d23254b4","votingPeriod()":"02a251a3"}}}}}