{"contracts/RobotRegistry.sol":{"RobotRegistry":{"abi":[{"inputs":[],"stateMutability":"nonpayable","type":"constructor"},{"anonymous":false,"inputs":[{"indexed":true,"internalType":"bytes32","name":"robotId","type":"bytes32"},{"indexed":false,"internalType":"int256","name":"newReputation","type":"int256"},{"indexed":false,"internalType":"int256","name":"delta","type":"int256"}],"name":"ReputationAdjusted","type":"event"},{"anonymous":false,"inputs":[{"indexed":true,"internalType":"bytes32","name":"robotId","type":"bytes32"}],"name":"RobotDeactivated","type":"event"},{"anonymous":false,"inputs":[{"indexed":true,"internalType":"bytes32","name":"robotId","type":"bytes32"},{"indexed":true,"internalType":"address","name":"owner","type":"address"},{"indexed":false,"internalType":"string","name":"metadataURI","type":"string"},{"indexed":false,"internalType":"uint256","name":"stake","type":"uint256"}],"name":"RobotRegistered","type":"event"},{"anonymous":false,"inputs":[{"indexed":true,"internalType":"bytes32","name":"robotId","type":"bytes32"},{"indexed":true,"internalType":"address","name":"owner","type":"address"},{"indexed":false,"internalType":"uint256","name":"amount","type":"uint256"}],"name":"StakeWithdrawn","type":"event"},{"inputs":[{"internalType":"bytes32","name":"robotId","type":"bytes32"},{"internalType":"int256","name":"delta","type":"int256"}],"name":"adjustReputation","outputs":[],"stateMutability":"nonpayable","type":"function"},{"inputs":[{"internalType":"uint256","name":"","type":"uint256"}],"name":"allRobotIds","outputs":[{"internalType":"bytes32","name":"","type":"bytes32"}],"stateMutability":"view","type":"function"},{"inputs":[],"name":"daoAddress","outputs":[{"internalType":"address","name":"","type":"address"}],"stateMutability":"view","type":"function"},{"inputs":[{"internalType":"bytes32","name":"robotId","type":"bytes32"}],"name":"deactivateRobot","outputs":[],"stateMutability":"nonpayable","type":"function"},{"inputs":[{"internalType":"uint256","name":"offset","type":"uint256"},{"internalType":"uint256","name":"limit","type":"uint256"}],"name":"getAllRobots","outputs":[{"internalType":"bytes32[]","name":"","type":"bytes32[]"}],"stateMutability":"view","type":"function"},{"inputs":[{"internalType":"bytes32","name":"robotId","type":"bytes32"}],"name":"getRobot","outputs":[{"components":[{"internalType":"address","name":"owner","type":"address"},{"internalType":"string","name":"metadataURI","type":"string"},{"internalType":"int256","name":"reputation","type":"int256"},{"internalType":"uint256","name":"stake","type":"uint256"},{"internalType":"bool","name":"active","type":"bool"},{"internalType":"uint256","name":"registeredAt","type":"uint256"}],"internalType":"struct RobotRegistry.Robot","name":"","type":"tuple"}],"stateMutability":"view","type":"function"},{"inputs":[{"internalType":"address","name":"ownerAddress","type":"address"}],"name":"getRobotsByOwner","outputs":[{"internalType":"bytes32[]","name":"","type":"bytes32[]"}],"stateMutability":"view","type":"function"},{"inputs":[],"name":"getTotalRobots","outputs":[{"internalType":"uint256","name":"","type":"uint256"}],"stateMutability":"view","type":"function"},{"inputs":[],"name":"minStake","outputs":[{"internalType":"uint256","name":"","type":"uint256"}],"stateMutability":"view","type":"function"},{"inputs":[],"name":"oracleAddress","outputs":[{"internalType":"address","name":"","type":"address"}],"stateMutability":"view","type":"function"},{"inputs":[],"name":"owner","outputs":[{"internalType":"address","name":"","type":"address"}],"stateMutability":"view","type":"function"},{"inputs":[{"internalType":"address","name":"","type":"address"},{"internalType":"uint256","name":"","type":"uint256"}],"name":"ownerRobots","outputs":[{"internalType":"bytes32","name":"","type":"bytes32"}],"stateMutability":"view","type":"function"},{"inputs":[{"internalType":"bytes32","name":"idHash","type":"bytes32"},{"internalType":"string","name":"metadataURI","type":"string"}],"name":"registerRobot","outputs":[],"stateMutability":"payable","type":"function"},{"inputs":[{"internalType":"bytes32","name":"","type":"bytes32"}],"name":"robots","outputs":[{"internalType":"address","name":"owner","type":"address"},{"internalType":"string","name":"metadataURI","type":"string"},{"internalType":"int256","name":"reputation","type":"int256"},{"internalType":"uint256","name":"stake","type":"uint256"},{"internalType":"bool","name":"active","type":"bool"},{"internalType":"uint256","name":"registeredAt","type":"uint256"}],"stateMutability":"view","type":"function"},{"inputs":[{"internalType":"address","name":"_dao","type":"address"}],"name":"setDAOAddress","outputs":[],"stateMutability":"nonpayable","type":"function"},{"inputs":[{"internalType":"uint256","name":"_minStake","type":"uint256"}],"name":"setMinStake","outputs":[],"stateMutability":"nonpayable","type":"function"},{"inputs":[{"internalType":"address","name":"_oracle","type":"address"}],"name":"setOracleAddress","outputs":[],"stateMutability":"nonpayable","type":"function"},{"inputs":[{"internalType":"bytes32","name":"robotId","type":"bytes32"}],"name":"withdrawStake","outputs":[],"stateMutability":"nonpayable","type":"function"}],"evm":{"bytecode":{"linkReferences":{},"object":"6080806040523461003357662386f26fc10000600355600680546001600160a01b031916331790556110ce90816100398239f35b600080fdfe608080604052600436101561001357600080fd5b60003560e01c9081630ecdc67414610ccc575080632131c68c14610ca3578063375b3c0a14610c855780634c69c00f14610c395780637cef9d5a14610bef5780638c80fd9014610bc15780638da5cb5b14610b98578063965afa8914610b4c578063a05c5a8314610a7f578063a1bbb49814610675578063a89ae4ba1461064c578063a9e685c514610615578063ae6699471461058f578063b95ff689146103fd578063cf833061146102c7578063d989a31114610193578063e569fb80146101085763ef959ecd146100e557600080fd5b34610103576000366003190112610103576020600254604051908152f35b600080fd5b3461010357602036600319011261010357600435600090815260208190526040902080546001600160a01b031661014160018301610f33565b91600281015490600381015490600560ff60048301541691015491610178604051968796875260c0602088015260c0870190610dc4565b93604086015260608501521515608084015260a08301520390f35b34610103576040366003190112610103576004356024906002548082101561028b576024358201908183116102755780821161026d575b506101d58282611073565b916101f86101e284611080565b936101f06040519586610f11565b808552611080565b60209190601f19013685840137805b838110610220576040518061021c8782610e7f565b0390f35b61022981610e1a565b919054916102378483611073565b90875182101561025857600193869160031b1c9160051b8801015201610207565b88634e487b7160e01b60005260326004526000fd5b9050836101ca565b634e487b7160e01b600052601160045260246000fd5b60405162461bcd60e51b81526020600482015260146024820152734f6666736574206f7574206f6620626f756e647360601b6044820152606490fd5b346101035760403660031901126101035760043560243560018060a01b038060045416331480156103f0575b156103ba57826000526000602052604060002054161561037e5781600052600060205260026040600020018054918083019260008285129112908015821691151617610275577f3530d5670631ec51e7467b0e04a67072a8215c1e9b0aef2f725dbf4d76560454926040925583600052600060205260028260002001549082519182526020820152a2005b60405162461bcd60e51b8152602060048201526014602482015273149bd89bdd08191bd95cc81b9bdd08195e1a5cdd60621b6044820152606490fd5b60405162461bcd60e51b815260206004820152600e60248201526d139bdd08185d5d1a1bdc9a5e995960921b6044820152606490fd5b50806005541633146102f3565b346101035760208060031936011261010357600435806000526000825261043260018060a01b03604060002054163314611019565b806000526000825260ff6004604060002001541661055157806000526000825260036040600020015415610515578060005260008252600360406000200191600083549355600080808086335af13d15610510573d61049081611057565b9061049e6040519283610f11565b81526000833d92013e5b156104da577f11269c9885f555c7abc6754b6e48ba590f3653354fc22e80d9f1a3da407d139d906040519384523393a3005b6064906040519062461bcd60e51b82526004820152600f60248201526e151c985b9cd9995c8819985a5b1959608a1b6044820152fd5b6104a8565b60405162461bcd60e51b81526004810183905260146024820152734e6f207374616b6520746f20776974686472617760601b6044820152606490fd5b60405162461bcd60e51b8152600481018390526016602482015275526f626f74206d75737420626520696e61637469766560501b6044820152606490fd5b3461010357602080600319360112610103576001600160a01b036105b1610e04565b166000526001806020526040600020916040519182602085549182815201946000526020600020926000905b8282106106005761021c866105f4818a0382610f11565b60405191829182610e7f565b845487529586019593830193908301906105dd565b34610103576020366003190112610103576004356002548110156101035761063e602091610e1a565b90546040519160031b1c8152f35b34610103576000366003190112610103576004546040516001600160a01b039091168152602090f35b60403660031901126101035760243567ffffffffffffffff8082116101035736602383011215610103578082600401351161010357366024836004013584010111610103576003543410610a4557600435600052600060205260018060a01b03908160406000205416610a00578260040135156109c357604051906106f982610ef5565b3382526107098460040135611057565b6107166040519182610f11565b6004850135808252602486016020830137600060208660040135830101526020830190815260646040840152346060840152600160808401524260a084015260043560005260006020526040600020938351166001600160601b0360a01b8554161784555180519182116108e6576107916001850154610ebb565b601f811161097c575b50602090601f83116001146109075791806005949260a0946000926108fc575b50508160011b916000199060031b1c19161760018501555b6040810151600285015560608101516003850155600484016080820151151560ff801983541691161790550151910155336000526001602052604060002080546801000000000000000091828210156108e6578161083891600161085494018155610e67565b6004929192359083549060031b91821b91600019901b19161790565b9055600254908110156108e6576108388160016108749301600255610e1a565b90556040519060408252806004013560408301528060040135602482016060840137600060608260040135840101523460208301527f9958ba5d928ce99f9a19c5993e72b5e2d8972512643eb3067bd47205df7e95b0339260608160043594601f8019916004013501168101030190a3005b634e487b7160e01b600052604160045260246000fd5b0151905087806107ba565b906001850160005260206000209160005b601f19851681106109645750926005949260019260a09583601f1981161061094b575b505050811b0160018501556107d2565b015160001960f88460031b161c1916905587808061093b565b91926020600181928685015181550194019201610918565b600185016000526020600020601f840160051c8101602085106109bc575b601f830160051c820181106109b057505061079a565b6000815560010161099a565b508061099a565b60405162461bcd60e51b815260206004820152601560248201527413595d1859185d1848155492481c995c5d5a5c9959605a1b6044820152606490fd5b60405162461bcd60e51b815260206004820152601860248201527f526f626f7420616c7265616479207265676973746572656400000000000000006044820152606490fd5b60405162461bcd60e51b8152602060048201526012602482015271496e73756666696369656e74207374616b6560701b6044820152606490fd5b3461010357602036600319011261010357600435806000526000602052610ab460018060a01b03604060002054163314611019565b80600052600060205260ff6004604060002001541615610b0e57806000526000602052600460406000200160ff1981541690557f1c0c02fc9591ecd77a1dc3f8f4032568f211500ed9840aa13137be74fb79bdcc600080a2005b60405162461bcd60e51b8152602060048201526016602482015275526f626f7420616c726561647920696e61637469766560501b6044820152606490fd5b3461010357602036600319011261010357610b65610e04565b6006546001600160a01b039190610b7f9083163314610fd8565b166001600160601b0360a01b6005541617600555600080f35b34610103576000366003190112610103576006546040516001600160a01b039091168152602090f35b3461010357602036600319011261010357610be760018060a01b03600654163314610fd8565b600435600355005b3461010357604036600319011261010357610c08610e04565b6001600160a01b03166000908152600160205260409020805460243591908210156101035760209161063e91610e67565b3461010357602036600319011261010357610c52610e04565b6006546001600160a01b039190610c6c9083163314610fd8565b166001600160601b0360a01b6004541617600455600080f35b34610103576000366003190112610103576020600354604051908152f35b34610103576000366003190112610103576005546040516001600160a01b039091168152602090f35b3461010357602090816003193601126101035760a081610ced600093610ef5565b828152606084820152826040820152826060820152826080820152015260043560005260008152604060002060405190610d2682610ef5565b80546001600160a01b03908116835292610d4260018301610f33565b9181840192835260028101549260408501938452610da560038301549160608701928352600560ff6004860154169460808901951515865201549460a08801958652604051988998828a525116908801525160c0604088015260e0870190610dc4565b9351606086015251608085015251151560a08401525160c08301520390f35b919082519283825260005b848110610df0575050826000602080949584010152601f8019910116010190565b602081830181015184830182015201610dcf565b600435906001600160a01b038216820361010357565b600254811015610e515760026000527f405787fa12a823e0f2b7631cc41b3ba8828b3321ca811111fa75cd3aa3bb5ace0190600090565b634e487b7160e01b600052603260045260246000fd5b8054821015610e515760005260206000200190600090565b602090602060408183019282815285518094520193019160005b828110610ea7575050505090565b835185529381019392810192600101610e99565b90600182811c92168015610eeb575b6020831014610ed557565b634e487b7160e01b600052602260045260246000fd5b91607f1691610eca565b60c0810190811067ffffffffffffffff8211176108e657604052565b90601f8019910116810190811067ffffffffffffffff8211176108e657604052565b90604051918260008254610f4681610ebb565b90818452602094600191600181169081600014610fb65750600114610f77575b505050610f7592500383610f11565b565b600090815285812095935091905b818310610f9e575050610f759350820101388080610f66565b85548884018501529485019487945091830191610f85565b92505050610f7594925060ff191682840152151560051b820101388080610f66565b15610fdf57565b60405162461bcd60e51b81526020600482015260126024820152712737ba1031b7b73a3930b1ba1037bbb732b960711b6044820152606490fd5b1561102057565b60405162461bcd60e51b815260206004820152600f60248201526e2737ba103937b137ba1037bbb732b960891b6044820152606490fd5b67ffffffffffffffff81116108e657601f01601f191660200190565b9190820391821161027557565b67ffffffffffffffff81116108e65760051b6020019056fea264697066735822122048afd462d9a68efc7a95ff9b01c533d3331ff8f3767a99ad31003d58b45eeb8e64736f6c63430008180033","opcodes":"PUSH1 0x80 DUP1 PUSH1 0x40 MSTORE CALLVALUE PUSH2 0x33 JUMPI PUSH7 0x2386F26FC10000 PUSH1 0x3 SSTORE PUSH1 0x6 DUP1 SLOAD PUSH1 0x1 PUSH1 0x1 PUSH1 0xA0 SHL SUB NOT AND CALLER OR SWAP1 SSTORE PUSH2 0x10CE SWAP1 DUP2 PUSH2 0x39 DUP3 CODECOPY RETURN JUMPDEST PUSH1 0x0 DUP1 REVERT INVALID PUSH1 0x80 DUP1 PUSH1 0x40 MSTORE PUSH1 0x4 CALLDATASIZE LT ISZERO PUSH2 0x13 JUMPI PUSH1 0x0 DUP1 REVERT JUMPDEST PUSH1 0x0 CALLDATALOAD PUSH1 0xE0 SHR SWAP1 DUP2 PUSH4 0xECDC674 EQ PUSH2 0xCCC JUMPI POP DUP1 PUSH4 0x2131C68C EQ PUSH2 0xCA3 JUMPI DUP1 PUSH4 0x375B3C0A EQ PUSH2 0xC85 JUMPI DUP1 PUSH4 0x4C69C00F EQ PUSH2 0xC39 JUMPI DUP1 PUSH4 0x7CEF9D5A EQ PUSH2 0xBEF JUMPI DUP1 PUSH4 0x8C80FD90 EQ PUSH2 0xBC1 JUMPI DUP1 PUSH4 0x8DA5CB5B EQ PUSH2 0xB98 JUMPI DUP1 PUSH4 0x965AFA89 EQ PUSH2 0xB4C JUMPI DUP1 PUSH4 0xA05C5A83 EQ PUSH2 0xA7F JUMPI DUP1 PUSH4 0xA1BBB498 EQ PUSH2 0x675 JUMPI DUP1 PUSH4 0xA89AE4BA EQ PUSH2 0x64C JUMPI DUP1 PUSH4 0xA9E685C5 EQ PUSH2 0x615 JUMPI DUP1 PUSH4 0xAE669947 EQ PUSH2 0x58F JUMPI DUP1 PUSH4 0xB95FF689 EQ PUSH2 0x3FD JUMPI DUP1 PUSH4 0xCF833061 EQ PUSH2 0x2C7 JUMPI DUP1 PUSH4 0xD989A311 EQ PUSH2 0x193 JUMPI DUP1 PUSH4 0xE569FB80 EQ PUSH2 0x108 JUMPI PUSH4 0xEF959ECD EQ PUSH2 0xE5 JUMPI PUSH1 0x0 DUP1 REVERT JUMPDEST CALLVALUE PUSH2 0x103 JUMPI PUSH1 0x0 CALLDATASIZE PUSH1 0x3 NOT ADD SLT PUSH2 0x103 JUMPI PUSH1 0x20 PUSH1 0x2 SLOAD PUSH1 0x40 MLOAD SWAP1 DUP2 MSTORE RETURN JUMPDEST PUSH1 0x0 DUP1 REVERT JUMPDEST CALLVALUE PUSH2 0x103 JUMPI PUSH1 0x20 CALLDATASIZE PUSH1 0x3 NOT ADD SLT PUSH2 0x103 JUMPI PUSH1 0x4 CALLDATALOAD PUSH1 0x0 SWAP1 DUP2 MSTORE PUSH1 0x20 DUP2 SWAP1 MSTORE PUSH1 0x40 SWAP1 KECCAK256 DUP1 SLOAD PUSH1 0x1 PUSH1 0x1 PUSH1 0xA0 SHL SUB AND PUSH2 0x141 PUSH1 0x1 DUP4 ADD PUSH2 0xF33 JUMP JUMPDEST SWAP2 PUSH1 0x2 DUP2 ADD SLOAD SWAP1 PUSH1 0x3 DUP2 ADD SLOAD SWAP1 PUSH1 0x5 PUSH1 0xFF PUSH1 0x4 DUP4 ADD SLOAD AND SWAP2 ADD SLOAD SWAP2 PUSH2 0x178 PUSH1 0x40 MLOAD SWAP7 DUP8 SWAP7 DUP8 MSTORE PUSH1 0xC0 PUSH1 0x20 DUP9 ADD MSTORE PUSH1 0xC0 DUP8 ADD SWAP1 PUSH2 0xDC4 JUMP JUMPDEST SWAP4 PUSH1 0x40 DUP7 ADD MSTORE PUSH1 0x60 DUP6 ADD MSTORE ISZERO ISZERO PUSH1 0x80 DUP5 ADD MSTORE PUSH1 0xA0 DUP4 ADD MSTORE SUB SWAP1 RETURN JUMPDEST CALLVALUE PUSH2 0x103 JUMPI PUSH1 0x40 CALLDATASIZE PUSH1 0x3 NOT ADD SLT PUSH2 0x103 JUMPI PUSH1 0x4 CALLDATALOAD PUSH1 0x24 SWAP1 PUSH1 0x2 SLOAD DUP1 DUP3 LT ISZERO PUSH2 0x28B JUMPI PUSH1 0x24 CALLDATALOAD DUP3 ADD SWAP1 DUP2 DUP4 GT PUSH2 0x275 JUMPI DUP1 DUP3 GT PUSH2 0x26D JUMPI JUMPDEST POP PUSH2 0x1D5 DUP3 DUP3 PUSH2 0x1073 JUMP JUMPDEST SWAP2 PUSH2 0x1F8 PUSH2 0x1E2 DUP5 PUSH2 0x1080 JUMP JUMPDEST SWAP4 PUSH2 0x1F0 PUSH1 0x40 MLOAD SWAP6 DUP7 PUSH2 0xF11 JUMP JUMPDEST DUP1 DUP6 MSTORE PUSH2 0x1080 JUMP JUMPDEST PUSH1 0x20 SWAP2 SWAP1 PUSH1 0x1F NOT ADD CALLDATASIZE DUP6 DUP5 ADD CALLDATACOPY DUP1 JUMPDEST DUP4 DUP2 LT PUSH2 0x220 JUMPI PUSH1 0x40 MLOAD DUP1 PUSH2 0x21C DUP8 DUP3 PUSH2 0xE7F JUMP JUMPDEST SUB SWAP1 RETURN JUMPDEST PUSH2 0x229 DUP2 PUSH2 0xE1A JUMP JUMPDEST SWAP2 SWAP1 SLOAD SWAP2 PUSH2 0x237 DUP5 DUP4 PUSH2 0x1073 JUMP JUMPDEST SWAP1 DUP8 MLOAD DUP3 LT ISZERO PUSH2 0x258 JUMPI PUSH1 0x1 SWAP4 DUP7 SWAP2 PUSH1 0x3 SHL SHR SWAP2 PUSH1 0x5 SHL DUP9 ADD ADD MSTORE ADD PUSH2 0x207 JUMP JUMPDEST DUP9 PUSH4 0x4E487B71 PUSH1 0xE0 SHL PUSH1 0x0 MSTORE PUSH1 0x32 PUSH1 0x4 MSTORE PUSH1 0x0 REVERT JUMPDEST SWAP1 POP DUP4 PUSH2 0x1CA JUMP JUMPDEST PUSH4 0x4E487B71 PUSH1 0xE0 SHL PUSH1 0x0 MSTORE PUSH1 0x11 PUSH1 0x4 MSTORE PUSH1 0x24 PUSH1 0x0 REVERT JUMPDEST PUSH1 0x40 MLOAD PUSH3 0x461BCD PUSH1 0xE5 SHL DUP2 MSTORE PUSH1 0x20 PUSH1 0x4 DUP3 ADD MSTORE PUSH1 0x14 PUSH1 0x24 DUP3 ADD MSTORE PUSH20 0x4F6666736574206F7574206F6620626F756E6473 PUSH1 0x60 SHL PUSH1 0x44 DUP3 ADD MSTORE PUSH1 0x64 SWAP1 REVERT JUMPDEST CALLVALUE PUSH2 0x103 JUMPI PUSH1 0x40 CALLDATASIZE PUSH1 0x3 NOT ADD SLT PUSH2 0x103 JUMPI PUSH1 0x4 CALLDATALOAD PUSH1 0x24 CALLDATALOAD PUSH1 0x1 DUP1 PUSH1 0xA0 SHL SUB DUP1 PUSH1 0x4 SLOAD AND CALLER EQ DUP1 ISZERO PUSH2 0x3F0 JUMPI JUMPDEST ISZERO PUSH2 0x3BA JUMPI DUP3 PUSH1 0x0 MSTORE PUSH1 0x0 PUSH1 0x20 MSTORE PUSH1 0x40 PUSH1 0x0 KECCAK256 SLOAD AND ISZERO PUSH2 0x37E JUMPI DUP2 PUSH1 0x0 MSTORE PUSH1 0x0 PUSH1 0x20 MSTORE PUSH1 0x2 PUSH1 0x40 PUSH1 0x0 KECCAK256 ADD DUP1 SLOAD SWAP2 DUP1 DUP4 ADD SWAP3 PUSH1 0x0 DUP3 DUP6 SLT SWAP2 SLT SWAP1 DUP1 ISZERO DUP3 AND SWAP2 ISZERO AND OR PUSH2 0x275 JUMPI PUSH32 0x3530D5670631EC51E7467B0E04A67072A8215C1E9B0AEF2F725DBF4D76560454 SWAP3 PUSH1 0x40 SWAP3 SSTORE DUP4 PUSH1 0x0 MSTORE PUSH1 0x0 PUSH1 0x20 MSTORE PUSH1 0x2 DUP3 PUSH1 0x0 KECCAK256 ADD SLOAD SWAP1 DUP3 MLOAD SWAP2 DUP3 MSTORE PUSH1 0x20 DUP3 ADD MSTORE LOG2 STOP JUMPDEST PUSH1 0x40 MLOAD PUSH3 0x461BCD PUSH1 0xE5 SHL DUP2 MSTORE PUSH1 0x20 PUSH1 0x4 DUP3 ADD MSTORE PUSH1 0x14 PUSH1 0x24 DUP3 ADD MSTORE PUSH20 0x149BD89BDD08191BD95CC81B9BDD08195E1A5CDD PUSH1 0x62 SHL PUSH1 0x44 DUP3 ADD MSTORE PUSH1 0x64 SWAP1 REVERT JUMPDEST PUSH1 0x40 MLOAD PUSH3 0x461BCD PUSH1 0xE5 SHL DUP2 MSTORE PUSH1 0x20 PUSH1 0x4 DUP3 ADD MSTORE PUSH1 0xE PUSH1 0x24 DUP3 ADD MSTORE PUSH14 0x139BDD08185D5D1A1BDC9A5E9959 PUSH1 0x92 SHL PUSH1 0x44 DUP3 ADD MSTORE PUSH1 0x64 SWAP1 REVERT JUMPDEST POP DUP1 PUSH1 0x5 SLOAD AND CALLER EQ PUSH2 0x2F3 JUMP JUMPDEST CALLVALUE PUSH2 0x103 JUMPI PUSH1 0x20 DUP1 PUSH1 0x3 NOT CALLDATASIZE ADD SLT PUSH2 0x103 JUMPI PUSH1 0x4 CALLDATALOAD DUP1 PUSH1 0x0 MSTORE PUSH1 0x0 DUP3 MSTORE PUSH2 0x432 PUSH1 0x1 DUP1 PUSH1 0xA0 SHL SUB PUSH1 0x40 PUSH1 0x0 KECCAK256 SLOAD AND CALLER EQ PUSH2 0x1019 JUMP JUMPDEST DUP1 PUSH1 0x0 MSTORE PUSH1 0x0 DUP3 MSTORE PUSH1 0xFF PUSH1 0x4 PUSH1 0x40 PUSH1 0x0 KECCAK256 ADD SLOAD AND PUSH2 0x551 JUMPI DUP1 PUSH1 0x0 MSTORE PUSH1 0x0 DUP3 MSTORE PUSH1 0x3 PUSH1 0x40 PUSH1 0x0 KECCAK256 ADD SLOAD ISZERO PUSH2 0x515 JUMPI DUP1 PUSH1 0x0 MSTORE PUSH1 0x0 DUP3 MSTORE PUSH1 0x3 PUSH1 0x40 PUSH1 0x0 KECCAK256 ADD SWAP2 PUSH1 0x0 DUP4 SLOAD SWAP4 SSTORE PUSH1 0x0 DUP1 DUP1 DUP1 DUP7 CALLER GAS CALL RETURNDATASIZE ISZERO PUSH2 0x510 JUMPI RETURNDATASIZE PUSH2 0x490 DUP2 PUSH2 0x1057 JUMP JUMPDEST SWAP1 PUSH2 0x49E PUSH1 0x40 MLOAD SWAP3 DUP4 PUSH2 0xF11 JUMP JUMPDEST DUP2 MSTORE PUSH1 0x0 DUP4 RETURNDATASIZE SWAP3 ADD RETURNDATACOPY JUMPDEST ISZERO PUSH2 0x4DA JUMPI PUSH32 0x11269C9885F555C7ABC6754B6E48BA590F3653354FC22E80D9F1A3DA407D139D SWAP1 PUSH1 0x40 MLOAD SWAP4 DUP5 MSTORE CALLER SWAP4 LOG3 STOP JUMPDEST PUSH1 0x64 SWAP1 PUSH1 0x40 MLOAD SWAP1 PUSH3 0x461BCD PUSH1 0xE5 SHL DUP3 MSTORE PUSH1 0x4 DUP3 ADD MSTORE PUSH1 0xF PUSH1 0x24 DUP3 ADD MSTORE PUSH15 0x151C985B9CD9995C8819985A5B1959 PUSH1 0x8A SHL PUSH1 0x44 DUP3 ADD MSTORE REVERT JUMPDEST PUSH2 0x4A8 JUMP JUMPDEST PUSH1 0x40 MLOAD PUSH3 0x461BCD PUSH1 0xE5 SHL DUP2 MSTORE PUSH1 0x4 DUP2 ADD DUP4 SWAP1 MSTORE PUSH1 0x14 PUSH1 0x24 DUP3 ADD MSTORE PUSH20 0x4E6F207374616B6520746F207769746864726177 PUSH1 0x60 SHL PUSH1 0x44 DUP3 ADD MSTORE PUSH1 0x64 SWAP1 REVERT JUMPDEST PUSH1 0x40 MLOAD PUSH3 0x461BCD PUSH1 0xE5 SHL DUP2 MSTORE PUSH1 0x4 DUP2 ADD DUP4 SWAP1 MSTORE PUSH1 0x16 PUSH1 0x24 DUP3 ADD MSTORE PUSH22 0x526F626F74206D75737420626520696E616374697665 PUSH1 0x50 SHL PUSH1 0x44 DUP3 ADD MSTORE PUSH1 0x64 SWAP1 REVERT JUMPDEST CALLVALUE PUSH2 0x103 JUMPI PUSH1 0x20 DUP1 PUSH1 0x3 NOT CALLDATASIZE ADD SLT PUSH2 0x103 JUMPI PUSH1 0x1 PUSH1 0x1 PUSH1 0xA0 SHL SUB PUSH2 0x5B1 PUSH2 0xE04 JUMP JUMPDEST AND PUSH1 0x0 MSTORE PUSH1 0x1 DUP1 PUSH1 0x20 MSTORE PUSH1 0x40 PUSH1 0x0 KECCAK256 SWAP2 PUSH1 0x40 MLOAD SWAP2 DUP3 PUSH1 0x20 DUP6 SLOAD SWAP2 DUP3 DUP2 MSTORE ADD SWAP5 PUSH1 0x0 MSTORE PUSH1 0x20 PUSH1 0x0 KECCAK256 SWAP3 PUSH1 0x0 SWAP1 JUMPDEST DUP3 DUP3 LT PUSH2 0x600 JUMPI PUSH2 0x21C DUP7 PUSH2 0x5F4 DUP2 DUP11 SUB DUP3 PUSH2 0xF11 JUMP JUMPDEST PUSH1 0x40 MLOAD SWAP2 DUP3 SWAP2 DUP3 PUSH2 0xE7F JUMP JUMPDEST DUP5 SLOAD DUP8 MSTORE SWAP6 DUP7 ADD SWAP6 SWAP4 DUP4 ADD SWAP4 SWAP1 DUP4 ADD SWAP1 PUSH2 0x5DD JUMP JUMPDEST CALLVALUE PUSH2 0x103 JUMPI PUSH1 0x20 CALLDATASIZE PUSH1 0x3 NOT ADD SLT PUSH2 0x103 JUMPI PUSH1 0x4 CALLDATALOAD PUSH1 0x2 SLOAD DUP2 LT ISZERO PUSH2 0x103 JUMPI PUSH2 0x63E PUSH1 0x20 SWAP2 PUSH2 0xE1A JUMP JUMPDEST SWAP1 SLOAD PUSH1 0x40 MLOAD SWAP2 PUSH1 0x3 SHL SHR DUP2 MSTORE RETURN JUMPDEST CALLVALUE PUSH2 0x103 JUMPI PUSH1 0x0 CALLDATASIZE PUSH1 0x3 NOT ADD SLT PUSH2 0x103 JUMPI PUSH1 0x4 SLOAD PUSH1 0x40 MLOAD PUSH1 0x1 PUSH1 0x1 PUSH1 0xA0 SHL SUB SWAP1 SWAP2 AND DUP2 MSTORE PUSH1 0x20 SWAP1 RETURN JUMPDEST PUSH1 0x40 CALLDATASIZE PUSH1 0x3 NOT ADD SLT PUSH2 0x103 JUMPI PUSH1 0x24 CALLDATALOAD PUSH8 0xFFFFFFFFFFFFFFFF DUP1 DUP3 GT PUSH2 0x103 JUMPI CALLDATASIZE PUSH1 0x23 DUP4 ADD SLT ISZERO PUSH2 0x103 JUMPI DUP1 DUP3 PUSH1 0x4 ADD CALLDATALOAD GT PUSH2 0x103 JUMPI CALLDATASIZE PUSH1 0x24 DUP4 PUSH1 0x4 ADD CALLDATALOAD DUP5 ADD ADD GT PUSH2 0x103 JUMPI PUSH1 0x3 SLOAD CALLVALUE LT PUSH2 0xA45 JUMPI PUSH1 0x4 CALLDATALOAD PUSH1 0x0 MSTORE PUSH1 0x0 PUSH1 0x20 MSTORE PUSH1 0x1 DUP1 PUSH1 0xA0 SHL SUB SWAP1 DUP2 PUSH1 0x40 PUSH1 0x0 KECCAK256 SLOAD AND PUSH2 0xA00 JUMPI DUP3 PUSH1 0x4 ADD CALLDATALOAD ISZERO PUSH2 0x9C3 JUMPI PUSH1 0x40 MLOAD SWAP1 PUSH2 0x6F9 DUP3 PUSH2 0xEF5 JUMP JUMPDEST CALLER DUP3 MSTORE PUSH2 0x709 DUP5 PUSH1 0x4 ADD CALLDATALOAD PUSH2 0x1057 JUMP JUMPDEST PUSH2 0x716 PUSH1 0x40 MLOAD SWAP2 DUP3 PUSH2 0xF11 JUMP JUMPDEST PUSH1 0x4 DUP6 ADD CALLDATALOAD DUP1 DUP3 MSTORE PUSH1 0x24 DUP7 ADD PUSH1 0x20 DUP4 ADD CALLDATACOPY PUSH1 0x0 PUSH1 0x20 DUP7 PUSH1 0x4 ADD CALLDATALOAD DUP4 ADD ADD MSTORE PUSH1 0x20 DUP4 ADD SWAP1 DUP2 MSTORE PUSH1 0x64 PUSH1 0x40 DUP5 ADD MSTORE CALLVALUE PUSH1 0x60 DUP5 ADD MSTORE PUSH1 0x1 PUSH1 0x80 DUP5 ADD MSTORE TIMESTAMP PUSH1 0xA0 DUP5 ADD MSTORE PUSH1 0x4 CALLDATALOAD PUSH1 0x0 MSTORE PUSH1 0x0 PUSH1 0x20 MSTORE PUSH1 0x40 PUSH1 0x0 KECCAK256 SWAP4 DUP4 MLOAD AND PUSH1 0x1 PUSH1 0x1 PUSH1 0x60 SHL SUB PUSH1 0xA0 SHL DUP6 SLOAD AND OR DUP5 SSTORE MLOAD DUP1 MLOAD SWAP2 DUP3 GT PUSH2 0x8E6 JUMPI PUSH2 0x791 PUSH1 0x1 DUP6 ADD SLOAD PUSH2 0xEBB JUMP JUMPDEST PUSH1 0x1F DUP2 GT PUSH2 0x97C JUMPI JUMPDEST POP PUSH1 0x20 SWAP1 PUSH1 0x1F DUP4 GT PUSH1 0x1 EQ PUSH2 0x907 JUMPI SWAP2 DUP1 PUSH1 0x5 SWAP5 SWAP3 PUSH1 0xA0 SWAP5 PUSH1 0x0 SWAP3 PUSH2 0x8FC JUMPI JUMPDEST POP POP DUP2 PUSH1 0x1 SHL SWAP2 PUSH1 0x0 NOT SWAP1 PUSH1 0x3 SHL SHR NOT AND OR PUSH1 0x1 DUP6 ADD SSTORE JUMPDEST PUSH1 0x40 DUP2 ADD MLOAD PUSH1 0x2 DUP6 ADD SSTORE PUSH1 0x60 DUP2 ADD MLOAD PUSH1 0x3 DUP6 ADD SSTORE PUSH1 0x4 DUP5 ADD PUSH1 0x80 DUP3 ADD MLOAD ISZERO ISZERO PUSH1 0xFF DUP1 NOT DUP4 SLOAD AND SWAP2 AND OR SWAP1 SSTORE ADD MLOAD SWAP2 ADD SSTORE CALLER PUSH1 0x0 MSTORE PUSH1 0x1 PUSH1 0x20 MSTORE PUSH1 0x40 PUSH1 0x0 KECCAK256 DUP1 SLOAD PUSH9 0x10000000000000000 SWAP2 DUP3 DUP3 LT ISZERO PUSH2 0x8E6 JUMPI DUP2 PUSH2 0x838 SWAP2 PUSH1 0x1 PUSH2 0x854 SWAP5 ADD DUP2 SSTORE PUSH2 0xE67 JUMP JUMPDEST PUSH1 0x4 SWAP3 SWAP2 SWAP3 CALLDATALOAD SWAP1 DUP4 SLOAD SWAP1 PUSH1 0x3 SHL SWAP2 DUP3 SHL SWAP2 PUSH1 0x0 NOT SWAP1 SHL NOT AND OR SWAP1 JUMP JUMPDEST SWAP1 SSTORE PUSH1 0x2 SLOAD SWAP1 DUP2 LT ISZERO PUSH2 0x8E6 JUMPI PUSH2 0x838 DUP2 PUSH1 0x1 PUSH2 0x874 SWAP4 ADD PUSH1 0x2 SSTORE PUSH2 0xE1A JUMP JUMPDEST SWAP1 SSTORE PUSH1 0x40 MLOAD SWAP1 PUSH1 0x40 DUP3 MSTORE DUP1 PUSH1 0x4 ADD CALLDATALOAD PUSH1 0x40 DUP4 ADD MSTORE DUP1 PUSH1 0x4 ADD CALLDATALOAD PUSH1 0x24 DUP3 ADD PUSH1 0x60 DUP5 ADD CALLDATACOPY PUSH1 0x0 PUSH1 0x60 DUP3 PUSH1 0x4 ADD CALLDATALOAD DUP5 ADD ADD MSTORE CALLVALUE PUSH1 0x20 DUP4 ADD MSTORE PUSH32 0x9958BA5D928CE99F9A19C5993E72B5E2D8972512643EB3067BD47205DF7E95B0 CALLER SWAP3 PUSH1 0x60 DUP2 PUSH1 0x4 CALLDATALOAD SWAP5 PUSH1 0x1F DUP1 NOT SWAP2 PUSH1 0x4 ADD CALLDATALOAD ADD AND DUP2 ADD SUB ADD SWAP1 LOG3 STOP JUMPDEST PUSH4 0x4E487B71 PUSH1 0xE0 SHL PUSH1 0x0 MSTORE PUSH1 0x41 PUSH1 0x4 MSTORE PUSH1 0x24 PUSH1 0x0 REVERT JUMPDEST ADD MLOAD SWAP1 POP DUP8 DUP1 PUSH2 0x7BA JUMP JUMPDEST SWAP1 PUSH1 0x1 DUP6 ADD PUSH1 0x0 MSTORE PUSH1 0x20 PUSH1 0x0 KECCAK256 SWAP2 PUSH1 0x0 JUMPDEST PUSH1 0x1F NOT DUP6 AND DUP2 LT PUSH2 0x964 JUMPI POP SWAP3 PUSH1 0x5 SWAP5 SWAP3 PUSH1 0x1 SWAP3 PUSH1 0xA0 SWAP6 DUP4 PUSH1 0x1F NOT DUP2 AND LT PUSH2 0x94B JUMPI JUMPDEST POP POP POP DUP2 SHL ADD PUSH1 0x1 DUP6 ADD SSTORE PUSH2 0x7D2 JUMP JUMPDEST ADD MLOAD PUSH1 0x0 NOT PUSH1 0xF8 DUP5 PUSH1 0x3 SHL AND SHR NOT AND SWAP1 SSTORE DUP8 DUP1 DUP1 PUSH2 0x93B JUMP JUMPDEST SWAP2 SWAP3 PUSH1 0x20 PUSH1 0x1 DUP2 SWAP3 DUP7 DUP6 ADD MLOAD DUP2 SSTORE ADD SWAP5 ADD SWAP3 ADD PUSH2 0x918 JUMP JUMPDEST PUSH1 0x1 DUP6 ADD PUSH1 0x0 MSTORE PUSH1 0x20 PUSH1 0x0 KECCAK256 PUSH1 0x1F DUP5 ADD PUSH1 0x5 SHR DUP2 ADD PUSH1 0x20 DUP6 LT PUSH2 0x9BC JUMPI JUMPDEST PUSH1 0x1F DUP4 ADD PUSH1 0x5 SHR DUP3 ADD DUP2 LT PUSH2 0x9B0 JUMPI POP POP PUSH2 0x79A JUMP JUMPDEST PUSH1 0x0 DUP2 SSTORE PUSH1 0x1 ADD PUSH2 0x99A JUMP JUMPDEST POP DUP1 PUSH2 0x99A JUMP JUMPDEST PUSH1 0x40 MLOAD PUSH3 0x461BCD PUSH1 0xE5 SHL DUP2 MSTORE PUSH1 0x20 PUSH1 0x4 DUP3 ADD MSTORE PUSH1 0x15 PUSH1 0x24 DUP3 ADD MSTORE PUSH21 0x13595D1859185D1848155492481C995C5D5A5C9959 PUSH1 0x5A SHL PUSH1 0x44 DUP3 ADD MSTORE PUSH1 0x64 SWAP1 REVERT JUMPDEST PUSH1 0x40 MLOAD PUSH3 0x461BCD PUSH1 0xE5 SHL DUP2 MSTORE PUSH1 0x20 PUSH1 0x4 DUP3 ADD MSTORE PUSH1 0x18 PUSH1 0x24 DUP3 ADD MSTORE PUSH32 0x526F626F7420616C726561647920726567697374657265640000000000000000 PUSH1 0x44 DUP3 ADD MSTORE PUSH1 0x64 SWAP1 REVERT JUMPDEST PUSH1 0x40 MLOAD PUSH3 0x461BCD PUSH1 0xE5 SHL DUP2 MSTORE PUSH1 0x20 PUSH1 0x4 DUP3 ADD MSTORE PUSH1 0x12 PUSH1 0x24 DUP3 ADD MSTORE PUSH18 0x496E73756666696369656E74207374616B65 PUSH1 0x70 SHL PUSH1 0x44 DUP3 ADD MSTORE PUSH1 0x64 SWAP1 REVERT JUMPDEST CALLVALUE PUSH2 0x103 JUMPI PUSH1 0x20 CALLDATASIZE PUSH1 0x3 NOT ADD SLT PUSH2 0x103 JUMPI PUSH1 0x4 CALLDATALOAD DUP1 PUSH1 0x0 MSTORE PUSH1 0x0 PUSH1 0x20 MSTORE PUSH2 0xAB4 PUSH1 0x1 DUP1 PUSH1 0xA0 SHL SUB PUSH1 0x40 PUSH1 0x0 KECCAK256 SLOAD AND CALLER EQ PUSH2 0x1019 JUMP JUMPDEST DUP1 PUSH1 0x0 MSTORE PUSH1 0x0 PUSH1 0x20 MSTORE PUSH1 0xFF PUSH1 0x4 PUSH1 0x40 PUSH1 0x0 KECCAK256 ADD SLOAD AND ISZERO PUSH2 0xB0E JUMPI DUP1 PUSH1 0x0 MSTORE PUSH1 0x0 PUSH1 0x20 MSTORE PUSH1 0x4 PUSH1 0x40 PUSH1 0x0 KECCAK256 ADD PUSH1 0xFF NOT DUP2 SLOAD AND SWAP1 SSTORE PUSH32 0x1C0C02FC9591ECD77A1DC3F8F4032568F211500ED9840AA13137BE74FB79BDCC PUSH1 0x0 DUP1 LOG2 STOP JUMPDEST PUSH1 0x40 MLOAD PUSH3 0x461BCD PUSH1 0xE5 SHL DUP2 MSTORE PUSH1 0x20 PUSH1 0x4 DUP3 ADD MSTORE PUSH1 0x16 PUSH1 0x24 DUP3 ADD MSTORE PUSH22 0x526F626F7420616C726561647920696E616374697665 PUSH1 0x50 SHL PUSH1 0x44 DUP3 ADD MSTORE PUSH1 0x64 SWAP1 REVERT JUMPDEST CALLVALUE PUSH2 0x103 JUMPI PUSH1 0x20 CALLDATASIZE PUSH1 0x3 NOT ADD SLT PUSH2 0x103 JUMPI PUSH2 0xB65 PUSH2 0xE04 JUMP JUMPDEST PUSH1 0x6 SLOAD PUSH1 0x1 PUSH1 0x1 PUSH1 0xA0 SHL SUB SWAP2 SWAP1 PUSH2 0xB7F SWAP1 DUP4 AND CALLER EQ PUSH2 0xFD8 JUMP JUMPDEST AND PUSH1 0x1 PUSH1 0x1 PUSH1 0x60 SHL SUB PUSH1 0xA0 SHL PUSH1 0x5 SLOAD AND OR PUSH1 0x5 SSTORE PUSH1 0x0 DUP1 RETURN JUMPDEST CALLVALUE PUSH2 0x103 JUMPI PUSH1 0x0 CALLDATASIZE PUSH1 0x3 NOT ADD SLT PUSH2 0x103 JUMPI PUSH1 0x6 SLOAD PUSH1 0x40 MLOAD PUSH1 0x1 PUSH1 0x1 PUSH1 0xA0 SHL SUB SWAP1 SWAP2 AND DUP2 MSTORE PUSH1 0x20 SWAP1 RETURN JUMPDEST CALLVALUE PUSH2 0x103 JUMPI PUSH1 0x20 CALLDATASIZE PUSH1 0x3 NOT ADD SLT PUSH2 0x103 JUMPI PUSH2 0xBE7 PUSH1 0x1 DUP1 PUSH1 0xA0 SHL SUB PUSH1 0x6 SLOAD AND CALLER EQ PUSH2 0xFD8 JUMP JUMPDEST PUSH1 0x4 CALLDATALOAD PUSH1 0x3 SSTORE STOP JUMPDEST CALLVALUE PUSH2 0x103 JUMPI PUSH1 0x40 CALLDATASIZE PUSH1 0x3 NOT ADD SLT PUSH2 0x103 JUMPI PUSH2 0xC08 PUSH2 0xE04 JUMP JUMPDEST PUSH1 0x1 PUSH1 0x1 PUSH1 0xA0 SHL SUB AND PUSH1 0x0 SWAP1 DUP2 MSTORE PUSH1 0x1 PUSH1 0x20 MSTORE PUSH1 0x40 SWAP1 KECCAK256 DUP1 SLOAD PUSH1 0x24 CALLDATALOAD SWAP2 SWAP1 DUP3 LT ISZERO PUSH2 0x103 JUMPI PUSH1 0x20 SWAP2 PUSH2 0x63E SWAP2 PUSH2 0xE67 JUMP JUMPDEST CALLVALUE PUSH2 0x103 JUMPI PUSH1 0x20 CALLDATASIZE PUSH1 0x3 NOT ADD SLT PUSH2 0x103 JUMPI PUSH2 0xC52 PUSH2 0xE04 JUMP JUMPDEST PUSH1 0x6 SLOAD PUSH1 0x1 PUSH1 0x1 PUSH1 0xA0 SHL SUB SWAP2 SWAP1 PUSH2 0xC6C SWAP1 DUP4 AND CALLER EQ PUSH2 0xFD8 JUMP JUMPDEST AND PUSH1 0x1 PUSH1 0x1 PUSH1 0x60 SHL SUB PUSH1 0xA0 SHL PUSH1 0x4 SLOAD AND OR PUSH1 0x4 SSTORE PUSH1 0x0 DUP1 RETURN JUMPDEST CALLVALUE PUSH2 0x103 JUMPI PUSH1 0x0 CALLDATASIZE PUSH1 0x3 NOT ADD SLT PUSH2 0x103 JUMPI PUSH1 0x20 PUSH1 0x3 SLOAD PUSH1 0x40 MLOAD SWAP1 DUP2 MSTORE RETURN JUMPDEST CALLVALUE PUSH2 0x103 JUMPI PUSH1 0x0 CALLDATASIZE PUSH1 0x3 NOT ADD SLT PUSH2 0x103 JUMPI PUSH1 0x5 SLOAD PUSH1 0x40 MLOAD PUSH1 0x1 PUSH1 0x1 PUSH1 0xA0 SHL SUB SWAP1 SWAP2 AND DUP2 MSTORE PUSH1 0x20 SWAP1 RETURN JUMPDEST CALLVALUE PUSH2 0x103 JUMPI PUSH1 0x20 SWAP1 DUP2 PUSH1 0x3 NOT CALLDATASIZE ADD SLT PUSH2 0x103 JUMPI PUSH1 0xA0 DUP2 PUSH2 0xCED PUSH1 0x0 SWAP4 PUSH2 0xEF5 JUMP JUMPDEST DUP3 DUP2 MSTORE PUSH1 0x60 DUP5 DUP3 ADD MSTORE DUP3 PUSH1 0x40 DUP3 ADD MSTORE DUP3 PUSH1 0x60 DUP3 ADD MSTORE DUP3 PUSH1 0x80 DUP3 ADD MSTORE ADD MSTORE PUSH1 0x4 CALLDATALOAD PUSH1 0x0 MSTORE PUSH1 0x0 DUP2 MSTORE PUSH1 0x40 PUSH1 0x0 KECCAK256 PUSH1 0x40 MLOAD SWAP1 PUSH2 0xD26 DUP3 PUSH2 0xEF5 JUMP JUMPDEST DUP1 SLOAD PUSH1 0x1 PUSH1 0x1 PUSH1 0xA0 SHL SUB SWAP1 DUP2 AND DUP4 MSTORE SWAP3 PUSH2 0xD42 PUSH1 0x1 DUP4 ADD PUSH2 0xF33 JUMP JUMPDEST SWAP2 DUP2 DUP5 ADD SWAP3 DUP4 MSTORE PUSH1 0x2 DUP2 ADD SLOAD SWAP3 PUSH1 0x40 DUP6 ADD SWAP4 DUP5 MSTORE PUSH2 0xDA5 PUSH1 0x3 DUP4 ADD SLOAD SWAP2 PUSH1 0x60 DUP8 ADD SWAP3 DUP4 MSTORE PUSH1 0x5 PUSH1 0xFF PUSH1 0x4 DUP7 ADD SLOAD AND SWAP5 PUSH1 0x80 DUP10 ADD SWAP6 ISZERO ISZERO DUP7 MSTORE ADD SLOAD SWAP5 PUSH1 0xA0 DUP9 ADD SWAP6 DUP7 MSTORE PUSH1 0x40 MLOAD SWAP9 DUP10 SWAP9 DUP3 DUP11 MSTORE MLOAD AND SWAP1 DUP9 ADD MSTORE MLOAD PUSH1 0xC0 PUSH1 0x40 DUP9 ADD MSTORE PUSH1 0xE0 DUP8 ADD SWAP1 PUSH2 0xDC4 JUMP JUMPDEST SWAP4 MLOAD PUSH1 0x60 DUP7 ADD MSTORE MLOAD PUSH1 0x80 DUP6 ADD MSTORE MLOAD ISZERO ISZERO PUSH1 0xA0 DUP5 ADD MSTORE MLOAD PUSH1 0xC0 DUP4 ADD MSTORE SUB SWAP1 RETURN JUMPDEST SWAP2 SWAP1 DUP3 MLOAD SWAP3 DUP4 DUP3 MSTORE PUSH1 0x0 JUMPDEST DUP5 DUP2 LT PUSH2 0xDF0 JUMPI POP POP DUP3 PUSH1 0x0 PUSH1 0x20 DUP1 SWAP5 SWAP6 DUP5 ADD ADD MSTORE PUSH1 0x1F DUP1 NOT SWAP2 ADD AND ADD ADD SWAP1 JUMP JUMPDEST PUSH1 0x20 DUP2 DUP4 ADD DUP2 ADD MLOAD DUP5 DUP4 ADD DUP3 ADD MSTORE ADD PUSH2 0xDCF JUMP JUMPDEST PUSH1 0x4 CALLDATALOAD SWAP1 PUSH1 0x1 PUSH1 0x1 PUSH1 0xA0 SHL SUB DUP3 AND DUP3 SUB PUSH2 0x103 JUMPI JUMP JUMPDEST PUSH1 0x2 SLOAD DUP2 LT ISZERO PUSH2 0xE51 JUMPI PUSH1 0x2 PUSH1 0x0 MSTORE PUSH32 0x405787FA12A823E0F2B7631CC41B3BA8828B3321CA811111FA75CD3AA3BB5ACE ADD SWAP1 PUSH1 0x0 SWAP1 JUMP JUMPDEST PUSH4 0x4E487B71 PUSH1 0xE0 SHL PUSH1 0x0 MSTORE PUSH1 0x32 PUSH1 0x4 MSTORE PUSH1 0x24 PUSH1 0x0 REVERT JUMPDEST DUP1 SLOAD DUP3 LT ISZERO PUSH2 0xE51 JUMPI PUSH1 0x0 MSTORE PUSH1 0x20 PUSH1 0x0 KECCAK256 ADD SWAP1 PUSH1 0x0 SWAP1 JUMP JUMPDEST PUSH1 0x20 SWAP1 PUSH1 0x20 PUSH1 0x40 DUP2 DUP4 ADD SWAP3 DUP3 DUP2 MSTORE DUP6 MLOAD DUP1 SWAP5 MSTORE ADD SWAP4 ADD SWAP2 PUSH1 0x0 JUMPDEST DUP3 DUP2 LT PUSH2 0xEA7 JUMPI POP POP POP POP SWAP1 JUMP JUMPDEST DUP4 MLOAD DUP6 MSTORE SWAP4 DUP2 ADD SWAP4 SWAP3 DUP2 ADD SWAP3 PUSH1 0x1 ADD PUSH2 0xE99 JUMP JUMPDEST SWAP1 PUSH1 0x1 DUP3 DUP2 SHR SWAP3 AND DUP1 ISZERO PUSH2 0xEEB JUMPI JUMPDEST PUSH1 0x20 DUP4 LT EQ PUSH2 0xED5 JUMPI JUMP JUMPDEST PUSH4 0x4E487B71 PUSH1 0xE0 SHL PUSH1 0x0 MSTORE PUSH1 0x22 PUSH1 0x4 MSTORE PUSH1 0x24 PUSH1 0x0 REVERT JUMPDEST SWAP2 PUSH1 0x7F AND SWAP2 PUSH2 0xECA JUMP JUMPDEST PUSH1 0xC0 DUP2 ADD SWAP1 DUP2 LT PUSH8 0xFFFFFFFFFFFFFFFF DUP3 GT OR PUSH2 0x8E6 JUMPI PUSH1 0x40 MSTORE JUMP JUMPDEST SWAP1 PUSH1 0x1F DUP1 NOT SWAP2 ADD AND DUP2 ADD SWAP1 DUP2 LT PUSH8 0xFFFFFFFFFFFFFFFF DUP3 GT OR PUSH2 0x8E6 JUMPI PUSH1 0x40 MSTORE JUMP JUMPDEST SWAP1 PUSH1 0x40 MLOAD SWAP2 DUP3 PUSH1 0x0 DUP3 SLOAD PUSH2 0xF46 DUP2 PUSH2 0xEBB JUMP JUMPDEST SWAP1 DUP2 DUP5 MSTORE PUSH1 0x20 SWAP5 PUSH1 0x1 SWAP2 PUSH1 0x1 DUP2 AND SWAP1 DUP2 PUSH1 0x0 EQ PUSH2 0xFB6 JUMPI POP PUSH1 0x1 EQ PUSH2 0xF77 JUMPI JUMPDEST POP POP POP PUSH2 0xF75 SWAP3 POP SUB DUP4 PUSH2 0xF11 JUMP JUMPDEST JUMP JUMPDEST PUSH1 0x0 SWAP1 DUP2 MSTORE DUP6 DUP2 KECCAK256 SWAP6 SWAP4 POP SWAP2 SWAP1 JUMPDEST DUP2 DUP4 LT PUSH2 0xF9E JUMPI POP POP PUSH2 0xF75 SWAP4 POP DUP3 ADD ADD CODESIZE DUP1 DUP1 PUSH2 0xF66 JUMP JUMPDEST DUP6 SLOAD DUP9 DUP5 ADD DUP6 ADD MSTORE SWAP5 DUP6 ADD SWAP5 DUP8 SWAP5 POP SWAP2 DUP4 ADD SWAP2 PUSH2 0xF85 JUMP JUMPDEST SWAP3 POP POP POP PUSH2 0xF75 SWAP5 SWAP3 POP PUSH1 0xFF NOT AND DUP3 DUP5 ADD MSTORE ISZERO ISZERO PUSH1 0x5 SHL DUP3 ADD ADD CODESIZE DUP1 DUP1 PUSH2 0xF66 JUMP JUMPDEST ISZERO PUSH2 0xFDF JUMPI JUMP JUMPDEST PUSH1 0x40 MLOAD PUSH3 0x461BCD PUSH1 0xE5 SHL DUP2 MSTORE PUSH1 0x20 PUSH1 0x4 DUP3 ADD MSTORE PUSH1 0x12 PUSH1 0x24 DUP3 ADD MSTORE PUSH18 0x2737BA1031B7B73A3930B1BA1037BBB732B9 PUSH1 0x71 SHL PUSH1 0x44 DUP3 ADD MSTORE PUSH1 0x64 SWAP1 REVERT JUMPDEST ISZERO PUSH2 0x1020 JUMPI JUMP JUMPDEST PUSH1 0x40 MLOAD PUSH3 0x461BCD PUSH1 0xE5 SHL DUP2 MSTORE PUSH1 0x20 PUSH1 0x4 DUP3 ADD MSTORE PUSH1 0xF PUSH1 0x24 DUP3 ADD MSTORE PUSH15 0x2737BA103937B137BA1037BBB732B9 PUSH1 0x89 SHL PUSH1 0x44 DUP3 ADD MSTORE PUSH1 0x64 SWAP1 REVERT JUMPDEST PUSH8 0xFFFFFFFFFFFFFFFF DUP2 GT PUSH2 0x8E6 JUMPI PUSH1 0x1F ADD PUSH1 0x1F NOT AND PUSH1 0x20 ADD SWAP1 JUMP JUMPDEST SWAP2 SWAP1 DUP3 SUB SWAP2 DUP3 GT PUSH2 0x275 JUMPI JUMP JUMPDEST PUSH8 0xFFFFFFFFFFFFFFFF DUP2 GT PUSH2 0x8E6 JUMPI PUSH1 0x5 SHL PUSH1 0x20 ADD SWAP1 JUMP INVALID LOG2 PUSH5 0x6970667358 0x22 SLT KECCAK256 BASEFEE 0xAF 0xD4 PUSH3 0xD9A68E 0xFC PUSH27 0x95FF9B01C533D3331FF8F3767A99AD31003D58B45EEB8E64736F6C PUSH4 0x43000818 STOP CALLER "},"methodIdentifiers":{"adjustReputation(bytes32,int256)":"cf833061","allRobotIds(uint256)":"a9e685c5","daoAddress()":"2131c68c","deactivateRobot(bytes32)":"a05c5a83","getAllRobots(uint256,uint256)":"d989a311","getRobot(bytes32)":"0ecdc674","getRobotsByOwner(address)":"ae669947","getTotalRobots()":"ef959ecd","minStake()":"375b3c0a","oracleAddress()":"a89ae4ba","owner()":"8da5cb5b","ownerRobots(address,uint256)":"7cef9d5a","registerRobot(bytes32,string)":"a1bbb498","robots(bytes32)":"e569fb80","setDAOAddress(address)":"965afa89","setMinStake(uint256)":"8c80fd90","setOracleAddress(address)":"4c69c00f","withdrawStake(bytes32)":"b95ff689"}}}}}