{"contracts/TaskMarket.sol":{"TaskMarket":{"abi":[{"inputs":[],"stateMutability":"nonpayable","type":"constructor"},{"anonymous":false,"inputs":[{"indexed":true,"internalType":"bytes32","name":"taskId","type":"bytes32"},{"indexed":true,"internalType":"address","name":"redeemer","type":"address"},{"indexed":false,"internalType":"uint256","name":"payout","type":"uint256"}],"name":"PositionRedeemed","type":"event"},{"anonymous":false,"inputs":[{"indexed":true,"internalType":"bytes32","name":"taskId","type":"bytes32"},{"indexed":true,"internalType":"address","name":"buyer","type":"address"},{"indexed":false,"internalType":"bool","name":"isYes","type":"bool"},{"indexed":false,"internalType":"uint256","name":"shares","type":"uint256"},{"indexed":false,"internalType":"uint256","name":"cost","type":"uint256"}],"name":"SharesPurchased","type":"event"},{"anonymous":false,"inputs":[{"indexed":true,"internalType":"bytes32","name":"taskId","type":"bytes32"},{"indexed":true,"internalType":"bytes32","name":"robotId","type":"bytes32"},{"indexed":true,"internalType":"address","name":"creator","type":"address"},{"indexed":false,"internalType":"uint256","name":"deadline","type":"uint256"}],"name":"TaskCreated","type":"event"},{"anonymous":false,"inputs":[{"indexed":true,"internalType":"bytes32","name":"taskId","type":"bytes32"},{"indexed":false,"internalType":"bool","name":"success","type":"bool"},{"indexed":false,"internalType":"string","name":"evidenceURI","type":"string"}],"name":"TaskResolved","type":"event"},{"inputs":[{"internalType":"uint256","name":"","type":"uint256"}],"name":"allTaskIds","outputs":[{"internalType":"bytes32","name":"","type":"bytes32"}],"stateMutability":"view","type":"function"},{"inputs":[{"internalType":"bytes32","name":"taskId","type":"bytes32"}],"name":"buyNo","outputs":[],"stateMutability":"payable","type":"function"},{"inputs":[{"internalType":"bytes32","name":"taskId","type":"bytes32"}],"name":"buyYes","outputs":[],"stateMutability":"payable","type":"function"},{"inputs":[{"internalType":"bytes32","name":"taskId","type":"bytes32"},{"internalType":"uint256","name":"positionId","type":"uint256"}],"name":"calculatePayout","outputs":[{"internalType":"uint256","name":"","type":"uint256"}],"stateMutability":"view","type":"function"},{"inputs":[{"internalType":"bytes32","name":"taskId","type":"bytes32"},{"internalType":"bytes32","name":"robotId","type":"bytes32"},{"internalType":"string","name":"description","type":"string"},{"internalType":"string","name":"waypointsURI","type":"string"},{"internalType":"uint256","name":"deadline","type":"uint256"},{"internalType":"uint256","name":"requiredScore","type":"uint256"},{"internalType":"address","name":"resolver","type":"address"}],"name":"createTask","outputs":[],"stateMutability":"payable","type":"function"},{"inputs":[{"internalType":"bytes32","name":"taskId","type":"bytes32"},{"internalType":"bool","name":"success","type":"bool"},{"internalType":"string","name":"evidenceURI","type":"string"}],"name":"finalize","outputs":[],"stateMutability":"nonpayable","type":"function"},{"inputs":[{"internalType":"bytes32","name":"taskId","type":"bytes32"}],"name":"getTask","outputs":[{"components":[{"internalType":"bytes32","name":"robotId","type":"bytes32"},{"internalType":"string","name":"description","type":"string"},{"internalType":"string","name":"waypointsURI","type":"string"},{"internalType":"uint256","name":"deadline","type":"uint256"},{"internalType":"uint256","name":"requiredScore","type":"uint256"},{"internalType":"address","name":"resolver","type":"address"},{"internalType":"uint256","name":"yesPool","type":"uint256"},{"internalType":"uint256","name":"noPool","type":"uint256"},{"internalType":"uint256","name":"yesShares","type":"uint256"},{"internalType":"uint256","name":"noShares","type":"uint256"},{"internalType":"bool","name":"resolved","type":"bool"},{"internalType":"bool","name":"success","type":"bool"},{"internalType":"string","name":"solutionURI","type":"string"},{"internalType":"string","name":"evidenceURI","type":"string"},{"internalType":"uint256","name":"createdAt","type":"uint256"}],"internalType":"struct TaskMarket.Task","name":"","type":"tuple"}],"stateMutability":"view","type":"function"},{"inputs":[{"internalType":"bytes32","name":"taskId","type":"bytes32"}],"name":"getTaskPositions","outputs":[{"components":[{"internalType":"address","name":"trader","type":"address"},{"internalType":"bool","name":"isYes","type":"bool"},{"internalType":"uint256","name":"shares","type":"uint256"},{"internalType":"uint256","name":"cost","type":"uint256"},{"internalType":"bool","name":"redeemed","type":"bool"}],"internalType":"struct TaskMarket.Position[]","name":"","type":"tuple[]"}],"stateMutability":"view","type":"function"},{"inputs":[],"name":"getTotalTasks","outputs":[{"internalType":"uint256","name":"","type":"uint256"}],"stateMutability":"view","type":"function"},{"inputs":[{"internalType":"bytes32","name":"taskId","type":"bytes32"},{"internalType":"address","name":"user","type":"address"}],"name":"getUserPositions","outputs":[{"internalType":"uint256[]","name":"","type":"uint256[]"}],"stateMutability":"view","type":"function"},{"inputs":[],"name":"minTaskStake","outputs":[{"internalType":"uint256","name":"","type":"uint256"}],"stateMutability":"view","type":"function"},{"inputs":[],"name":"oracleAddress","outputs":[{"internalType":"address","name":"","type":"address"}],"stateMutability":"view","type":"function"},{"inputs":[],"name":"owner","outputs":[{"internalType":"address","name":"","type":"address"}],"stateMutability":"view","type":"function"},{"inputs":[{"internalType":"bytes32","name":"taskId","type":"bytes32"}],"name":"redeem","outputs":[],"stateMutability":"nonpayable","type":"function"},{"inputs":[{"internalType":"address","name":"_oracle","type":"address"}],"name":"setOracleAddress","outputs":[],"stateMutability":"nonpayable","type":"function"},{"inputs":[{"internalType":"bytes32","name":"taskId","type":"bytes32"},{"internalType":"string","name":"solutionURI","type":"string"}],"name":"setSolutionURI","outputs":[],"stateMutability":"nonpayable","type":"function"},{"inputs":[{"internalType":"bytes32","name":"","type":"bytes32"},{"internalType":"uint256","name":"","type":"uint256"}],"name":"taskPositions","outputs":[{"internalType":"address","name":"trader","type":"address"},{"internalType":"bool","name":"isYes","type":"bool"},{"internalType":"uint256","name":"shares","type":"uint256"},{"internalType":"uint256","name":"cost","type":"uint256"},{"internalType":"bool","name":"redeemed","type":"bool"}],"stateMutability":"view","type":"function"},{"inputs":[{"internalType":"bytes32","name":"","type":"bytes32"}],"name":"tasks","outputs":[{"internalType":"bytes32","name":"robotId","type":"bytes32"},{"internalType":"string","name":"description","type":"string"},{"internalType":"string","name":"waypointsURI","type":"string"},{"internalType":"uint256","name":"deadline","type":"uint256"},{"internalType":"uint256","name":"requiredScore","type":"uint256"},{"internalType":"address","name":"resolver","type":"address"},{"internalType":"uint256","name":"yesPool","type":"uint256"},{"internalType":"uint256","name":"noPool","type":"uint256"},{"internalType":"uint256","name":"yesShares","type":"uint256"},{"internalType":"uint256","name":"noShares","type":"uint256"},{"internalType":"bool","name":"resolved","type":"bool"},{"internalType":"bool","name":"success","type":"bool"},{"internalType":"string","name":"solutionURI","type":"string"},{"internalType":"string","name":"evidenceURI","type":"string"},{"internalType":"uint256","name":"createdAt","type":"uint256"}],"stateMutability":"view","type":"function"},{"inputs":[{"internalType":"bytes32","name":"","type":"bytes32"},{"internalType":"address","name":"","type":"address"},{"internalType":"uint256","name":"","type":"uint256"}],"name":"userPositions","outputs":[{"internalType":"uint256","name":"","type":"uint256"}],"stateMutability":"view","type":"function"}],"evm":{"bytecode":{"linkReferences":{},"object":"608080604052346100335766038d7ea4c68000600655600580546001600160a01b031916331790556120a290816100398239f35b600080fdfe6080604052600436101561001257600080fd5b60003560e01c806315a290351461171b5780631b97f44f146116b75780633c93b9051461169957806342ca63e81461153e57806342e48fd0146114045780634c69c00f1461137c57806376c3504b146113445780638da5cb5b1461131b5780639907e61e146112a5578063a89ae4ba1461127c578063c928f6211461117f578063d541b33b1461100e578063dc41262414610ff0578063e0390f83146108c4578063e2b863cf146108a3578063e579f50014610772578063e59965d514610528578063eda1122c146101b55763fb945feb146100ed57600080fd5b346101b05760403660031901126101b0576101066119a5565b6004356000526020906002825260406000209060018060a01b03166000528152604060002060405190818382549182815201908192600052846000209060005b8682821061019c57868661015c82880383611af5565b604051928392818401908285525180915260408401929160005b82811061018557505050500390f35b835185528695509381019392810192600101610176565b835485529093019260019283019201610146565b600080fd5b346101b0576020806003193601126101b05760043580600052600082526101e5600d604060002001541515611bbb565b806000526000825260ff91600a9061020760ff600a6040600020015416611ed6565b82600052600281526040600020336000528152604060002093604051808684829854938481520190600052846000209260005b868282106105125750505061025192500386611af5565b8451156104de57600090846000526000835261027b60406000206007600682015491015490611cc2565b9060005b87518110156103fb57866000526001808652604060002089518310156103e5576102b290878460051b8c01015190611a4d565b50906003820190898983549487861615806103bd575b6102db575b50505050505060010161027f565b91600196999391896103489796948d6000809186825252604060002093840154938c600895861c168080916103b1575b156103545750505061033a93929185610325920154611f16565b9160005260008d526040600020015490611f29565b935b60ff1916179055611cc2565b939089808989826102cd565b91999550919293501590816103a3575b50610371575b505061033c565b61039b9296509083610384920154611f16565b8d60005260008c5260096040600020015490611f29565b93888f61036a565b600991500154151538610364565b5085820154151561030b565b5087815460a01c168360005260008c5288836040600020015460081c161515901515146102c8565b634e487b7160e01b600052603260045260246000fd5b83878682156104a257600080808086335af13d1561049d573d61041d81611e84565b9061042b6040519283611af5565b81526000833d92013e5b15610467577f8040e64aa31e5bd6335067c07bef380c1a019536c418dd80de2dff9f786dd608906040519384523393a3005b6064906040519062461bcd60e51b82526004820152600f60248201526e151c985b9cd9995c8819985a5b1959608a1b6044820152fd5b610435565b6064906040519062461bcd60e51b8252600482015260156024820152744e6f2077696e6e696e677320746f2072656465656d60581b6044820152fd5b60405162461bcd60e51b815260048101839052600c60248201526b4e6f20706f736974696f6e7360a01b6044820152606490fd5b855484526001958601958b95509301920161023a565b346101b05760603660031901126101b0576024356004358115158083036101b0576001600160401b03906044358281116101b05761056a903690600401611a0a565b9061058060018060a01b03600454163314611da9565b846000526020936000855261059e600d604060002001541515611bbb565b856000526000855260ff600a604060002001541661073a57600086815280865260409020600a8101805461ffff191698151560081b61ff0016989098176001908117909855600c0190831161072457610601836105fb8354611a69565b83611de2565b600096601f841160011461069657509180916060949361065b83807f2a4a9d2b3245fdeb5c038336e5d3f95badd77338127f219946129afba983e7c69a9b60009161068b575b508160011b916000199060031b1c19161790565b90555b604080519687958652850152816040850152848401376000828201840152601f01601f19168101030190a2005b90508401358c610647565b601f1984168260005286600020916000905b82821061070d575050918493917f2a4a9d2b3245fdeb5c038336e5d3f95badd77338127f219946129afba983e7c69899856060989795106106f3575b5050600183811b01905561065e565b830135600019600386901b60f8161c1916905589806106e4565b858b013584559988019992830192908801906106a8565b634e487b7160e01b600052604160045260246000fd5b60405162461bcd60e51b815260048101869052601060248201526f105b1c9958591e481c995cdbdb1d995960821b6044820152606490fd5b346101b05760203660031901126101b057600435600052600060205260406000208054600182016107a290611b16565b916107af60028201611b16565b906003810154600482015490600160a01b6001900360058401541660068401546007850154600886015490600987015492600a88015494600b89016107f390611b16565b97610800600c8b01611b16565b99600d01549a6040519d8e9d8e6101e09181528160208201520161082391611965565b8d810360408f015261083491611965565b9760608d015260808c015260a08b015260c08a015260e089015261010088015261012087015260ff8116151561014087015260081c60ff16151561016086015284810361018086015261088691611965565b8381036101a085015261089891611965565b906101c08301520390f35b346101b05760206108bc6108b636611a37565b90611f49565b604051908152f35b60e03660031901126101b0576044356001600160401b0381116101b0576108ef903690600401611a0a565b906064356001600160401b0381116101b05761090f903690600401611a0a565b60c4359291906001600160a01b03841684036101b0576006543410610fab576004356000526000602052600d60406000200154610f7057426084351115610f2b578415610eef576001600160a01b03841615610eb657610985610991936040519661097988611aa3565b60243588523691611e9f565b60208601523691611e9f565b6040830152608435606083015260a435608083015260018060a01b031660a0820152600060c0820152600060e082015260006101008201526000610120820152600061014082015260006101608201526040516109ed81611ada565b60008152610180820152604051610a0381611ada565b600081526101a0820152426101c082015260043560005260006020526040600020908051825560208101519182516001600160401b03811161072457610a5981610a506001850154611a69565b60018501611de2565b6020601f8211600114610e48578190610a8b939495600092610dcf575b50508160011b916000199060031b1c19161790565b60018201555b60408201519182516001600160401b03811161072457610ac181610ab86002860154611a69565b60028601611de2565b6020601f8211600114610dda578190610af2939495600092610dcf5750508160011b916000199060031b1c19161790565b60028301555b60608101516003830155608081015160048301556005820160018060a01b0360a0830151166bffffffffffffffffffffffff60a01b82541617905560c0810151600683015560e0810151600783015561010081015160088301556101208101516009830155610b9d600a8301610b816101408401511515829060ff801983541691151516179055565b610160830151815461ff00191690151560081b61ff0016179055565b600b8201916101808201519283516001600160401b03811161072457610bcd81610bc78454611a69565b84611de2565b602094601f8211600114610d6957610c00929394958291600092610d5e5750508160011b916000199060031b1c19161790565b90555b600c8101916101a08101519283516001600160401b03811161072457610c2d81610bc78454611a69565b6020601f8211600114610cef57816101c0949392610c6592600d9798600092610ce45750508160011b916000199060031b1c19161790565b90555b0151910155600354600160401b81101561072457610c8f816001610cab93016003556119bb565b6004929192359083549060031b91821b91600019901b19161790565b905560405160843581523390602435907e3e8b8d9bef2f94bd17761e943b0070e5698c4a7ea2a9dcf24c23334d20990d602060043592a4005b015190508880610a76565b601f198216958360005260206000209660005b818110610d4657509660019284926101c0979695600d999a10610d2d575b505050811b019055610c68565b015160001960f88460031b161c19169055878080610d20565b83830151895560019098019760209384019301610d02565b015190508680610a76565b601f198216958360005260206000209160005b888110610db757508360019596979810610d9e575b505050811b019055610c03565b015160001960f88460031b161c19169055858080610d91565b91926020600181928685015181550194019201610d7c565b015190508580610a76565b6002840160005260206000209060005b601f1984168110610e305750600193949583601f19811610610e17575b505050811b016002830155610af8565b015160001960f88460031b161c19169055848080610e07565b9091602060018192858a015181550193019101610dea565b6001830160005260206000209060005b601f1984168110610e9e5750600193949583601f19811610610e85575b505050811b016001820155610a91565b015160001960f88460031b161c19169055848080610e75565b9091602060018192858a015181550193019101610e58565b60405162461bcd60e51b815260206004820152601160248201527014995cdbdb1d995c881c995c5d5a5c9959607a1b6044820152606490fd5b60405162461bcd60e51b815260206004820152601460248201527311195cd8dc9a5c1d1a5bdb881c995c5d5a5c995960621b6044820152606490fd5b60405162461bcd60e51b815260206004820152601a60248201527f446561646c696e65206d75737420626520696e206675747572650000000000006044820152606490fd5b60405162461bcd60e51b81526020600482015260136024820152725461736b20616c72656164792065786973747360681b6044820152606490fd5b60405162461bcd60e51b815260206004820152601760248201527f496e73756666696369656e74207461736b207374616b650000000000000000006044820152606490fd5b346101b05760003660031901126101b0576020600654604051908152f35b6020806003193601126101b0576004358060005260008252611039600d604060002001541515611bbb565b806000526000825261105660ff600a604060002001541615611bfd565b80600052600082526110716003604060002001544210611c41565b61107c341515611c84565b80600052600082526006604060002001611097348254611cc2565b9055806000526000825260086040600020016110b4348254611cc2565b90556110f36040516110c581611abf565b3381526001848201523460408201523460608201526000608082015282600052600184526040600020611ccf565b806000526002825260406000203360005282526040600020816000526001835260406000205460001981019081116111695761112e91611d6c565b604051916001835234908301523460408301527f0e796a03bae1100e2202fb705a842d38ad33db974ecd6ef87896b67234111ae360603393a3005b634e487b7160e01b600052601160045260246000fd5b346101b0576020806003193601126101b05760043560005260019060018152604060002080546001600160401b038111610724578383604051926111c8828260051b0185611af5565b8084528184018095600052826000206000915b838310611255575050505060405192818401908285525180915260408401949160005b82811061120b5785870386f35b835180516001600160a01b0316885282810151151583890152604080820151908901526060808201519089015260809081015115159088015260a0909601959281019284016111fe565b94600485829997611268859a989a611e38565b8152019201920191909694969593956111db565b346101b05760003660031901126101b0576004546040516001600160a01b039091168152602090f35b346101b0576112b336611a37565b906000526001602052604060002080548210156101b05760a0916112d691611a4d565b5080549060018101549060ff60036002830154920154169160ff60405194600180881b0381168652861c16151560208501526040840152606083015215156080820152f35b346101b05760003660031901126101b0576005546040516001600160a01b039091168152602090f35b346101b05760203660031901126101b0576004356003548110156101b05761136d6020916119bb565b90549060031b1c604051908152f35b346101b05760203660031901126101b0576004356001600160a01b03818116918290036101b0576005541633036113ca576bffffffffffffffffffffffff60a01b6004541617600455600080f35b60405162461bcd60e51b81526020600482015260126024820152712737ba1031b7b73a3930b1ba1037bbb732b960711b6044820152606490fd5b346101b05760403660031901126101b0576004356001600160401b036024358181116101b057611438903690600401611a0a565b9061144e60018060a01b03600454163314611da9565b83600052602093600060205261146d600d604060002001541515611bbb565b6000526000602052600b60406000200192821161072457611498826114928554611a69565b85611de2565b600093601f83116001146114d957506114ca929382916000926114ce5750508160011b916000199060031b1c19161790565b9055005b013590508480610a76565b90601f19831694846000526020600020926000905b87821061152657505083600195961061150c575b505050811b019055005b0135600019600384901b60f8161c19169055838080611502565b806001849682949587013581550195019201906114ee565b6020806003193601126101b0576004358060005260008252611569600d604060002001541515611bbb565b806000526000825261158660ff600a604060002001541615611bfd565b80600052600082526115a16003604060002001544210611c41565b6115ac341515611c84565b806000526000825260076040600020016115c7348254611cc2565b9055806000526000825260096040600020016115e4348254611cc2565b90556116236040516115f581611abf565b3381526000848201523460408201523460608201526000608082015282600052600184526040600020611ccf565b806000526002825260406000203360005282526040600020816000526001835260406000205460001981019081116111695761165e91611d6c565b604051916000835234908301523460408301527f0e796a03bae1100e2202fb705a842d38ad33db974ecd6ef87896b67234111ae360603393a3005b346101b05760003660031901126101b0576020600354604051908152f35b346101b05760603660031901126101b0576116d06119a5565b60443590600435600052600260205260406000209060018060a01b0316600052602052604060002080548210156101b05760209161170d916119f2565b90546040519160031b1c8152f35b346101b05760203660031901126101b0576117366080611aa3565b60006080819052606060a081905260c081905260e08290526101008290526101208290526101408290526101608290526101808290526101a08290526101c08290526101e08290526102008190526102205261024081905260043581526020819052604090819020905190600d906117ad83611aa3565b805483526117bd60018201611b16565b60208401526117ce60028201611b16565b6040840152600381015460608401526004810154608084015260058101546001600160a01b031660a0840152600681015460c0840152600781015460e08401526008808201546101008501526009820154610120850152600a82015460ff8181161515610140870152911c16151561016084015261184e600b8201611b16565b610180840152611860600c8201611b16565b6101a084015201546101c0820152604051809160208252805160208301526101c06119586119426118bb6118a560208601516101e06040890152610200880190611965565b6040860151878203601f19016060890152611965565b60608501516080870152608085015160a087015260018060a01b0360a08601511660c087015260c085015160e087015260e085015161010087015261010085015161012087015261012085015161014087015261014085015115156101608701526101608501511515610180870152610180850151601f19878303016101a0880152611965565b6101a0840151858203601f190184870152611965565b9101516101e08301520390f35b919082519283825260005b848110611991575050826000602080949584010152601f8019910116010190565b602081830181015184830182015201611970565b602435906001600160a01b03821682036101b057565b6003548110156103e55760036000527fc2575a0e9e593c00f959f8c92f12db2869c3395a3b0502d05e2516446f71f85b0190600090565b80548210156103e55760005260206000200190600090565b9181601f840112156101b0578235916001600160401b0383116101b057602083818601950101116101b057565b60409060031901126101b0576004359060243590565b80548210156103e55760005260206000209060021b0190600090565b90600182811c92168015611a99575b6020831014611a8357565b634e487b7160e01b600052602260045260246000fd5b91607f1691611a78565b6101e081019081106001600160401b0382111761072457604052565b60a081019081106001600160401b0382111761072457604052565b602081019081106001600160401b0382111761072457604052565b90601f801991011681019081106001600160401b0382111761072457604052565b90604051918260008254611b2981611a69565b90818452602094600191600181169081600014611b995750600114611b5a575b505050611b5892500383611af5565b565b600090815285812095935091905b818310611b81575050611b589350820101388080611b49565b85548884018501529485019487945091830191611b68565b92505050611b5894925060ff191682840152151560051b820101388080611b49565b15611bc257565b60405162461bcd60e51b815260206004820152601360248201527215185cdac8191bd95cc81b9bdd08195e1a5cdd606a1b6044820152606490fd5b15611c0457565b60405162461bcd60e51b815260206004820152601560248201527415185cdac8185b1c9958591e481c995cdbdb1d9959605a1b6044820152606490fd5b15611c4857565b60405162461bcd60e51b815260206004820152601460248201527315185cdac8191958591b1a5b99481c185cdcd95960621b6044820152606490fd5b15611c8b57565b60405162461bcd60e51b815260206004820152600f60248201526e4d7573742073656e642076616c756560881b6044820152606490fd5b9190820180921161116957565b8054600160401b81101561072457611cec91600182018155611a4d565b611d565781518154602084015160ff60a01b90151560a01b166001600160a01b039092166001600160a81b03199091161717815560408201516001820155606082015160028201556080909101516003909101805460ff191660ff92151592909216919091179055565b634e487b7160e01b600052600060045260246000fd5b805490600160401b8210156107245781611d8e916001611da5940181556119f2565b819391549060031b91821b91600019901b19161790565b9055565b15611db057565b60405162461bcd60e51b815260206004820152600a6024820152694e6f74206f7261636c6560b01b6044820152606490fd5b90601f8111611df057505050565b6000916000526020600020906020601f850160051c83019410611e2e575b601f0160051c01915b828110611e2357505050565b818155600101611e17565b9092508290611e0e565b90604051611e4581611abf565b608060ff6003839582815460018060a01b038116875260a01c161515602086015260018101546040860152600281015460608601520154161515910152565b6001600160401b03811161072457601f01601f191660200190565b929192611eab82611e84565b91611eb96040519384611af5565b8294818452818301116101b0578281602093846000960137010152565b15611edd57565b60405162461bcd60e51b815260206004820152601160248201527015185cdac81b9bdd081c995cdbdb1d9959607a1b6044820152606490fd5b8181029291811591840414171561116957565b8115611f33570490565b634e487b7160e01b600052601260045260246000fd5b6000918183526020838152611f84611f7e604093611f6f60ff600a878a20015416611ed6565b85875260018452848720611a4d565b50611e38565b608081015115801590612049575b61204257838552848252611fb28386206007600682015491015490611cc2565b9084865285835283862060ff600a82015460081c16808091612035575b15611ffc575050948392611fec8293600896611ff9990151611f16565b9582525220015490611f29565b90565b159081612027575b5061201157505050505090565b948392611fec8293600996611ff9990151611f16565b600991500154151538612004565b5060088201541515611fcf565b5050505090565b5081810151151584865285835260ff600a858820015460081c1615151415611f9256fea26469706673582212205498260c919357b6482f674ef36cc83f9b55cf4b322160b4b835037c2ab20cb464736f6c63430008180033","opcodes":"PUSH1 0x80 DUP1 PUSH1 0x40 MSTORE CALLVALUE PUSH2 0x33 JUMPI PUSH7 0x38D7EA4C68000 PUSH1 0x6 SSTORE PUSH1 0x5 DUP1 SLOAD PUSH1 0x1 PUSH1 0x1 PUSH1 0xA0 SHL SUB NOT AND CALLER OR SWAP1 SSTORE PUSH2 0x20A2 SWAP1 DUP2 PUSH2 0x39 DUP3 CODECOPY RETURN JUMPDEST PUSH1 0x0 DUP1 REVERT INVALID PUSH1 0x80 PUSH1 0x40 MSTORE PUSH1 0x4 CALLDATASIZE LT ISZERO PUSH2 0x12 JUMPI PUSH1 0x0 DUP1 REVERT JUMPDEST PUSH1 0x0 CALLDATALOAD PUSH1 0xE0 SHR DUP1 PUSH4 0x15A29035 EQ PUSH2 0x171B JUMPI DUP1 PUSH4 0x1B97F44F EQ PUSH2 0x16B7 JUMPI DUP1 PUSH4 0x3C93B905 EQ PUSH2 0x1699 JUMPI DUP1 PUSH4 0x42CA63E8 EQ PUSH2 0x153E JUMPI DUP1 PUSH4 0x42E48FD0 EQ PUSH2 0x1404 JUMPI DUP1 PUSH4 0x4C69C00F EQ PUSH2 0x137C JUMPI DUP1 PUSH4 0x76C3504B EQ PUSH2 0x1344 JUMPI DUP1 PUSH4 0x8DA5CB5B EQ PUSH2 0x131B JUMPI DUP1 PUSH4 0x9907E61E EQ PUSH2 0x12A5 JUMPI DUP1 PUSH4 0xA89AE4BA EQ PUSH2 0x127C JUMPI DUP1 PUSH4 0xC928F621 EQ PUSH2 0x117F JUMPI DUP1 PUSH4 0xD541B33B EQ PUSH2 0x100E JUMPI DUP1 PUSH4 0xDC412624 EQ PUSH2 0xFF0 JUMPI DUP1 PUSH4 0xE0390F83 EQ PUSH2 0x8C4 JUMPI DUP1 PUSH4 0xE2B863CF EQ PUSH2 0x8A3 JUMPI DUP1 PUSH4 0xE579F500 EQ PUSH2 0x772 JUMPI DUP1 PUSH4 0xE59965D5 EQ PUSH2 0x528 JUMPI DUP1 PUSH4 0xEDA1122C EQ PUSH2 0x1B5 JUMPI PUSH4 0xFB945FEB EQ PUSH2 0xED JUMPI PUSH1 0x0 DUP1 REVERT JUMPDEST CALLVALUE PUSH2 0x1B0 JUMPI PUSH1 0x40 CALLDATASIZE PUSH1 0x3 NOT ADD SLT PUSH2 0x1B0 JUMPI PUSH2 0x106 PUSH2 0x19A5 JUMP JUMPDEST PUSH1 0x4 CALLDATALOAD PUSH1 0x0 MSTORE PUSH1 0x20 SWAP1 PUSH1 0x2 DUP3 MSTORE PUSH1 0x40 PUSH1 0x0 KECCAK256 SWAP1 PUSH1 0x1 DUP1 PUSH1 0xA0 SHL SUB AND PUSH1 0x0 MSTORE DUP2 MSTORE PUSH1 0x40 PUSH1 0x0 KECCAK256 PUSH1 0x40 MLOAD SWAP1 DUP2 DUP4 DUP3 SLOAD SWAP2 DUP3 DUP2 MSTORE ADD SWAP1 DUP2 SWAP3 PUSH1 0x0 MSTORE DUP5 PUSH1 0x0 KECCAK256 SWAP1 PUSH1 0x0 JUMPDEST DUP7 DUP3 DUP3 LT PUSH2 0x19C JUMPI DUP7 DUP7 PUSH2 0x15C DUP3 DUP9 SUB DUP4 PUSH2 0x1AF5 JUMP JUMPDEST PUSH1 0x40 MLOAD SWAP3 DUP4 SWAP3 DUP2 DUP5 ADD SWAP1 DUP3 DUP6 MSTORE MLOAD DUP1 SWAP2 MSTORE PUSH1 0x40 DUP5 ADD SWAP3 SWAP2 PUSH1 0x0 JUMPDEST DUP3 DUP2 LT PUSH2 0x185 JUMPI POP POP POP POP SUB SWAP1 RETURN JUMPDEST DUP4 MLOAD DUP6 MSTORE DUP7 SWAP6 POP SWAP4 DUP2 ADD SWAP4 SWAP3 DUP2 ADD SWAP3 PUSH1 0x1 ADD PUSH2 0x176 JUMP JUMPDEST DUP4 SLOAD DUP6 MSTORE SWAP1 SWAP4 ADD SWAP3 PUSH1 0x1 SWAP3 DUP4 ADD SWAP3 ADD PUSH2 0x146 JUMP JUMPDEST PUSH1 0x0 DUP1 REVERT JUMPDEST CALLVALUE PUSH2 0x1B0 JUMPI PUSH1 0x20 DUP1 PUSH1 0x3 NOT CALLDATASIZE ADD SLT PUSH2 0x1B0 JUMPI PUSH1 0x4 CALLDATALOAD DUP1 PUSH1 0x0 MSTORE PUSH1 0x0 DUP3 MSTORE PUSH2 0x1E5 PUSH1 0xD PUSH1 0x40 PUSH1 0x0 KECCAK256 ADD SLOAD ISZERO ISZERO PUSH2 0x1BBB JUMP JUMPDEST DUP1 PUSH1 0x0 MSTORE PUSH1 0x0 DUP3 MSTORE PUSH1 0xFF SWAP2 PUSH1 0xA SWAP1 PUSH2 0x207 PUSH1 0xFF PUSH1 0xA PUSH1 0x40 PUSH1 0x0 KECCAK256 ADD SLOAD AND PUSH2 0x1ED6 JUMP JUMPDEST DUP3 PUSH1 0x0 MSTORE PUSH1 0x2 DUP2 MSTORE PUSH1 0x40 PUSH1 0x0 KECCAK256 CALLER PUSH1 0x0 MSTORE DUP2 MSTORE PUSH1 0x40 PUSH1 0x0 KECCAK256 SWAP4 PUSH1 0x40 MLOAD DUP1 DUP7 DUP5 DUP3 SWAP9 SLOAD SWAP4 DUP5 DUP2 MSTORE ADD SWAP1 PUSH1 0x0 MSTORE DUP5 PUSH1 0x0 KECCAK256 SWAP3 PUSH1 0x0 JUMPDEST DUP7 DUP3 DUP3 LT PUSH2 0x512 JUMPI POP POP POP PUSH2 0x251 SWAP3 POP SUB DUP7 PUSH2 0x1AF5 JUMP JUMPDEST DUP5 MLOAD ISZERO PUSH2 0x4DE JUMPI PUSH1 0x0 SWAP1 DUP5 PUSH1 0x0 MSTORE PUSH1 0x0 DUP4 MSTORE PUSH2 0x27B PUSH1 0x40 PUSH1 0x0 KECCAK256 PUSH1 0x7 PUSH1 0x6 DUP3 ADD SLOAD SWAP2 ADD SLOAD SWAP1 PUSH2 0x1CC2 JUMP JUMPDEST SWAP1 PUSH1 0x0 JUMPDEST DUP8 MLOAD DUP2 LT ISZERO PUSH2 0x3FB JUMPI DUP7 PUSH1 0x0 MSTORE PUSH1 0x1 DUP1 DUP7 MSTORE PUSH1 0x40 PUSH1 0x0 KECCAK256 DUP10 MLOAD DUP4 LT ISZERO PUSH2 0x3E5 JUMPI PUSH2 0x2B2 SWAP1 DUP8 DUP5 PUSH1 0x5 SHL DUP13 ADD ADD MLOAD SWAP1 PUSH2 0x1A4D JUMP JUMPDEST POP SWAP1 PUSH1 0x3 DUP3 ADD SWAP1 DUP10 DUP10 DUP4 SLOAD SWAP5 DUP8 DUP7 AND ISZERO DUP1 PUSH2 0x3BD JUMPI JUMPDEST PUSH2 0x2DB JUMPI JUMPDEST POP POP POP POP POP POP PUSH1 0x1 ADD PUSH2 0x27F JUMP JUMPDEST SWAP2 PUSH1 0x1 SWAP7 SWAP10 SWAP4 SWAP2 DUP10 PUSH2 0x348 SWAP8 SWAP7 SWAP5 DUP14 PUSH1 0x0 DUP1 SWAP2 DUP7 DUP3 MSTORE MSTORE PUSH1 0x40 PUSH1 0x0 KECCAK256 SWAP4 DUP5 ADD SLOAD SWAP4 DUP13 PUSH1 0x8 SWAP6 DUP7 SHR AND DUP1 DUP1 SWAP2 PUSH2 0x3B1 JUMPI JUMPDEST ISZERO PUSH2 0x354 JUMPI POP POP POP PUSH2 0x33A SWAP4 SWAP3 SWAP2 DUP6 PUSH2 0x325 SWAP3 ADD SLOAD PUSH2 0x1F16 JUMP JUMPDEST SWAP2 PUSH1 0x0 MSTORE PUSH1 0x0 DUP14 MSTORE PUSH1 0x40 PUSH1 0x0 KECCAK256 ADD SLOAD SWAP1 PUSH2 0x1F29 JUMP JUMPDEST SWAP4 JUMPDEST PUSH1 0xFF NOT AND OR SWAP1 SSTORE PUSH2 0x1CC2 JUMP JUMPDEST SWAP4 SWAP1 DUP10 DUP1 DUP10 DUP10 DUP3 PUSH2 0x2CD JUMP JUMPDEST SWAP2 SWAP10 SWAP6 POP SWAP2 SWAP3 SWAP4 POP ISZERO SWAP1 DUP2 PUSH2 0x3A3 JUMPI JUMPDEST POP PUSH2 0x371 JUMPI JUMPDEST POP POP PUSH2 0x33C JUMP JUMPDEST PUSH2 0x39B SWAP3 SWAP7 POP SWAP1 DUP4 PUSH2 0x384 SWAP3 ADD SLOAD PUSH2 0x1F16 JUMP JUMPDEST DUP14 PUSH1 0x0 MSTORE PUSH1 0x0 DUP13 MSTORE PUSH1 0x9 PUSH1 0x40 PUSH1 0x0 KECCAK256 ADD SLOAD SWAP1 PUSH2 0x1F29 JUMP JUMPDEST SWAP4 DUP9 DUP16 PUSH2 0x36A JUMP JUMPDEST PUSH1 0x9 SWAP2 POP ADD SLOAD ISZERO ISZERO CODESIZE PUSH2 0x364 JUMP JUMPDEST POP DUP6 DUP3 ADD SLOAD ISZERO ISZERO PUSH2 0x30B JUMP JUMPDEST POP DUP8 DUP2 SLOAD PUSH1 0xA0 SHR AND DUP4 PUSH1 0x0 MSTORE PUSH1 0x0 DUP13 MSTORE DUP9 DUP4 PUSH1 0x40 PUSH1 0x0 KECCAK256 ADD SLOAD PUSH1 0x8 SHR AND ISZERO ISZERO SWAP1 ISZERO ISZERO EQ PUSH2 0x2C8 JUMP JUMPDEST PUSH4 0x4E487B71 PUSH1 0xE0 SHL PUSH1 0x0 MSTORE PUSH1 0x32 PUSH1 0x4 MSTORE PUSH1 0x24 PUSH1 0x0 REVERT JUMPDEST DUP4 DUP8 DUP7 DUP3 ISZERO PUSH2 0x4A2 JUMPI PUSH1 0x0 DUP1 DUP1 DUP1 DUP7 CALLER GAS CALL RETURNDATASIZE ISZERO PUSH2 0x49D JUMPI RETURNDATASIZE PUSH2 0x41D DUP2 PUSH2 0x1E84 JUMP JUMPDEST SWAP1 PUSH2 0x42B PUSH1 0x40 MLOAD SWAP3 DUP4 PUSH2 0x1AF5 JUMP JUMPDEST DUP2 MSTORE PUSH1 0x0 DUP4 RETURNDATASIZE SWAP3 ADD RETURNDATACOPY JUMPDEST ISZERO PUSH2 0x467 JUMPI PUSH32 0x8040E64AA31E5BD6335067C07BEF380C1A019536C418DD80DE2DFF9F786DD608 SWAP1 PUSH1 0x40 MLOAD SWAP4 DUP5 MSTORE CALLER SWAP4 LOG3 STOP JUMPDEST PUSH1 0x64 SWAP1 PUSH1 0x40 MLOAD SWAP1 PUSH3 0x461BCD PUSH1 0xE5 SHL DUP3 MSTORE PUSH1 0x4 DUP3 ADD MSTORE PUSH1 0xF PUSH1 0x24 DUP3 ADD MSTORE PUSH15 0x151C985B9CD9995C8819985A5B1959 PUSH1 0x8A SHL PUSH1 0x44 DUP3 ADD MSTORE REVERT JUMPDEST PUSH2 0x435 JUMP JUMPDEST PUSH1 0x64 SWAP1 PUSH1 0x40 MLOAD SWAP1 PUSH3 0x461BCD PUSH1 0xE5 SHL DUP3 MSTORE PUSH1 0x4 DUP3 ADD MSTORE PUSH1 0x15 PUSH1 0x24 DUP3 ADD MSTORE PUSH21 0x4E6F2077696E6E696E677320746F2072656465656D PUSH1 0x58 SHL PUSH1 0x44 DUP3 ADD MSTORE REVERT JUMPDEST PUSH1 0x40 MLOAD PUSH3 0x461BCD PUSH1 0xE5 SHL DUP2 MSTORE PUSH1 0x4 DUP2 ADD DUP4 SWAP1 MSTORE PUSH1 0xC PUSH1 0x24 DUP3 ADD MSTORE PUSH12 0x4E6F20706F736974696F6E73 PUSH1 0xA0 SHL PUSH1 0x44 DUP3 ADD MSTORE PUSH1 0x64 SWAP1 REVERT JUMPDEST DUP6 SLOAD DUP5 MSTORE PUSH1 0x1 SWAP6 DUP7 ADD SWAP6 DUP12 SWAP6 POP SWAP4 ADD SWAP3 ADD PUSH2 0x23A JUMP JUMPDEST CALLVALUE PUSH2 0x1B0 JUMPI PUSH1 0x60 CALLDATASIZE PUSH1 0x3 NOT ADD SLT PUSH2 0x1B0 JUMPI PUSH1 0x24 CALLDATALOAD PUSH1 0x4 CALLDATALOAD DUP2 ISZERO ISZERO DUP1 DUP4 SUB PUSH2 0x1B0 JUMPI PUSH1 0x1 PUSH1 0x1 PUSH1 0x40 SHL SUB SWAP1 PUSH1 0x44 CALLDATALOAD DUP3 DUP2 GT PUSH2 0x1B0 JUMPI PUSH2 0x56A SWAP1 CALLDATASIZE SWAP1 PUSH1 0x4 ADD PUSH2 0x1A0A JUMP JUMPDEST SWAP1 PUSH2 0x580 PUSH1 0x1 DUP1 PUSH1 0xA0 SHL SUB PUSH1 0x4 SLOAD AND CALLER EQ PUSH2 0x1DA9 JUMP JUMPDEST DUP5 PUSH1 0x0 MSTORE PUSH1 0x20 SWAP4 PUSH1 0x0 DUP6 MSTORE PUSH2 0x59E PUSH1 0xD PUSH1 0x40 PUSH1 0x0 KECCAK256 ADD SLOAD ISZERO ISZERO PUSH2 0x1BBB JUMP JUMPDEST DUP6 PUSH1 0x0 MSTORE PUSH1 0x0 DUP6 MSTORE PUSH1 0xFF PUSH1 0xA PUSH1 0x40 PUSH1 0x0 KECCAK256 ADD SLOAD AND PUSH2 0x73A JUMPI PUSH1 0x0 DUP7 DUP2 MSTORE DUP1 DUP7 MSTORE PUSH1 0x40 SWAP1 KECCAK256 PUSH1 0xA DUP2 ADD DUP1 SLOAD PUSH2 0xFFFF NOT AND SWAP9 ISZERO ISZERO PUSH1 0x8 SHL PUSH2 0xFF00 AND SWAP9 SWAP1 SWAP9 OR PUSH1 0x1 SWAP1 DUP2 OR SWAP1 SWAP9 SSTORE PUSH1 0xC ADD SWAP1 DUP4 GT PUSH2 0x724 JUMPI PUSH2 0x601 DUP4 PUSH2 0x5FB DUP4 SLOAD PUSH2 0x1A69 JUMP JUMPDEST DUP4 PUSH2 0x1DE2 JUMP JUMPDEST PUSH1 0x0 SWAP7 PUSH1 0x1F DUP5 GT PUSH1 0x1 EQ PUSH2 0x696 JUMPI POP SWAP2 DUP1 SWAP2 PUSH1 0x60 SWAP5 SWAP4 PUSH2 0x65B DUP4 DUP1 PUSH32 0x2A4A9D2B3245FDEB5C038336E5D3F95BADD77338127F219946129AFBA983E7C6 SWAP11 SWAP12 PUSH1 0x0 SWAP2 PUSH2 0x68B JUMPI JUMPDEST POP DUP2 PUSH1 0x1 SHL SWAP2 PUSH1 0x0 NOT SWAP1 PUSH1 0x3 SHL SHR NOT AND OR SWAP1 JUMP JUMPDEST SWAP1 SSTORE JUMPDEST PUSH1 0x40 DUP1 MLOAD SWAP7 DUP8 SWAP6 DUP7 MSTORE DUP6 ADD MSTORE DUP2 PUSH1 0x40 DUP6 ADD MSTORE DUP5 DUP5 ADD CALLDATACOPY PUSH1 0x0 DUP3 DUP3 ADD DUP5 ADD MSTORE PUSH1 0x1F ADD PUSH1 0x1F NOT AND DUP2 ADD SUB ADD SWAP1 LOG2 STOP JUMPDEST SWAP1 POP DUP5 ADD CALLDATALOAD DUP13 PUSH2 0x647 JUMP JUMPDEST PUSH1 0x1F NOT DUP5 AND DUP3 PUSH1 0x0 MSTORE DUP7 PUSH1 0x0 KECCAK256 SWAP2 PUSH1 0x0 SWAP1 JUMPDEST DUP3 DUP3 LT PUSH2 0x70D JUMPI POP POP SWAP2 DUP5 SWAP4 SWAP2 PUSH32 0x2A4A9D2B3245FDEB5C038336E5D3F95BADD77338127F219946129AFBA983E7C6 SWAP9 SWAP10 DUP6 PUSH1 0x60 SWAP9 SWAP8 SWAP6 LT PUSH2 0x6F3 JUMPI JUMPDEST POP POP PUSH1 0x1 DUP4 DUP2 SHL ADD SWAP1 SSTORE PUSH2 0x65E JUMP JUMPDEST DUP4 ADD CALLDATALOAD PUSH1 0x0 NOT PUSH1 0x3 DUP7 SWAP1 SHL PUSH1 0xF8 AND SHR NOT AND SWAP1 SSTORE DUP10 DUP1 PUSH2 0x6E4 JUMP JUMPDEST DUP6 DUP12 ADD CALLDATALOAD DUP5 SSTORE SWAP10 DUP9 ADD SWAP10 SWAP3 DUP4 ADD SWAP3 SWAP1 DUP9 ADD SWAP1 PUSH2 0x6A8 JUMP JUMPDEST PUSH4 0x4E487B71 PUSH1 0xE0 SHL PUSH1 0x0 MSTORE PUSH1 0x41 PUSH1 0x4 MSTORE PUSH1 0x24 PUSH1 0x0 REVERT JUMPDEST PUSH1 0x40 MLOAD PUSH3 0x461BCD PUSH1 0xE5 SHL DUP2 MSTORE PUSH1 0x4 DUP2 ADD DUP7 SWAP1 MSTORE PUSH1 0x10 PUSH1 0x24 DUP3 ADD MSTORE PUSH16 0x105B1C9958591E481C995CDBDB1D9959 PUSH1 0x82 SHL PUSH1 0x44 DUP3 ADD MSTORE PUSH1 0x64 SWAP1 REVERT JUMPDEST CALLVALUE PUSH2 0x1B0 JUMPI PUSH1 0x20 CALLDATASIZE PUSH1 0x3 NOT ADD SLT PUSH2 0x1B0 JUMPI PUSH1 0x4 CALLDATALOAD PUSH1 0x0 MSTORE PUSH1 0x0 PUSH1 0x20 MSTORE PUSH1 0x40 PUSH1 0x0 KECCAK256 DUP1 SLOAD PUSH1 0x1 DUP3 ADD PUSH2 0x7A2 SWAP1 PUSH2 0x1B16 JUMP JUMPDEST SWAP2 PUSH2 0x7AF PUSH1 0x2 DUP3 ADD PUSH2 0x1B16 JUMP JUMPDEST SWAP1 PUSH1 0x3 DUP2 ADD SLOAD PUSH1 0x4 DUP3 ADD SLOAD SWAP1 PUSH1 0x1 PUSH1 0xA0 SHL PUSH1 0x1 SWAP1 SUB PUSH1 0x5 DUP5 ADD SLOAD AND PUSH1 0x6 DUP5 ADD SLOAD PUSH1 0x7 DUP6 ADD SLOAD PUSH1 0x8 DUP7 ADD SLOAD SWAP1 PUSH1 0x9 DUP8 ADD SLOAD SWAP3 PUSH1 0xA DUP9 ADD SLOAD SWAP5 PUSH1 0xB DUP10 ADD PUSH2 0x7F3 SWAP1 PUSH2 0x1B16 JUMP JUMPDEST SWAP8 PUSH2 0x800 PUSH1 0xC DUP12 ADD PUSH2 0x1B16 JUMP JUMPDEST SWAP10 PUSH1 0xD ADD SLOAD SWAP11 PUSH1 0x40 MLOAD SWAP14 DUP15 SWAP14 DUP15 PUSH2 0x1E0 SWAP2 DUP2 MSTORE DUP2 PUSH1 0x20 DUP3 ADD MSTORE ADD PUSH2 0x823 SWAP2 PUSH2 0x1965 JUMP JUMPDEST DUP14 DUP2 SUB PUSH1 0x40 DUP16 ADD MSTORE PUSH2 0x834 SWAP2 PUSH2 0x1965 JUMP JUMPDEST SWAP8 PUSH1 0x60 DUP14 ADD MSTORE PUSH1 0x80 DUP13 ADD MSTORE PUSH1 0xA0 DUP12 ADD MSTORE PUSH1 0xC0 DUP11 ADD MSTORE PUSH1 0xE0 DUP10 ADD MSTORE PUSH2 0x100 DUP9 ADD MSTORE PUSH2 0x120 DUP8 ADD MSTORE PUSH1 0xFF DUP2 AND ISZERO ISZERO PUSH2 0x140 DUP8 ADD MSTORE PUSH1 0x8 SHR PUSH1 0xFF AND ISZERO ISZERO PUSH2 0x160 DUP7 ADD MSTORE DUP5 DUP2 SUB PUSH2 0x180 DUP7 ADD MSTORE PUSH2 0x886 SWAP2 PUSH2 0x1965 JUMP JUMPDEST DUP4 DUP2 SUB PUSH2 0x1A0 DUP6 ADD MSTORE PUSH2 0x898 SWAP2 PUSH2 0x1965 JUMP JUMPDEST SWAP1 PUSH2 0x1C0 DUP4 ADD MSTORE SUB SWAP1 RETURN JUMPDEST CALLVALUE PUSH2 0x1B0 JUMPI PUSH1 0x20 PUSH2 0x8BC PUSH2 0x8B6 CALLDATASIZE PUSH2 0x1A37 JUMP JUMPDEST SWAP1 PUSH2 0x1F49 JUMP JUMPDEST PUSH1 0x40 MLOAD SWAP1 DUP2 MSTORE RETURN JUMPDEST PUSH1 0xE0 CALLDATASIZE PUSH1 0x3 NOT ADD SLT PUSH2 0x1B0 JUMPI PUSH1 0x44 CALLDATALOAD PUSH1 0x1 PUSH1 0x1 PUSH1 0x40 SHL SUB DUP2 GT PUSH2 0x1B0 JUMPI PUSH2 0x8EF SWAP1 CALLDATASIZE SWAP1 PUSH1 0x4 ADD PUSH2 0x1A0A JUMP JUMPDEST SWAP1 PUSH1 0x64 CALLDATALOAD PUSH1 0x1 PUSH1 0x1 PUSH1 0x40 SHL SUB DUP2 GT PUSH2 0x1B0 JUMPI PUSH2 0x90F SWAP1 CALLDATASIZE SWAP1 PUSH1 0x4 ADD PUSH2 0x1A0A JUMP JUMPDEST PUSH1 0xC4 CALLDATALOAD SWAP3 SWAP2 SWAP1 PUSH1 0x1 PUSH1 0x1 PUSH1 0xA0 SHL SUB DUP5 AND DUP5 SUB PUSH2 0x1B0 JUMPI PUSH1 0x6 SLOAD CALLVALUE LT PUSH2 0xFAB JUMPI PUSH1 0x4 CALLDATALOAD PUSH1 0x0 MSTORE PUSH1 0x0 PUSH1 0x20 MSTORE PUSH1 0xD PUSH1 0x40 PUSH1 0x0 KECCAK256 ADD SLOAD PUSH2 0xF70 JUMPI TIMESTAMP PUSH1 0x84 CALLDATALOAD GT ISZERO PUSH2 0xF2B JUMPI DUP5 ISZERO PUSH2 0xEEF JUMPI PUSH1 0x1 PUSH1 0x1 PUSH1 0xA0 SHL SUB DUP5 AND ISZERO PUSH2 0xEB6 JUMPI PUSH2 0x985 PUSH2 0x991 SWAP4 PUSH1 0x40 MLOAD SWAP7 PUSH2 0x979 DUP9 PUSH2 0x1AA3 JUMP JUMPDEST PUSH1 0x24 CALLDATALOAD DUP9 MSTORE CALLDATASIZE SWAP2 PUSH2 0x1E9F JUMP JUMPDEST PUSH1 0x20 DUP7 ADD MSTORE CALLDATASIZE SWAP2 PUSH2 0x1E9F JUMP JUMPDEST PUSH1 0x40 DUP4 ADD MSTORE PUSH1 0x84 CALLDATALOAD PUSH1 0x60 DUP4 ADD MSTORE PUSH1 0xA4 CALLDATALOAD PUSH1 0x80 DUP4 ADD MSTORE PUSH1 0x1 DUP1 PUSH1 0xA0 SHL SUB AND PUSH1 0xA0 DUP3 ADD MSTORE PUSH1 0x0 PUSH1 0xC0 DUP3 ADD MSTORE PUSH1 0x0 PUSH1 0xE0 DUP3 ADD MSTORE PUSH1 0x0 PUSH2 0x100 DUP3 ADD MSTORE PUSH1 0x0 PUSH2 0x120 DUP3 ADD MSTORE PUSH1 0x0 PUSH2 0x140 DUP3 ADD MSTORE PUSH1 0x0 PUSH2 0x160 DUP3 ADD MSTORE PUSH1 0x40 MLOAD PUSH2 0x9ED DUP2 PUSH2 0x1ADA JUMP JUMPDEST PUSH1 0x0 DUP2 MSTORE PUSH2 0x180 DUP3 ADD MSTORE PUSH1 0x40 MLOAD PUSH2 0xA03 DUP2 PUSH2 0x1ADA JUMP JUMPDEST PUSH1 0x0 DUP2 MSTORE PUSH2 0x1A0 DUP3 ADD MSTORE TIMESTAMP PUSH2 0x1C0 DUP3 ADD MSTORE PUSH1 0x4 CALLDATALOAD PUSH1 0x0 MSTORE PUSH1 0x0 PUSH1 0x20 MSTORE PUSH1 0x40 PUSH1 0x0 KECCAK256 SWAP1 DUP1 MLOAD DUP3 SSTORE PUSH1 0x20 DUP2 ADD MLOAD SWAP2 DUP3 MLOAD PUSH1 0x1 PUSH1 0x1 PUSH1 0x40 SHL SUB DUP2 GT PUSH2 0x724 JUMPI PUSH2 0xA59 DUP2 PUSH2 0xA50 PUSH1 0x1 DUP6 ADD SLOAD PUSH2 0x1A69 JUMP JUMPDEST PUSH1 0x1 DUP6 ADD PUSH2 0x1DE2 JUMP JUMPDEST PUSH1 0x20 PUSH1 0x1F DUP3 GT PUSH1 0x1 EQ PUSH2 0xE48 JUMPI DUP2 SWAP1 PUSH2 0xA8B SWAP4 SWAP5 SWAP6 PUSH1 0x0 SWAP3 PUSH2 0xDCF JUMPI JUMPDEST POP POP DUP2 PUSH1 0x1 SHL SWAP2 PUSH1 0x0 NOT SWAP1 PUSH1 0x3 SHL SHR NOT AND OR SWAP1 JUMP JUMPDEST PUSH1 0x1 DUP3 ADD SSTORE JUMPDEST PUSH1 0x40 DUP3 ADD MLOAD SWAP2 DUP3 MLOAD PUSH1 0x1 PUSH1 0x1 PUSH1 0x40 SHL SUB DUP2 GT PUSH2 0x724 JUMPI PUSH2 0xAC1 DUP2 PUSH2 0xAB8 PUSH1 0x2 DUP7 ADD SLOAD PUSH2 0x1A69 JUMP JUMPDEST PUSH1 0x2 DUP7 ADD PUSH2 0x1DE2 JUMP JUMPDEST PUSH1 0x20 PUSH1 0x1F DUP3 GT PUSH1 0x1 EQ PUSH2 0xDDA JUMPI DUP2 SWAP1 PUSH2 0xAF2 SWAP4 SWAP5 SWAP6 PUSH1 0x0 SWAP3 PUSH2 0xDCF JUMPI POP POP DUP2 PUSH1 0x1 SHL SWAP2 PUSH1 0x0 NOT SWAP1 PUSH1 0x3 SHL SHR NOT AND OR SWAP1 JUMP JUMPDEST PUSH1 0x2 DUP4 ADD SSTORE JUMPDEST PUSH1 0x60 DUP2 ADD MLOAD PUSH1 0x3 DUP4 ADD SSTORE PUSH1 0x80 DUP2 ADD MLOAD PUSH1 0x4 DUP4 ADD SSTORE PUSH1 0x5 DUP3 ADD PUSH1 0x1 DUP1 PUSH1 0xA0 SHL SUB PUSH1 0xA0 DUP4 ADD MLOAD AND PUSH12 0xFFFFFFFFFFFFFFFFFFFFFFFF PUSH1 0xA0 SHL DUP3 SLOAD AND OR SWAP1 SSTORE PUSH1 0xC0 DUP2 ADD MLOAD PUSH1 0x6 DUP4 ADD SSTORE PUSH1 0xE0 DUP2 ADD MLOAD PUSH1 0x7 DUP4 ADD SSTORE PUSH2 0x100 DUP2 ADD MLOAD PUSH1 0x8 DUP4 ADD SSTORE PUSH2 0x120 DUP2 ADD MLOAD PUSH1 0x9 DUP4 ADD SSTORE PUSH2 0xB9D PUSH1 0xA DUP4 ADD PUSH2 0xB81 PUSH2 0x140 DUP5 ADD MLOAD ISZERO ISZERO DUP3 SWAP1 PUSH1 0xFF DUP1 NOT DUP4 SLOAD AND SWAP2 ISZERO ISZERO AND OR SWAP1 SSTORE JUMP JUMPDEST PUSH2 0x160 DUP4 ADD MLOAD DUP2 SLOAD PUSH2 0xFF00 NOT AND SWAP1 ISZERO ISZERO PUSH1 0x8 SHL PUSH2 0xFF00 AND OR SWAP1 SSTORE JUMP JUMPDEST PUSH1 0xB DUP3 ADD SWAP2 PUSH2 0x180 DUP3 ADD MLOAD SWAP3 DUP4 MLOAD PUSH1 0x1 PUSH1 0x1 PUSH1 0x40 SHL SUB DUP2 GT PUSH2 0x724 JUMPI PUSH2 0xBCD DUP2 PUSH2 0xBC7 DUP5 SLOAD PUSH2 0x1A69 JUMP JUMPDEST DUP5 PUSH2 0x1DE2 JUMP JUMPDEST PUSH1 0x20 SWAP5 PUSH1 0x1F DUP3 GT PUSH1 0x1 EQ PUSH2 0xD69 JUMPI PUSH2 0xC00 SWAP3 SWAP4 SWAP5 SWAP6 DUP3 SWAP2 PUSH1 0x0 SWAP3 PUSH2 0xD5E JUMPI POP POP DUP2 PUSH1 0x1 SHL SWAP2 PUSH1 0x0 NOT SWAP1 PUSH1 0x3 SHL SHR NOT AND OR SWAP1 JUMP JUMPDEST SWAP1 SSTORE JUMPDEST PUSH1 0xC DUP2 ADD SWAP2 PUSH2 0x1A0 DUP2 ADD MLOAD SWAP3 DUP4 MLOAD PUSH1 0x1 PUSH1 0x1 PUSH1 0x40 SHL SUB DUP2 GT PUSH2 0x724 JUMPI PUSH2 0xC2D DUP2 PUSH2 0xBC7 DUP5 SLOAD PUSH2 0x1A69 JUMP JUMPDEST PUSH1 0x20 PUSH1 0x1F DUP3 GT PUSH1 0x1 EQ PUSH2 0xCEF JUMPI DUP2 PUSH2 0x1C0 SWAP5 SWAP4 SWAP3 PUSH2 0xC65 SWAP3 PUSH1 0xD SWAP8 SWAP9 PUSH1 0x0 SWAP3 PUSH2 0xCE4 JUMPI POP POP DUP2 PUSH1 0x1 SHL SWAP2 PUSH1 0x0 NOT SWAP1 PUSH1 0x3 SHL SHR NOT AND OR SWAP1 JUMP JUMPDEST SWAP1 SSTORE JUMPDEST ADD MLOAD SWAP2 ADD SSTORE PUSH1 0x3 SLOAD PUSH1 0x1 PUSH1 0x40 SHL DUP2 LT ISZERO PUSH2 0x724 JUMPI PUSH2 0xC8F DUP2 PUSH1 0x1 PUSH2 0xCAB SWAP4 ADD PUSH1 0x3 SSTORE PUSH2 0x19BB JUMP JUMPDEST PUSH1 0x4 SWAP3 SWAP2 SWAP3 CALLDATALOAD SWAP1 DUP4 SLOAD SWAP1 PUSH1 0x3 SHL SWAP2 DUP3 SHL SWAP2 PUSH1 0x0 NOT SWAP1 SHL NOT AND OR SWAP1 JUMP JUMPDEST SWAP1 SSTORE PUSH1 0x40 MLOAD PUSH1 0x84 CALLDATALOAD DUP2 MSTORE CALLER SWAP1 PUSH1 0x24 CALLDATALOAD SWAP1 PUSH31 0x3E8B8D9BEF2F94BD17761E943B0070E5698C4A7EA2A9DCF24C23334D20990D PUSH1 0x20 PUSH1 0x4 CALLDATALOAD SWAP3 LOG4 STOP JUMPDEST ADD MLOAD SWAP1 POP DUP9 DUP1 PUSH2 0xA76 JUMP JUMPDEST PUSH1 0x1F NOT DUP3 AND SWAP6 DUP4 PUSH1 0x0 MSTORE PUSH1 0x20 PUSH1 0x0 KECCAK256 SWAP7 PUSH1 0x0 JUMPDEST DUP2 DUP2 LT PUSH2 0xD46 JUMPI POP SWAP7 PUSH1 0x1 SWAP3 DUP5 SWAP3 PUSH2 0x1C0 SWAP8 SWAP7 SWAP6 PUSH1 0xD SWAP10 SWAP11 LT PUSH2 0xD2D JUMPI JUMPDEST POP POP POP DUP2 SHL ADD SWAP1 SSTORE PUSH2 0xC68 JUMP JUMPDEST ADD MLOAD PUSH1 0x0 NOT PUSH1 0xF8 DUP5 PUSH1 0x3 SHL AND SHR NOT AND SWAP1 SSTORE DUP8 DUP1 DUP1 PUSH2 0xD20 JUMP JUMPDEST DUP4 DUP4 ADD MLOAD DUP10 SSTORE PUSH1 0x1 SWAP1 SWAP9 ADD SWAP8 PUSH1 0x20 SWAP4 DUP5 ADD SWAP4 ADD PUSH2 0xD02 JUMP JUMPDEST ADD MLOAD SWAP1 POP DUP7 DUP1 PUSH2 0xA76 JUMP JUMPDEST PUSH1 0x1F NOT DUP3 AND SWAP6 DUP4 PUSH1 0x0 MSTORE PUSH1 0x20 PUSH1 0x0 KECCAK256 SWAP2 PUSH1 0x0 JUMPDEST DUP9 DUP2 LT PUSH2 0xDB7 JUMPI POP DUP4 PUSH1 0x1 SWAP6 SWAP7 SWAP8 SWAP9 LT PUSH2 0xD9E JUMPI JUMPDEST POP POP POP DUP2 SHL ADD SWAP1 SSTORE PUSH2 0xC03 JUMP JUMPDEST ADD MLOAD PUSH1 0x0 NOT PUSH1 0xF8 DUP5 PUSH1 0x3 SHL AND SHR NOT AND SWAP1 SSTORE DUP6 DUP1 DUP1 PUSH2 0xD91 JUMP JUMPDEST SWAP2 SWAP3 PUSH1 0x20 PUSH1 0x1 DUP2 SWAP3 DUP7 DUP6 ADD MLOAD DUP2 SSTORE ADD SWAP5 ADD SWAP3 ADD PUSH2 0xD7C JUMP JUMPDEST ADD MLOAD SWAP1 POP DUP6 DUP1 PUSH2 0xA76 JUMP JUMPDEST PUSH1 0x2 DUP5 ADD PUSH1 0x0 MSTORE PUSH1 0x20 PUSH1 0x0 KECCAK256 SWAP1 PUSH1 0x0 JUMPDEST PUSH1 0x1F NOT DUP5 AND DUP2 LT PUSH2 0xE30 JUMPI POP PUSH1 0x1 SWAP4 SWAP5 SWAP6 DUP4 PUSH1 0x1F NOT DUP2 AND LT PUSH2 0xE17 JUMPI JUMPDEST POP POP POP DUP2 SHL ADD PUSH1 0x2 DUP4 ADD SSTORE PUSH2 0xAF8 JUMP JUMPDEST ADD MLOAD PUSH1 0x0 NOT PUSH1 0xF8 DUP5 PUSH1 0x3 SHL AND SHR NOT AND SWAP1 SSTORE DUP5 DUP1 DUP1 PUSH2 0xE07 JUMP JUMPDEST SWAP1 SWAP2 PUSH1 0x20 PUSH1 0x1 DUP2 SWAP3 DUP6 DUP11 ADD MLOAD DUP2 SSTORE ADD SWAP4 ADD SWAP2 ADD PUSH2 0xDEA JUMP JUMPDEST PUSH1 0x1 DUP4 ADD PUSH1 0x0 MSTORE PUSH1 0x20 PUSH1 0x0 KECCAK256 SWAP1 PUSH1 0x0 JUMPDEST PUSH1 0x1F NOT DUP5 AND DUP2 LT PUSH2 0xE9E JUMPI POP PUSH1 0x1 SWAP4 SWAP5 SWAP6 DUP4 PUSH1 0x1F NOT DUP2 AND LT PUSH2 0xE85 JUMPI JUMPDEST POP POP POP DUP2 SHL ADD PUSH1 0x1 DUP3 ADD SSTORE PUSH2 0xA91 JUMP JUMPDEST ADD MLOAD PUSH1 0x0 NOT PUSH1 0xF8 DUP5 PUSH1 0x3 SHL AND SHR NOT AND SWAP1 SSTORE DUP5 DUP1 DUP1 PUSH2 0xE75 JUMP JUMPDEST SWAP1 SWAP2 PUSH1 0x20 PUSH1 0x1 DUP2 SWAP3 DUP6 DUP11 ADD MLOAD DUP2 SSTORE ADD SWAP4 ADD SWAP2 ADD PUSH2 0xE58 JUMP JUMPDEST PUSH1 0x40 MLOAD PUSH3 0x461BCD PUSH1 0xE5 SHL DUP2 MSTORE PUSH1 0x20 PUSH1 0x4 DUP3 ADD MSTORE PUSH1 0x11 PUSH1 0x24 DUP3 ADD MSTORE PUSH17 0x14995CDBDB1D995C881C995C5D5A5C9959 PUSH1 0x7A SHL PUSH1 0x44 DUP3 ADD MSTORE PUSH1 0x64 SWAP1 REVERT JUMPDEST PUSH1 0x40 MLOAD PUSH3 0x461BCD PUSH1 0xE5 SHL DUP2 MSTORE PUSH1 0x20 PUSH1 0x4 DUP3 ADD MSTORE PUSH1 0x14 PUSH1 0x24 DUP3 ADD MSTORE PUSH20 0x11195CD8DC9A5C1D1A5BDB881C995C5D5A5C9959 PUSH1 0x62 SHL PUSH1 0x44 DUP3 ADD MSTORE PUSH1 0x64 SWAP1 REVERT JUMPDEST PUSH1 0x40 MLOAD PUSH3 0x461BCD PUSH1 0xE5 SHL DUP2 MSTORE PUSH1 0x20 PUSH1 0x4 DUP3 ADD MSTORE PUSH1 0x1A PUSH1 0x24 DUP3 ADD MSTORE PUSH32 0x446561646C696E65206D75737420626520696E20667574757265000000000000 PUSH1 0x44 DUP3 ADD MSTORE PUSH1 0x64 SWAP1 REVERT JUMPDEST PUSH1 0x40 MLOAD PUSH3 0x461BCD PUSH1 0xE5 SHL DUP2 MSTORE PUSH1 0x20 PUSH1 0x4 DUP3 ADD MSTORE PUSH1 0x13 PUSH1 0x24 DUP3 ADD MSTORE PUSH19 0x5461736B20616C726561647920657869737473 PUSH1 0x68 SHL PUSH1 0x44 DUP3 ADD MSTORE PUSH1 0x64 SWAP1 REVERT JUMPDEST PUSH1 0x40 MLOAD PUSH3 0x461BCD PUSH1 0xE5 SHL DUP2 MSTORE PUSH1 0x20 PUSH1 0x4 DUP3 ADD MSTORE PUSH1 0x17 PUSH1 0x24 DUP3 ADD MSTORE PUSH32 0x496E73756666696369656E74207461736B207374616B65000000000000000000 PUSH1 0x44 DUP3 ADD MSTORE PUSH1 0x64 SWAP1 REVERT JUMPDEST CALLVALUE PUSH2 0x1B0 JUMPI PUSH1 0x0 CALLDATASIZE PUSH1 0x3 NOT ADD SLT PUSH2 0x1B0 JUMPI PUSH1 0x20 PUSH1 0x6 SLOAD PUSH1 0x40 MLOAD SWAP1 DUP2 MSTORE RETURN JUMPDEST PUSH1 0x20 DUP1 PUSH1 0x3 NOT CALLDATASIZE ADD SLT PUSH2 0x1B0 JUMPI PUSH1 0x4 CALLDATALOAD DUP1 PUSH1 0x0 MSTORE PUSH1 0x0 DUP3 MSTORE PUSH2 0x1039 PUSH1 0xD PUSH1 0x40 PUSH1 0x0 KECCAK256 ADD SLOAD ISZERO ISZERO PUSH2 0x1BBB JUMP JUMPDEST DUP1 PUSH1 0x0 MSTORE PUSH1 0x0 DUP3 MSTORE PUSH2 0x1056 PUSH1 0xFF PUSH1 0xA PUSH1 0x40 PUSH1 0x0 KECCAK256 ADD SLOAD AND ISZERO PUSH2 0x1BFD JUMP JUMPDEST DUP1 PUSH1 0x0 MSTORE PUSH1 0x0 DUP3 MSTORE PUSH2 0x1071 PUSH1 0x3 PUSH1 0x40 PUSH1 0x0 KECCAK256 ADD SLOAD TIMESTAMP LT PUSH2 0x1C41 JUMP JUMPDEST PUSH2 0x107C CALLVALUE ISZERO ISZERO PUSH2 0x1C84 JUMP JUMPDEST DUP1 PUSH1 0x0 MSTORE PUSH1 0x0 DUP3 MSTORE PUSH1 0x6 PUSH1 0x40 PUSH1 0x0 KECCAK256 ADD PUSH2 0x1097 CALLVALUE DUP3 SLOAD PUSH2 0x1CC2 JUMP JUMPDEST SWAP1 SSTORE DUP1 PUSH1 0x0 MSTORE PUSH1 0x0 DUP3 MSTORE PUSH1 0x8 PUSH1 0x40 PUSH1 0x0 KECCAK256 ADD PUSH2 0x10B4 CALLVALUE DUP3 SLOAD PUSH2 0x1CC2 JUMP JUMPDEST SWAP1 SSTORE PUSH2 0x10F3 PUSH1 0x40 MLOAD PUSH2 0x10C5 DUP2 PUSH2 0x1ABF JUMP JUMPDEST CALLER DUP2 MSTORE PUSH1 0x1 DUP5 DUP3 ADD MSTORE CALLVALUE PUSH1 0x40 DUP3 ADD MSTORE CALLVALUE PUSH1 0x60 DUP3 ADD MSTORE PUSH1 0x0 PUSH1 0x80 DUP3 ADD MSTORE DUP3 PUSH1 0x0 MSTORE PUSH1 0x1 DUP5 MSTORE PUSH1 0x40 PUSH1 0x0 KECCAK256 PUSH2 0x1CCF JUMP JUMPDEST DUP1 PUSH1 0x0 MSTORE PUSH1 0x2 DUP3 MSTORE PUSH1 0x40 PUSH1 0x0 KECCAK256 CALLER PUSH1 0x0 MSTORE DUP3 MSTORE PUSH1 0x40 PUSH1 0x0 KECCAK256 DUP2 PUSH1 0x0 MSTORE PUSH1 0x1 DUP4 MSTORE PUSH1 0x40 PUSH1 0x0 KECCAK256 SLOAD PUSH1 0x0 NOT DUP2 ADD SWAP1 DUP2 GT PUSH2 0x1169 JUMPI PUSH2 0x112E SWAP2 PUSH2 0x1D6C JUMP JUMPDEST PUSH1 0x40 MLOAD SWAP2 PUSH1 0x1 DUP4 MSTORE CALLVALUE SWAP1 DUP4 ADD MSTORE CALLVALUE PUSH1 0x40 DUP4 ADD MSTORE PUSH32 0xE796A03BAE1100E2202FB705A842D38AD33DB974ECD6EF87896B67234111AE3 PUSH1 0x60 CALLER SWAP4 LOG3 STOP JUMPDEST PUSH4 0x4E487B71 PUSH1 0xE0 SHL PUSH1 0x0 MSTORE PUSH1 0x11 PUSH1 0x4 MSTORE PUSH1 0x24 PUSH1 0x0 REVERT JUMPDEST CALLVALUE PUSH2 0x1B0 JUMPI PUSH1 0x20 DUP1 PUSH1 0x3 NOT CALLDATASIZE ADD SLT PUSH2 0x1B0 JUMPI PUSH1 0x4 CALLDATALOAD PUSH1 0x0 MSTORE PUSH1 0x1 SWAP1 PUSH1 0x1 DUP2 MSTORE PUSH1 0x40 PUSH1 0x0 KECCAK256 DUP1 SLOAD PUSH1 0x1 PUSH1 0x1 PUSH1 0x40 SHL SUB DUP2 GT PUSH2 0x724 JUMPI DUP4 DUP4 PUSH1 0x40 MLOAD SWAP3 PUSH2 0x11C8 DUP3 DUP3 PUSH1 0x5 SHL ADD DUP6 PUSH2 0x1AF5 JUMP JUMPDEST DUP1 DUP5 MSTORE DUP2 DUP5 ADD DUP1 SWAP6 PUSH1 0x0 MSTORE DUP3 PUSH1 0x0 KECCAK256 PUSH1 0x0 SWAP2 JUMPDEST DUP4 DUP4 LT PUSH2 0x1255 JUMPI POP POP POP POP PUSH1 0x40 MLOAD SWAP3 DUP2 DUP5 ADD SWAP1 DUP3 DUP6 MSTORE MLOAD DUP1 SWAP2 MSTORE PUSH1 0x40 DUP5 ADD SWAP5 SWAP2 PUSH1 0x0 JUMPDEST DUP3 DUP2 LT PUSH2 0x120B JUMPI DUP6 DUP8 SUB DUP7 RETURN JUMPDEST DUP4 MLOAD DUP1 MLOAD PUSH1 0x1 PUSH1 0x1 PUSH1 0xA0 SHL SUB AND DUP9 MSTORE DUP3 DUP2 ADD MLOAD ISZERO ISZERO DUP4 DUP10 ADD MSTORE PUSH1 0x40 DUP1 DUP3 ADD MLOAD SWAP1 DUP10 ADD MSTORE PUSH1 0x60 DUP1 DUP3 ADD MLOAD SWAP1 DUP10 ADD MSTORE PUSH1 0x80 SWAP1 DUP2 ADD MLOAD ISZERO ISZERO SWAP1 DUP9 ADD MSTORE PUSH1 0xA0 SWAP1 SWAP7 ADD SWAP6 SWAP3 DUP2 ADD SWAP3 DUP5 ADD PUSH2 0x11FE JUMP JUMPDEST SWAP5 PUSH1 0x4 DUP6 DUP3 SWAP10 SWAP8 PUSH2 0x1268 DUP6 SWAP11 SWAP9 SWAP11 PUSH2 0x1E38 JUMP JUMPDEST DUP2 MSTORE ADD SWAP3 ADD SWAP3 ADD SWAP2 SWAP1 SWAP7 SWAP5 SWAP7 SWAP6 SWAP4 SWAP6 PUSH2 0x11DB JUMP JUMPDEST CALLVALUE PUSH2 0x1B0 JUMPI PUSH1 0x0 CALLDATASIZE PUSH1 0x3 NOT ADD SLT PUSH2 0x1B0 JUMPI PUSH1 0x4 SLOAD PUSH1 0x40 MLOAD PUSH1 0x1 PUSH1 0x1 PUSH1 0xA0 SHL SUB SWAP1 SWAP2 AND DUP2 MSTORE PUSH1 0x20 SWAP1 RETURN JUMPDEST CALLVALUE PUSH2 0x1B0 JUMPI PUSH2 0x12B3 CALLDATASIZE PUSH2 0x1A37 JUMP JUMPDEST SWAP1 PUSH1 0x0 MSTORE PUSH1 0x1 PUSH1 0x20 MSTORE PUSH1 0x40 PUSH1 0x0 KECCAK256 DUP1 SLOAD DUP3 LT ISZERO PUSH2 0x1B0 JUMPI PUSH1 0xA0 SWAP2 PUSH2 0x12D6 SWAP2 PUSH2 0x1A4D JUMP JUMPDEST POP DUP1 SLOAD SWAP1 PUSH1 0x1 DUP2 ADD SLOAD SWAP1 PUSH1 0xFF PUSH1 0x3 PUSH1 0x2 DUP4 ADD SLOAD SWAP3 ADD SLOAD AND SWAP2 PUSH1 0xFF PUSH1 0x40 MLOAD SWAP5 PUSH1 0x1 DUP1 DUP9 SHL SUB DUP2 AND DUP7 MSTORE DUP7 SHR AND ISZERO ISZERO PUSH1 0x20 DUP6 ADD MSTORE PUSH1 0x40 DUP5 ADD MSTORE PUSH1 0x60 DUP4 ADD MSTORE ISZERO ISZERO PUSH1 0x80 DUP3 ADD MSTORE RETURN JUMPDEST CALLVALUE PUSH2 0x1B0 JUMPI PUSH1 0x0 CALLDATASIZE PUSH1 0x3 NOT ADD SLT PUSH2 0x1B0 JUMPI PUSH1 0x5 SLOAD PUSH1 0x40 MLOAD PUSH1 0x1 PUSH1 0x1 PUSH1 0xA0 SHL SUB SWAP1 SWAP2 AND DUP2 MSTORE PUSH1 0x20 SWAP1 RETURN JUMPDEST CALLVALUE PUSH2 0x1B0 JUMPI PUSH1 0x20 CALLDATASIZE PUSH1 0x3 NOT ADD SLT PUSH2 0x1B0 JUMPI PUSH1 0x4 CALLDATALOAD PUSH1 0x3 SLOAD DUP2 LT ISZERO PUSH2 0x1B0 JUMPI PUSH2 0x136D PUSH1 0x20 SWAP2 PUSH2 0x19BB JUMP JUMPDEST SWAP1 SLOAD SWAP1 PUSH1 0x3 SHL SHR PUSH1 0x40 MLOAD SWAP1 DUP2 MSTORE RETURN JUMPDEST CALLVALUE PUSH2 0x1B0 JUMPI PUSH1 0x20 CALLDATASIZE PUSH1 0x3 NOT ADD SLT PUSH2 0x1B0 JUMPI PUSH1 0x4 CALLDATALOAD PUSH1 0x1 PUSH1 0x1 PUSH1 0xA0 SHL SUB DUP2 DUP2 AND SWAP2 DUP3 SWAP1 SUB PUSH2 0x1B0 JUMPI PUSH1 0x5 SLOAD AND CALLER SUB PUSH2 0x13CA JUMPI PUSH12 0xFFFFFFFFFFFFFFFFFFFFFFFF PUSH1 0xA0 SHL PUSH1 0x4 SLOAD AND OR PUSH1 0x4 SSTORE PUSH1 0x0 DUP1 RETURN JUMPDEST PUSH1 0x40 MLOAD PUSH3 0x461BCD PUSH1 0xE5 SHL DUP2 MSTORE PUSH1 0x20 PUSH1 0x4 DUP3 ADD MSTORE PUSH1 0x12 PUSH1 0x24 DUP3 ADD MSTORE PUSH18 0x2737BA1031B7B73A3930B1BA1037BBB732B9 PUSH1 0x71 SHL PUSH1 0x44 DUP3 ADD MSTORE PUSH1 0x64 SWAP1 REVERT JUMPDEST CALLVALUE PUSH2 0x1B0 JUMPI PUSH1 0x40 CALLDATASIZE PUSH1 0x3 NOT ADD SLT PUSH2 0x1B0 JUMPI PUSH1 0x4 CALLDATALOAD PUSH1 0x1 PUSH1 0x1 PUSH1 0x40 SHL SUB PUSH1 0x24 CALLDATALOAD DUP2 DUP2 GT PUSH2 0x1B0 JUMPI PUSH2 0x1438 SWAP1 CALLDATASIZE SWAP1 PUSH1 0x4 ADD PUSH2 0x1A0A JUMP JUMPDEST SWAP1 PUSH2 0x144E PUSH1 0x1 DUP1 PUSH1 0xA0 SHL SUB PUSH1 0x4 SLOAD AND CALLER EQ PUSH2 0x1DA9 JUMP JUMPDEST DUP4 PUSH1 0x0 MSTORE PUSH1 0x20 SWAP4 PUSH1 0x0 PUSH1 0x20 MSTORE PUSH2 0x146D PUSH1 0xD PUSH1 0x40 PUSH1 0x0 KECCAK256 ADD SLOAD ISZERO ISZERO PUSH2 0x1BBB JUMP JUMPDEST PUSH1 0x0 MSTORE PUSH1 0x0 PUSH1 0x20 MSTORE PUSH1 0xB PUSH1 0x40 PUSH1 0x0 KECCAK256 ADD SWAP3 DUP3 GT PUSH2 0x724 JUMPI PUSH2 0x1498 DUP3 PUSH2 0x1492 DUP6 SLOAD PUSH2 0x1A69 JUMP JUMPDEST DUP6 PUSH2 0x1DE2 JUMP JUMPDEST PUSH1 0x0 SWAP4 PUSH1 0x1F DUP4 GT PUSH1 0x1 EQ PUSH2 0x14D9 JUMPI POP PUSH2 0x14CA SWAP3 SWAP4 DUP3 SWAP2 PUSH1 0x0 SWAP3 PUSH2 0x14CE JUMPI POP POP DUP2 PUSH1 0x1 SHL SWAP2 PUSH1 0x0 NOT SWAP1 PUSH1 0x3 SHL SHR NOT AND OR SWAP1 JUMP JUMPDEST SWAP1 SSTORE STOP JUMPDEST ADD CALLDATALOAD SWAP1 POP DUP5 DUP1 PUSH2 0xA76 JUMP JUMPDEST SWAP1 PUSH1 0x1F NOT DUP4 AND SWAP5 DUP5 PUSH1 0x0 MSTORE PUSH1 0x20 PUSH1 0x0 KECCAK256 SWAP3 PUSH1 0x0 SWAP1 JUMPDEST DUP8 DUP3 LT PUSH2 0x1526 JUMPI POP POP DUP4 PUSH1 0x1 SWAP6 SWAP7 LT PUSH2 0x150C JUMPI JUMPDEST POP POP POP DUP2 SHL ADD SWAP1 SSTORE STOP JUMPDEST ADD CALLDATALOAD PUSH1 0x0 NOT PUSH1 0x3 DUP5 SWAP1 SHL PUSH1 0xF8 AND SHR NOT AND SWAP1 SSTORE DUP4 DUP1 DUP1 PUSH2 0x1502 JUMP JUMPDEST DUP1 PUSH1 0x1 DUP5 SWAP7 DUP3 SWAP5 SWAP6 DUP8 ADD CALLDATALOAD DUP2 SSTORE ADD SWAP6 ADD SWAP3 ADD SWAP1 PUSH2 0x14EE JUMP JUMPDEST PUSH1 0x20 DUP1 PUSH1 0x3 NOT CALLDATASIZE ADD SLT PUSH2 0x1B0 JUMPI PUSH1 0x4 CALLDATALOAD DUP1 PUSH1 0x0 MSTORE PUSH1 0x0 DUP3 MSTORE PUSH2 0x1569 PUSH1 0xD PUSH1 0x40 PUSH1 0x0 KECCAK256 ADD SLOAD ISZERO ISZERO PUSH2 0x1BBB JUMP JUMPDEST DUP1 PUSH1 0x0 MSTORE PUSH1 0x0 DUP3 MSTORE PUSH2 0x1586 PUSH1 0xFF PUSH1 0xA PUSH1 0x40 PUSH1 0x0 KECCAK256 ADD SLOAD AND ISZERO PUSH2 0x1BFD JUMP JUMPDEST DUP1 PUSH1 0x0 MSTORE PUSH1 0x0 DUP3 MSTORE PUSH2 0x15A1 PUSH1 0x3 PUSH1 0x40 PUSH1 0x0 KECCAK256 ADD SLOAD TIMESTAMP LT PUSH2 0x1C41 JUMP JUMPDEST PUSH2 0x15AC CALLVALUE ISZERO ISZERO PUSH2 0x1C84 JUMP JUMPDEST DUP1 PUSH1 0x0 MSTORE PUSH1 0x0 DUP3 MSTORE PUSH1 0x7 PUSH1 0x40 PUSH1 0x0 KECCAK256 ADD PUSH2 0x15C7 CALLVALUE DUP3 SLOAD PUSH2 0x1CC2 JUMP JUMPDEST SWAP1 SSTORE DUP1 PUSH1 0x0 MSTORE PUSH1 0x0 DUP3 MSTORE PUSH1 0x9 PUSH1 0x40 PUSH1 0x0 KECCAK256 ADD PUSH2 0x15E4 CALLVALUE DUP3 SLOAD PUSH2 0x1CC2 JUMP JUMPDEST SWAP1 SSTORE PUSH2 0x1623 PUSH1 0x40 MLOAD PUSH2 0x15F5 DUP2 PUSH2 0x1ABF JUMP JUMPDEST CALLER DUP2 MSTORE PUSH1 0x0 DUP5 DUP3 ADD MSTORE CALLVALUE PUSH1 0x40 DUP3 ADD MSTORE CALLVALUE PUSH1 0x60 DUP3 ADD MSTORE PUSH1 0x0 PUSH1 0x80 DUP3 ADD MSTORE DUP3 PUSH1 0x0 MSTORE PUSH1 0x1 DUP5 MSTORE PUSH1 0x40 PUSH1 0x0 KECCAK256 PUSH2 0x1CCF JUMP JUMPDEST DUP1 PUSH1 0x0 MSTORE PUSH1 0x2 DUP3 MSTORE PUSH1 0x40 PUSH1 0x0 KECCAK256 CALLER PUSH1 0x0 MSTORE DUP3 MSTORE PUSH1 0x40 PUSH1 0x0 KECCAK256 DUP2 PUSH1 0x0 MSTORE PUSH1 0x1 DUP4 MSTORE PUSH1 0x40 PUSH1 0x0 KECCAK256 SLOAD PUSH1 0x0 NOT DUP2 ADD SWAP1 DUP2 GT PUSH2 0x1169 JUMPI PUSH2 0x165E SWAP2 PUSH2 0x1D6C JUMP JUMPDEST PUSH1 0x40 MLOAD SWAP2 PUSH1 0x0 DUP4 MSTORE CALLVALUE SWAP1 DUP4 ADD MSTORE CALLVALUE PUSH1 0x40 DUP4 ADD MSTORE PUSH32 0xE796A03BAE1100E2202FB705A842D38AD33DB974ECD6EF87896B67234111AE3 PUSH1 0x60 CALLER SWAP4 LOG3 STOP JUMPDEST CALLVALUE PUSH2 0x1B0 JUMPI PUSH1 0x0 CALLDATASIZE PUSH1 0x3 NOT ADD SLT PUSH2 0x1B0 JUMPI PUSH1 0x20 PUSH1 0x3 SLOAD PUSH1 0x40 MLOAD SWAP1 DUP2 MSTORE RETURN JUMPDEST CALLVALUE PUSH2 0x1B0 JUMPI PUSH1 0x60 CALLDATASIZE PUSH1 0x3 NOT ADD SLT PUSH2 0x1B0 JUMPI PUSH2 0x16D0 PUSH2 0x19A5 JUMP JUMPDEST PUSH1 0x44 CALLDATALOAD SWAP1 PUSH1 0x4 CALLDATALOAD PUSH1 0x0 MSTORE PUSH1 0x2 PUSH1 0x20 MSTORE PUSH1 0x40 PUSH1 0x0 KECCAK256 SWAP1 PUSH1 0x1 DUP1 PUSH1 0xA0 SHL SUB AND PUSH1 0x0 MSTORE PUSH1 0x20 MSTORE PUSH1 0x40 PUSH1 0x0 KECCAK256 DUP1 SLOAD DUP3 LT ISZERO PUSH2 0x1B0 JUMPI PUSH1 0x20 SWAP2 PUSH2 0x170D SWAP2 PUSH2 0x19F2 JUMP JUMPDEST SWAP1 SLOAD PUSH1 0x40 MLOAD SWAP2 PUSH1 0x3 SHL SHR DUP2 MSTORE RETURN JUMPDEST CALLVALUE PUSH2 0x1B0 JUMPI PUSH1 0x20 CALLDATASIZE PUSH1 0x3 NOT ADD SLT PUSH2 0x1B0 JUMPI PUSH2 0x1736 PUSH1 0x80 PUSH2 0x1AA3 JUMP JUMPDEST PUSH1 0x0 PUSH1 0x80 DUP2 SWAP1 MSTORE PUSH1 0x60 PUSH1 0xA0 DUP2 SWAP1 MSTORE PUSH1 0xC0 DUP2 SWAP1 MSTORE PUSH1 0xE0 DUP3 SWAP1 MSTORE PUSH2 0x100 DUP3 SWAP1 MSTORE PUSH2 0x120 DUP3 SWAP1 MSTORE PUSH2 0x140 DUP3 SWAP1 MSTORE PUSH2 0x160 DUP3 SWAP1 MSTORE PUSH2 0x180 DUP3 SWAP1 MSTORE PUSH2 0x1A0 DUP3 SWAP1 MSTORE PUSH2 0x1C0 DUP3 SWAP1 MSTORE PUSH2 0x1E0 DUP3 SWAP1 MSTORE PUSH2 0x200 DUP2 SWAP1 MSTORE PUSH2 0x220 MSTORE PUSH2 0x240 DUP2 SWAP1 MSTORE PUSH1 0x4 CALLDATALOAD DUP2 MSTORE PUSH1 0x20 DUP2 SWAP1 MSTORE PUSH1 0x40 SWAP1 DUP2 SWAP1 KECCAK256 SWAP1 MLOAD SWAP1 PUSH1 0xD SWAP1 PUSH2 0x17AD DUP4 PUSH2 0x1AA3 JUMP JUMPDEST DUP1 SLOAD DUP4 MSTORE PUSH2 0x17BD PUSH1 0x1 DUP3 ADD PUSH2 0x1B16 JUMP JUMPDEST PUSH1 0x20 DUP5 ADD MSTORE PUSH2 0x17CE PUSH1 0x2 DUP3 ADD PUSH2 0x1B16 JUMP JUMPDEST PUSH1 0x40 DUP5 ADD MSTORE PUSH1 0x3 DUP2 ADD SLOAD PUSH1 0x60 DUP5 ADD MSTORE PUSH1 0x4 DUP2 ADD SLOAD PUSH1 0x80 DUP5 ADD MSTORE PUSH1 0x5 DUP2 ADD SLOAD PUSH1 0x1 PUSH1 0x1 PUSH1 0xA0 SHL SUB AND PUSH1 0xA0 DUP5 ADD MSTORE PUSH1 0x6 DUP2 ADD SLOAD PUSH1 0xC0 DUP5 ADD MSTORE PUSH1 0x7 DUP2 ADD SLOAD PUSH1 0xE0 DUP5 ADD MSTORE PUSH1 0x8 DUP1 DUP3 ADD SLOAD PUSH2 0x100 DUP6 ADD MSTORE PUSH1 0x9 DUP3 ADD SLOAD PUSH2 0x120 DUP6 ADD MSTORE PUSH1 0xA DUP3 ADD SLOAD PUSH1 0xFF DUP2 DUP2 AND ISZERO ISZERO PUSH2 0x140 DUP8 ADD MSTORE SWAP2 SHR AND ISZERO ISZERO PUSH2 0x160 DUP5 ADD MSTORE PUSH2 0x184E PUSH1 0xB DUP3 ADD PUSH2 0x1B16 JUMP JUMPDEST PUSH2 0x180 DUP5 ADD MSTORE PUSH2 0x1860 PUSH1 0xC DUP3 ADD PUSH2 0x1B16 JUMP JUMPDEST PUSH2 0x1A0 DUP5 ADD MSTORE ADD SLOAD PUSH2 0x1C0 DUP3 ADD MSTORE PUSH1 0x40 MLOAD DUP1 SWAP2 PUSH1 0x20 DUP3 MSTORE DUP1 MLOAD PUSH1 0x20 DUP4 ADD MSTORE PUSH2 0x1C0 PUSH2 0x1958 PUSH2 0x1942 PUSH2 0x18BB PUSH2 0x18A5 PUSH1 0x20 DUP7 ADD MLOAD PUSH2 0x1E0 PUSH1 0x40 DUP10 ADD MSTORE PUSH2 0x200 DUP9 ADD SWAP1 PUSH2 0x1965 JUMP JUMPDEST PUSH1 0x40 DUP7 ADD MLOAD DUP8 DUP3 SUB PUSH1 0x1F NOT ADD PUSH1 0x60 DUP10 ADD MSTORE PUSH2 0x1965 JUMP JUMPDEST PUSH1 0x60 DUP6 ADD MLOAD PUSH1 0x80 DUP8 ADD MSTORE PUSH1 0x80 DUP6 ADD MLOAD PUSH1 0xA0 DUP8 ADD MSTORE PUSH1 0x1 DUP1 PUSH1 0xA0 SHL SUB PUSH1 0xA0 DUP7 ADD MLOAD AND PUSH1 0xC0 DUP8 ADD MSTORE PUSH1 0xC0 DUP6 ADD MLOAD PUSH1 0xE0 DUP8 ADD MSTORE PUSH1 0xE0 DUP6 ADD MLOAD PUSH2 0x100 DUP8 ADD MSTORE PUSH2 0x100 DUP6 ADD MLOAD PUSH2 0x120 DUP8 ADD MSTORE PUSH2 0x120 DUP6 ADD MLOAD PUSH2 0x140 DUP8 ADD MSTORE PUSH2 0x140 DUP6 ADD MLOAD ISZERO ISZERO PUSH2 0x160 DUP8 ADD MSTORE PUSH2 0x160 DUP6 ADD MLOAD ISZERO ISZERO PUSH2 0x180 DUP8 ADD MSTORE PUSH2 0x180 DUP6 ADD MLOAD PUSH1 0x1F NOT DUP8 DUP4 SUB ADD PUSH2 0x1A0 DUP9 ADD MSTORE PUSH2 0x1965 JUMP JUMPDEST PUSH2 0x1A0 DUP5 ADD MLOAD DUP6 DUP3 SUB PUSH1 0x1F NOT ADD DUP5 DUP8 ADD MSTORE PUSH2 0x1965 JUMP JUMPDEST SWAP2 ADD MLOAD PUSH2 0x1E0 DUP4 ADD MSTORE SUB SWAP1 RETURN JUMPDEST SWAP2 SWAP1 DUP3 MLOAD SWAP3 DUP4 DUP3 MSTORE PUSH1 0x0 JUMPDEST DUP5 DUP2 LT PUSH2 0x1991 JUMPI POP POP DUP3 PUSH1 0x0 PUSH1 0x20 DUP1 SWAP5 SWAP6 DUP5 ADD ADD MSTORE PUSH1 0x1F DUP1 NOT SWAP2 ADD AND ADD ADD SWAP1 JUMP JUMPDEST PUSH1 0x20 DUP2 DUP4 ADD DUP2 ADD MLOAD DUP5 DUP4 ADD DUP3 ADD MSTORE ADD PUSH2 0x1970 JUMP JUMPDEST PUSH1 0x24 CALLDATALOAD SWAP1 PUSH1 0x1 PUSH1 0x1 PUSH1 0xA0 SHL SUB DUP3 AND DUP3 SUB PUSH2 0x1B0 JUMPI JUMP JUMPDEST PUSH1 0x3 SLOAD DUP2 LT ISZERO PUSH2 0x3E5 JUMPI PUSH1 0x3 PUSH1 0x0 MSTORE PUSH32 0xC2575A0E9E593C00F959F8C92F12DB2869C3395A3B0502D05E2516446F71F85B ADD SWAP1 PUSH1 0x0 SWAP1 JUMP JUMPDEST DUP1 SLOAD DUP3 LT ISZERO PUSH2 0x3E5 JUMPI PUSH1 0x0 MSTORE PUSH1 0x20 PUSH1 0x0 KECCAK256 ADD SWAP1 PUSH1 0x0 SWAP1 JUMP JUMPDEST SWAP2 DUP2 PUSH1 0x1F DUP5 ADD SLT ISZERO PUSH2 0x1B0 JUMPI DUP3 CALLDATALOAD SWAP2 PUSH1 0x1 PUSH1 0x1 PUSH1 0x40 SHL SUB DUP4 GT PUSH2 0x1B0 JUMPI PUSH1 0x20 DUP4 DUP2 DUP7 ADD SWAP6 ADD ADD GT PUSH2 0x1B0 JUMPI JUMP JUMPDEST PUSH1 0x40 SWAP1 PUSH1 0x3 NOT ADD SLT PUSH2 0x1B0 JUMPI PUSH1 0x4 CALLDATALOAD SWAP1 PUSH1 0x24 CALLDATALOAD SWAP1 JUMP JUMPDEST DUP1 SLOAD DUP3 LT ISZERO PUSH2 0x3E5 JUMPI PUSH1 0x0 MSTORE PUSH1 0x20 PUSH1 0x0 KECCAK256 SWAP1 PUSH1 0x2 SHL ADD SWAP1 PUSH1 0x0 SWAP1 JUMP JUMPDEST SWAP1 PUSH1 0x1 DUP3 DUP2 SHR SWAP3 AND DUP1 ISZERO PUSH2 0x1A99 JUMPI JUMPDEST PUSH1 0x20 DUP4 LT EQ PUSH2 0x1A83 JUMPI JUMP JUMPDEST PUSH4 0x4E487B71 PUSH1 0xE0 SHL PUSH1 0x0 MSTORE PUSH1 0x22 PUSH1 0x4 MSTORE PUSH1 0x24 PUSH1 0x0 REVERT JUMPDEST SWAP2 PUSH1 0x7F AND SWAP2 PUSH2 0x1A78 JUMP JUMPDEST PUSH2 0x1E0 DUP2 ADD SWAP1 DUP2 LT PUSH1 0x1 PUSH1 0x1 PUSH1 0x40 SHL SUB DUP3 GT OR PUSH2 0x724 JUMPI PUSH1 0x40 MSTORE JUMP JUMPDEST PUSH1 0xA0 DUP2 ADD SWAP1 DUP2 LT PUSH1 0x1 PUSH1 0x1 PUSH1 0x40 SHL SUB DUP3 GT OR PUSH2 0x724 JUMPI PUSH1 0x40 MSTORE JUMP JUMPDEST PUSH1 0x20 DUP2 ADD SWAP1 DUP2 LT PUSH1 0x1 PUSH1 0x1 PUSH1 0x40 SHL SUB DUP3 GT OR PUSH2 0x724 JUMPI PUSH1 0x40 MSTORE JUMP JUMPDEST SWAP1 PUSH1 0x1F DUP1 NOT SWAP2 ADD AND DUP2 ADD SWAP1 DUP2 LT PUSH1 0x1 PUSH1 0x1 PUSH1 0x40 SHL SUB DUP3 GT OR PUSH2 0x724 JUMPI PUSH1 0x40 MSTORE JUMP JUMPDEST SWAP1 PUSH1 0x40 MLOAD SWAP2 DUP3 PUSH1 0x0 DUP3 SLOAD PUSH2 0x1B29 DUP2 PUSH2 0x1A69 JUMP JUMPDEST SWAP1 DUP2 DUP5 MSTORE PUSH1 0x20 SWAP5 PUSH1 0x1 SWAP2 PUSH1 0x1 DUP2 AND SWAP1 DUP2 PUSH1 0x0 EQ PUSH2 0x1B99 JUMPI POP PUSH1 0x1 EQ PUSH2 0x1B5A JUMPI JUMPDEST POP POP POP PUSH2 0x1B58 SWAP3 POP SUB DUP4 PUSH2 0x1AF5 JUMP JUMPDEST JUMP JUMPDEST PUSH1 0x0 SWAP1 DUP2 MSTORE DUP6 DUP2 KECCAK256 SWAP6 SWAP4 POP SWAP2 SWAP1 JUMPDEST DUP2 DUP4 LT PUSH2 0x1B81 JUMPI POP POP PUSH2 0x1B58 SWAP4 POP DUP3 ADD ADD CODESIZE DUP1 DUP1 PUSH2 0x1B49 JUMP JUMPDEST DUP6 SLOAD DUP9 DUP5 ADD DUP6 ADD MSTORE SWAP5 DUP6 ADD SWAP5 DUP8 SWAP5 POP SWAP2 DUP4 ADD SWAP2 PUSH2 0x1B68 JUMP JUMPDEST SWAP3 POP POP POP PUSH2 0x1B58 SWAP5 SWAP3 POP PUSH1 0xFF NOT AND DUP3 DUP5 ADD MSTORE ISZERO ISZERO PUSH1 0x5 SHL DUP3 ADD ADD CODESIZE DUP1 DUP1 PUSH2 0x1B49 JUMP JUMPDEST ISZERO PUSH2 0x1BC2 JUMPI JUMP JUMPDEST PUSH1 0x40 MLOAD PUSH3 0x461BCD PUSH1 0xE5 SHL DUP2 MSTORE PUSH1 0x20 PUSH1 0x4 DUP3 ADD MSTORE PUSH1 0x13 PUSH1 0x24 DUP3 ADD MSTORE PUSH19 0x15185CDAC8191BD95CC81B9BDD08195E1A5CDD PUSH1 0x6A SHL PUSH1 0x44 DUP3 ADD MSTORE PUSH1 0x64 SWAP1 REVERT JUMPDEST ISZERO PUSH2 0x1C04 JUMPI JUMP JUMPDEST PUSH1 0x40 MLOAD PUSH3 0x461BCD PUSH1 0xE5 SHL DUP2 MSTORE PUSH1 0x20 PUSH1 0x4 DUP3 ADD MSTORE PUSH1 0x15 PUSH1 0x24 DUP3 ADD MSTORE PUSH21 0x15185CDAC8185B1C9958591E481C995CDBDB1D9959 PUSH1 0x5A SHL PUSH1 0x44 DUP3 ADD MSTORE PUSH1 0x64 SWAP1 REVERT JUMPDEST ISZERO PUSH2 0x1C48 JUMPI JUMP JUMPDEST PUSH1 0x40 MLOAD PUSH3 0x461BCD PUSH1 0xE5 SHL DUP2 MSTORE PUSH1 0x20 PUSH1 0x4 DUP3 ADD MSTORE PUSH1 0x14 PUSH1 0x24 DUP3 ADD MSTORE PUSH20 0x15185CDAC8191958591B1A5B99481C185CDCD959 PUSH1 0x62 SHL PUSH1 0x44 DUP3 ADD MSTORE PUSH1 0x64 SWAP1 REVERT JUMPDEST ISZERO PUSH2 0x1C8B JUMPI JUMP JUMPDEST PUSH1 0x40 MLOAD PUSH3 0x461BCD PUSH1 0xE5 SHL DUP2 MSTORE PUSH1 0x20 PUSH1 0x4 DUP3 ADD MSTORE PUSH1 0xF PUSH1 0x24 DUP3 ADD MSTORE PUSH15 0x4D7573742073656E642076616C7565 PUSH1 0x88 SHL PUSH1 0x44 DUP3 ADD MSTORE PUSH1 0x64 SWAP1 REVERT JUMPDEST SWAP2 SWAP1 DUP3 ADD DUP1 SWAP3 GT PUSH2 0x1169 JUMPI JUMP JUMPDEST DUP1 SLOAD PUSH1 0x1 PUSH1 0x40 SHL DUP2 LT ISZERO PUSH2 0x724 JUMPI PUSH2 0x1CEC SWAP2 PUSH1 0x1 DUP3 ADD DUP2 SSTORE PUSH2 0x1A4D JUMP JUMPDEST PUSH2 0x1D56 JUMPI DUP2 MLOAD DUP2 SLOAD PUSH1 0x20 DUP5 ADD MLOAD PUSH1 0xFF PUSH1 0xA0 SHL SWAP1 ISZERO ISZERO PUSH1 0xA0 SHL AND PUSH1 0x1 PUSH1 0x1 PUSH1 0xA0 SHL SUB SWAP1 SWAP3 AND PUSH1 0x1 PUSH1 0x1 PUSH1 0xA8 SHL SUB NOT SWAP1 SWAP2 AND OR OR DUP2 SSTORE PUSH1 0x40 DUP3 ADD MLOAD PUSH1 0x1 DUP3 ADD SSTORE PUSH1 0x60 DUP3 ADD MLOAD PUSH1 0x2 DUP3 ADD SSTORE PUSH1 0x80 SWAP1 SWAP2 ADD MLOAD PUSH1 0x3 SWAP1 SWAP2 ADD DUP1 SLOAD PUSH1 0xFF NOT AND PUSH1 0xFF SWAP3 ISZERO ISZERO SWAP3 SWAP1 SWAP3 AND SWAP2 SWAP1 SWAP2 OR SWAP1 SSTORE JUMP JUMPDEST PUSH4 0x4E487B71 PUSH1 0xE0 SHL PUSH1 0x0 MSTORE PUSH1 0x0 PUSH1 0x4 MSTORE PUSH1 0x24 PUSH1 0x0 REVERT JUMPDEST DUP1 SLOAD SWAP1 PUSH1 0x1 PUSH1 0x40 SHL DUP3 LT ISZERO PUSH2 0x724 JUMPI DUP2 PUSH2 0x1D8E SWAP2 PUSH1 0x1 PUSH2 0x1DA5 SWAP5 ADD DUP2 SSTORE PUSH2 0x19F2 JUMP JUMPDEST DUP2 SWAP4 SWAP2 SLOAD SWAP1 PUSH1 0x3 SHL SWAP2 DUP3 SHL SWAP2 PUSH1 0x0 NOT SWAP1 SHL NOT AND OR SWAP1 JUMP JUMPDEST SWAP1 SSTORE JUMP JUMPDEST ISZERO PUSH2 0x1DB0 JUMPI JUMP JUMPDEST PUSH1 0x40 MLOAD PUSH3 0x461BCD PUSH1 0xE5 SHL DUP2 MSTORE PUSH1 0x20 PUSH1 0x4 DUP3 ADD MSTORE PUSH1 0xA PUSH1 0x24 DUP3 ADD MSTORE PUSH10 0x4E6F74206F7261636C65 PUSH1 0xB0 SHL PUSH1 0x44 DUP3 ADD MSTORE PUSH1 0x64 SWAP1 REVERT JUMPDEST SWAP1 PUSH1 0x1F DUP2 GT PUSH2 0x1DF0 JUMPI POP POP POP JUMP JUMPDEST PUSH1 0x0 SWAP2 PUSH1 0x0 MSTORE PUSH1 0x20 PUSH1 0x0 KECCAK256 SWAP1 PUSH1 0x20 PUSH1 0x1F DUP6 ADD PUSH1 0x5 SHR DUP4 ADD SWAP5 LT PUSH2 0x1E2E JUMPI JUMPDEST PUSH1 0x1F ADD PUSH1 0x5 SHR ADD SWAP2 JUMPDEST DUP3 DUP2 LT PUSH2 0x1E23 JUMPI POP POP POP JUMP JUMPDEST DUP2 DUP2 SSTORE PUSH1 0x1 ADD PUSH2 0x1E17 JUMP JUMPDEST SWAP1 SWAP3 POP DUP3 SWAP1 PUSH2 0x1E0E JUMP JUMPDEST SWAP1 PUSH1 0x40 MLOAD PUSH2 0x1E45 DUP2 PUSH2 0x1ABF JUMP JUMPDEST PUSH1 0x80 PUSH1 0xFF PUSH1 0x3 DUP4 SWAP6 DUP3 DUP2 SLOAD PUSH1 0x1 DUP1 PUSH1 0xA0 SHL SUB DUP2 AND DUP8 MSTORE PUSH1 0xA0 SHR AND ISZERO ISZERO PUSH1 0x20 DUP7 ADD MSTORE PUSH1 0x1 DUP2 ADD SLOAD PUSH1 0x40 DUP7 ADD MSTORE PUSH1 0x2 DUP2 ADD SLOAD PUSH1 0x60 DUP7 ADD MSTORE ADD SLOAD AND ISZERO ISZERO SWAP2 ADD MSTORE JUMP JUMPDEST PUSH1 0x1 PUSH1 0x1 PUSH1 0x40 SHL SUB DUP2 GT PUSH2 0x724 JUMPI PUSH1 0x1F ADD PUSH1 0x1F NOT AND PUSH1 0x20 ADD SWAP1 JUMP JUMPDEST SWAP3 SWAP2 SWAP3 PUSH2 0x1EAB DUP3 PUSH2 0x1E84 JUMP JUMPDEST SWAP2 PUSH2 0x1EB9 PUSH1 0x40 MLOAD SWAP4 DUP5 PUSH2 0x1AF5 JUMP JUMPDEST DUP3 SWAP5 DUP2 DUP5 MSTORE DUP2 DUP4 ADD GT PUSH2 0x1B0 JUMPI DUP3 DUP2 PUSH1 0x20 SWAP4 DUP5 PUSH1 0x0 SWAP7 ADD CALLDATACOPY ADD ADD MSTORE JUMP JUMPDEST ISZERO PUSH2 0x1EDD JUMPI JUMP JUMPDEST PUSH1 0x40 MLOAD PUSH3 0x461BCD PUSH1 0xE5 SHL DUP2 MSTORE PUSH1 0x20 PUSH1 0x4 DUP3 ADD MSTORE PUSH1 0x11 PUSH1 0x24 DUP3 ADD MSTORE PUSH17 0x15185CDAC81B9BDD081C995CDBDB1D9959 PUSH1 0x7A SHL PUSH1 0x44 DUP3 ADD MSTORE PUSH1 0x64 SWAP1 REVERT JUMPDEST DUP2 DUP2 MUL SWAP3 SWAP2 DUP2 ISZERO SWAP2 DUP5 DIV EQ OR ISZERO PUSH2 0x1169 JUMPI JUMP JUMPDEST DUP2 ISZERO PUSH2 0x1F33 JUMPI DIV SWAP1 JUMP JUMPDEST PUSH4 0x4E487B71 PUSH1 0xE0 SHL PUSH1 0x0 MSTORE PUSH1 0x12 PUSH1 0x4 MSTORE PUSH1 0x24 PUSH1 0x0 REVERT JUMPDEST PUSH1 0x0 SWAP2 DUP2 DUP4 MSTORE PUSH1 0x20 DUP4 DUP2 MSTORE PUSH2 0x1F84 PUSH2 0x1F7E PUSH1 0x40 SWAP4 PUSH2 0x1F6F PUSH1 0xFF PUSH1 0xA DUP8 DUP11 KECCAK256 ADD SLOAD AND PUSH2 0x1ED6 JUMP JUMPDEST DUP6 DUP8 MSTORE PUSH1 0x1 DUP5 MSTORE DUP5 DUP8 KECCAK256 PUSH2 0x1A4D JUMP JUMPDEST POP PUSH2 0x1E38 JUMP JUMPDEST PUSH1 0x80 DUP2 ADD MLOAD ISZERO DUP1 ISZERO SWAP1 PUSH2 0x2049 JUMPI JUMPDEST PUSH2 0x2042 JUMPI DUP4 DUP6 MSTORE DUP5 DUP3 MSTORE PUSH2 0x1FB2 DUP4 DUP7 KECCAK256 PUSH1 0x7 PUSH1 0x6 DUP3 ADD SLOAD SWAP2 ADD SLOAD SWAP1 PUSH2 0x1CC2 JUMP JUMPDEST SWAP1 DUP5 DUP7 MSTORE DUP6 DUP4 MSTORE DUP4 DUP7 KECCAK256 PUSH1 0xFF PUSH1 0xA DUP3 ADD SLOAD PUSH1 0x8 SHR AND DUP1 DUP1 SWAP2 PUSH2 0x2035 JUMPI JUMPDEST ISZERO PUSH2 0x1FFC JUMPI POP POP SWAP5 DUP4 SWAP3 PUSH2 0x1FEC DUP3 SWAP4 PUSH1 0x8 SWAP7 PUSH2 0x1FF9 SWAP10 ADD MLOAD PUSH2 0x1F16 JUMP JUMPDEST SWAP6 DUP3 MSTORE MSTORE KECCAK256 ADD SLOAD SWAP1 PUSH2 0x1F29 JUMP JUMPDEST SWAP1 JUMP JUMPDEST ISZERO SWAP1 DUP2 PUSH2 0x2027 JUMPI JUMPDEST POP PUSH2 0x2011 JUMPI POP POP POP POP POP SWAP1 JUMP JUMPDEST SWAP5 DUP4 SWAP3 PUSH2 0x1FEC DUP3 SWAP4 PUSH1 0x9 SWAP7 PUSH2 0x1FF9 SWAP10 ADD MLOAD PUSH2 0x1F16 JUMP JUMPDEST PUSH1 0x9 SWAP2 POP ADD SLOAD ISZERO ISZERO CODESIZE PUSH2 0x2004 JUMP JUMPDEST POP PUSH1 0x8 DUP3 ADD SLOAD ISZERO ISZERO PUSH2 0x1FCF JUMP JUMPDEST POP POP POP POP SWAP1 JUMP JUMPDEST POP DUP2 DUP2 ADD MLOAD ISZERO ISZERO DUP5 DUP7 MSTORE DUP6 DUP4 MSTORE PUSH1 0xFF PUSH1 0xA DUP6 DUP9 KECCAK256 ADD SLOAD PUSH1 0x8 SHR AND ISZERO ISZERO EQ ISZERO PUSH2 0x1F92 JUMP INVALID LOG2 PUSH5 0x6970667358 0x22 SLT KECCAK256 SLOAD SWAP9 0x26 0xC SWAP2 SWAP4 JUMPI 0xB6 BASEFEE 0x2F PUSH8 0x4EF36CC83F9B55CF 0x4B ORIGIN 0x21 PUSH1 0xB4 0xB8 CALLDATALOAD SUB PUSH29 0x2AB20CB464736F6C634300081800330000000000000000000000000000 "},"methodIdentifiers":{"allTaskIds(uint256)":"76c3504b","buyNo(bytes32)":"42ca63e8","buyYes(bytes32)":"d541b33b","calculatePayout(bytes32,uint256)":"e2b863cf","createTask(bytes32,bytes32,string,string,uint256,uint256,address)":"e0390f83","finalize(bytes32,bool,string)":"e59965d5","getTask(bytes32)":"15a29035","getTaskPositions(bytes32)":"c928f621","getTotalTasks()":"3c93b905","getUserPositions(bytes32,address)":"fb945feb","minTaskStake()":"dc412624","oracleAddress()":"a89ae4ba","owner()":"8da5cb5b","redeem(bytes32)":"eda1122c","setOracleAddress(address)":"4c69c00f","setSolutionURI(bytes32,string)":"42e48fd0","taskPositions(bytes32,uint256)":"9907e61e","tasks(bytes32)":"e579f500","userPositions(bytes32,address,uint256)":"1b97f44f"}}}}}