{
  "_format": "hh-sol-artifact-1",
  "contractName": "RobotRegistry",
  "sourceName": "contracts/RobotRegistry.sol",
  "abi": [
    {
      "inputs": [],
      "stateMutability": "nonpayable",
      "type": "constructor"
    },
    {
      "anonymous": false,
      "inputs": [
        {
          "indexed": true,
          "internalType": "bytes32",
          "name": "robotId",
          "type": "bytes32"
        },
        {
          "indexed": false,
          "internalType": "int256",
          "name": "newReputation",
          "type": "int256"
        },
        {
          "indexed": false,
          "internalType": "int256",
          "name": "delta",
          "type": "int256"
        }
      ],
      "name": "ReputationAdjusted",
      "type": "event"
    },
    {
      "anonymous": false,
      "inputs": [
        {
          "indexed": true,
          "internalType": "bytes32",
          "name": "robotId",
          "type": "bytes32"
        }
      ],
      "name": "RobotDeactivated",
      "type": "event"
    },
    {
      "anonymous": false,
      "inputs": [
        {
          "indexed": true,
          "internalType": "bytes32",
          "name": "robotId",
          "type": "bytes32"
        },
        {
          "indexed": true,
          "internalType": "address",
          "name": "owner",
          "type": "address"
        },
        {
          "indexed": false,
          "internalType": "string",
          "name": "metadataURI",
          "type": "string"
        },
        {
          "indexed": false,
          "internalType": "uint256",
          "name": "stake",
          "type": "uint256"
        }
      ],
      "name": "RobotRegistered",
      "type": "event"
    },
    {
      "anonymous": false,
      "inputs": [
        {
          "indexed": true,
          "internalType": "bytes32",
          "name": "robotId",
          "type": "bytes32"
        },
        {
          "indexed": true,
          "internalType": "address",
          "name": "owner",
          "type": "address"
        },
        {
          "indexed": false,
          "internalType": "uint256",
          "name": "amount",
          "type": "uint256"
        }
      ],
      "name": "StakeWithdrawn",
      "type": "event"
    },
    {
      "inputs": [
        {
          "internalType": "bytes32",
          "name": "robotId",
          "type": "bytes32"
        },
        {
          "internalType": "int256",
          "name": "delta",
          "type": "int256"
        }
      ],
      "name": "adjustReputation",
      "outputs": [],
      "stateMutability": "nonpayable",
      "type": "function"
    },
    {
      "inputs": [
        {
          "internalType": "uint256",
          "name": "",
          "type": "uint256"
        }
      ],
      "name": "allRobotIds",
      "outputs": [
        {
          "internalType": "bytes32",
          "name": "",
          "type": "bytes32"
        }
      ],
      "stateMutability": "view",
      "type": "function"
    },
    {
      "inputs": [],
      "name": "daoAddress",
      "outputs": [
        {
          "internalType": "address",
          "name": "",
          "type": "address"
        }
      ],
      "stateMutability": "view",
      "type": "function"
    },
    {
      "inputs": [
        {
          "internalType": "bytes32",
          "name": "robotId",
          "type": "bytes32"
        }
      ],
      "name": "deactivateRobot",
      "outputs": [],
      "stateMutability": "nonpayable",
      "type": "function"
    },
    {
      "inputs": [
        {
          "internalType": "uint256",
          "name": "offset",
          "type": "uint256"
        },
        {
          "internalType": "uint256",
          "name": "limit",
          "type": "uint256"
        }
      ],
      "name": "getAllRobots",
      "outputs": [
        {
          "internalType": "bytes32[]",
          "name": "",
          "type": "bytes32[]"
        }
      ],
      "stateMutability": "view",
      "type": "function"
    },
    {
      "inputs": [
        {
          "internalType": "bytes32",
          "name": "robotId",
          "type": "bytes32"
        }
      ],
      "name": "getRobot",
      "outputs": [
        {
          "components": [
            {
              "internalType": "address",
              "name": "owner",
              "type": "address"
            },
            {
              "internalType": "string",
              "name": "metadataURI",
              "type": "string"
            },
            {
              "internalType": "int256",
              "name": "reputation",
              "type": "int256"
            },
            {
              "internalType": "uint256",
              "name": "stake",
              "type": "uint256"
            },
            {
              "internalType": "bool",
              "name": "active",
              "type": "bool"
            },
            {
              "internalType": "uint256",
              "name": "registeredAt",
              "type": "uint256"
            }
          ],
          "internalType": "struct RobotRegistry.Robot",
          "name": "",
          "type": "tuple"
        }
      ],
      "stateMutability": "view",
      "type": "function"
    },
    {
      "inputs": [
        {
          "internalType": "address",
          "name": "ownerAddress",
          "type": "address"
        }
      ],
      "name": "getRobotsByOwner",
      "outputs": [
        {
          "internalType": "bytes32[]",
          "name": "",
          "type": "bytes32[]"
        }
      ],
      "stateMutability": "view",
      "type": "function"
    },
    {
      "inputs": [],
      "name": "getTotalRobots",
      "outputs": [
        {
          "internalType": "uint256",
          "name": "",
          "type": "uint256"
        }
      ],
      "stateMutability": "view",
      "type": "function"
    },
    {
      "inputs": [],
      "name": "minStake",
      "outputs": [
        {
          "internalType": "uint256",
          "name": "",
          "type": "uint256"
        }
      ],
      "stateMutability": "view",
      "type": "function"
    },
    {
      "inputs": [],
      "name": "oracleAddress",
      "outputs": [
        {
          "internalType": "address",
          "name": "",
          "type": "address"
        }
      ],
      "stateMutability": "view",
      "type": "function"
    },
    {
      "inputs": [],
      "name": "owner",
      "outputs": [
        {
          "internalType": "address",
          "name": "",
          "type": "address"
        }
      ],
      "stateMutability": "view",
      "type": "function"
    },
    {
      "inputs": [
        {
          "internalType": "address",
          "name": "",
          "type": "address"
        },
        {
          "internalType": "uint256",
          "name": "",
          "type": "uint256"
        }
      ],
      "name": "ownerRobots",
      "outputs": [
        {
          "internalType": "bytes32",
          "name": "",
          "type": "bytes32"
        }
      ],
      "stateMutability": "view",
      "type": "function"
    },
    {
      "inputs": [
        {
          "internalType": "bytes32",
          "name": "idHash",
          "type": "bytes32"
        },
        {
          "internalType": "string",
          "name": "metadataURI",
          "type": "string"
        }
      ],
      "name": "registerRobot",
      "outputs": [],
      "stateMutability": "payable",
      "type": "function"
    },
    {
      "inputs": [
        {
          "internalType": "bytes32",
          "name": "",
          "type": "bytes32"
        }
      ],
      "name": "robots",
      "outputs": [
        {
          "internalType": "address",
          "name": "owner",
          "type": "address"
        },
        {
          "internalType": "string",
          "name": "metadataURI",
          "type": "string"
        },
        {
          "internalType": "int256",
          "name": "reputation",
          "type": "int256"
        },
        {
          "internalType": "uint256",
          "name": "stake",
          "type": "uint256"
        },
        {
          "internalType": "bool",
          "name": "active",
          "type": "bool"
        },
        {
          "internalType": "uint256",
          "name": "registeredAt",
          "type": "uint256"
        }
      ],
      "stateMutability": "view",
      "type": "function"
    },
    {
      "inputs": [
        {
          "internalType": "address",
          "name": "_dao",
          "type": "address"
        }
      ],
      "name": "setDAOAddress",
      "outputs": [],
      "stateMutability": "nonpayable",
      "type": "function"
    },
    {
      "inputs": [
        {
          "internalType": "uint256",
          "name": "_minStake",
          "type": "uint256"
        }
      ],
      "name": "setMinStake",
      "outputs": [],
      "stateMutability": "nonpayable",
      "type": "function"
    },
    {
      "inputs": [
        {
          "internalType": "address",
          "name": "_oracle",
          "type": "address"
        }
      ],
      "name": "setOracleAddress",
      "outputs": [],
      "stateMutability": "nonpayable",
      "type": "function"
    },
    {
      "inputs": [
        {
          "internalType": "bytes32",
          "name": "robotId",
          "type": "bytes32"
        }
      ],
      "name": "withdrawStake",
      "outputs": [],
      "stateMutability": "nonpayable",
      "type": "function"
    }
  ],
  "bytecode": "0x6080806040523461003357662386f26fc10000600355600680546001600160a01b031916331790556110ce90816100398239f35b600080fdfe608080604052600436101561001357600080fd5b60003560e01c9081630ecdc67414610ccc575080632131c68c14610ca3578063375b3c0a14610c855780634c69c00f14610c395780637cef9d5a14610bef5780638c80fd9014610bc15780638da5cb5b14610b98578063965afa8914610b4c578063a05c5a8314610a7f578063a1bbb49814610675578063a89ae4ba1461064c578063a9e685c514610615578063ae6699471461058f578063b95ff689146103fd578063cf833061146102c7578063d989a31114610193578063e569fb80146101085763ef959ecd146100e557600080fd5b34610103576000366003190112610103576020600254604051908152f35b600080fd5b3461010357602036600319011261010357600435600090815260208190526040902080546001600160a01b031661014160018301610f33565b91600281015490600381015490600560ff60048301541691015491610178604051968796875260c0602088015260c0870190610dc4565b93604086015260608501521515608084015260a08301520390f35b34610103576040366003190112610103576004356024906002548082101561028b576024358201908183116102755780821161026d575b506101d58282611073565b916101f86101e284611080565b936101f06040519586610f11565b808552611080565b60209190601f19013685840137805b838110610220576040518061021c8782610e7f565b0390f35b61022981610e1a565b919054916102378483611073565b90875182101561025857600193869160031b1c9160051b8801015201610207565b88634e487b7160e01b60005260326004526000fd5b9050836101ca565b634e487b7160e01b600052601160045260246000fd5b60405162461bcd60e51b81526020600482015260146024820152734f6666736574206f7574206f6620626f756e647360601b6044820152606490fd5b346101035760403660031901126101035760043560243560018060a01b038060045416331480156103f0575b156103ba57826000526000602052604060002054161561037e5781600052600060205260026040600020018054918083019260008285129112908015821691151617610275577f3530d5670631ec51e7467b0e04a67072a8215c1e9b0aef2f725dbf4d76560454926040925583600052600060205260028260002001549082519182526020820152a2005b60405162461bcd60e51b8152602060048201526014602482015273149bd89bdd08191bd95cc81b9bdd08195e1a5cdd60621b6044820152606490fd5b60405162461bcd60e51b815260206004820152600e60248201526d139bdd08185d5d1a1bdc9a5e995960921b6044820152606490fd5b50806005541633146102f3565b346101035760208060031936011261010357600435806000526000825261043260018060a01b03604060002054163314611019565b806000526000825260ff6004604060002001541661055157806000526000825260036040600020015415610515578060005260008252600360406000200191600083549355600080808086335af13d15610510573d61049081611057565b9061049e6040519283610f11565b81526000833d92013e5b156104da577f11269c9885f555c7abc6754b6e48ba590f3653354fc22e80d9f1a3da407d139d906040519384523393a3005b6064906040519062461bcd60e51b82526004820152600f60248201526e151c985b9cd9995c8819985a5b1959608a1b6044820152fd5b6104a8565b60405162461bcd60e51b81526004810183905260146024820152734e6f207374616b6520746f20776974686472617760601b6044820152606490fd5b60405162461bcd60e51b8152600481018390526016602482015275526f626f74206d75737420626520696e61637469766560501b6044820152606490fd5b3461010357602080600319360112610103576001600160a01b036105b1610e04565b166000526001806020526040600020916040519182602085549182815201946000526020600020926000905b8282106106005761021c866105f4818a0382610f11565b60405191829182610e7f565b845487529586019593830193908301906105dd565b34610103576020366003190112610103576004356002548110156101035761063e602091610e1a565b90546040519160031b1c8152f35b34610103576000366003190112610103576004546040516001600160a01b039091168152602090f35b60403660031901126101035760243567ffffffffffffffff8082116101035736602383011215610103578082600401351161010357366024836004013584010111610103576003543410610a4557600435600052600060205260018060a01b03908160406000205416610a00578260040135156109c357604051906106f982610ef5565b3382526107098460040135611057565b6107166040519182610f11565b6004850135808252602486016020830137600060208660040135830101526020830190815260646040840152346060840152600160808401524260a084015260043560005260006020526040600020938351166001600160601b0360a01b8554161784555180519182116108e6576107916001850154610ebb565b601f811161097c575b50602090601f83116001146109075791806005949260a0946000926108fc575b50508160011b916000199060031b1c19161760018501555b6040810151600285015560608101516003850155600484016080820151151560ff801983541691161790550151910155336000526001602052604060002080546801000000000000000091828210156108e6578161083891600161085494018155610e67565b6004929192359083549060031b91821b91600019901b19161790565b9055600254908110156108e6576108388160016108749301600255610e1a565b90556040519060408252806004013560408301528060040135602482016060840137600060608260040135840101523460208301527f9958ba5d928ce99f9a19c5993e72b5e2d8972512643eb3067bd47205df7e95b0339260608160043594601f8019916004013501168101030190a3005b634e487b7160e01b600052604160045260246000fd5b0151905087806107ba565b906001850160005260206000209160005b601f19851681106109645750926005949260019260a09583601f1981161061094b575b505050811b0160018501556107d2565b015160001960f88460031b161c1916905587808061093b565b91926020600181928685015181550194019201610918565b600185016000526020600020601f840160051c8101602085106109bc575b601f830160051c820181106109b057505061079a565b6000815560010161099a565b508061099a565b60405162461bcd60e51b815260206004820152601560248201527413595d1859185d1848155492481c995c5d5a5c9959605a1b6044820152606490fd5b60405162461bcd60e51b815260206004820152601860248201527f526f626f7420616c7265616479207265676973746572656400000000000000006044820152606490fd5b60405162461bcd60e51b8152602060048201526012602482015271496e73756666696369656e74207374616b6560701b6044820152606490fd5b3461010357602036600319011261010357600435806000526000602052610ab460018060a01b03604060002054163314611019565b80600052600060205260ff6004604060002001541615610b0e57806000526000602052600460406000200160ff1981541690557f1c0c02fc9591ecd77a1dc3f8f4032568f211500ed9840aa13137be74fb79bdcc600080a2005b60405162461bcd60e51b8152602060048201526016602482015275526f626f7420616c726561647920696e61637469766560501b6044820152606490fd5b3461010357602036600319011261010357610b65610e04565b6006546001600160a01b039190610b7f9083163314610fd8565b166001600160601b0360a01b6005541617600555600080f35b34610103576000366003190112610103576006546040516001600160a01b039091168152602090f35b3461010357602036600319011261010357610be760018060a01b03600654163314610fd8565b600435600355005b3461010357604036600319011261010357610c08610e04565b6001600160a01b03166000908152600160205260409020805460243591908210156101035760209161063e91610e67565b3461010357602036600319011261010357610c52610e04565b6006546001600160a01b039190610c6c9083163314610fd8565b166001600160601b0360a01b6004541617600455600080f35b34610103576000366003190112610103576020600354604051908152f35b34610103576000366003190112610103576005546040516001600160a01b039091168152602090f35b3461010357602090816003193601126101035760a081610ced600093610ef5565b828152606084820152826040820152826060820152826080820152015260043560005260008152604060002060405190610d2682610ef5565b80546001600160a01b03908116835292610d4260018301610f33565b9181840192835260028101549260408501938452610da560038301549160608701928352600560ff6004860154169460808901951515865201549460a08801958652604051988998828a525116908801525160c0604088015260e0870190610dc4565b9351606086015251608085015251151560a08401525160c08301520390f35b919082519283825260005b848110610df0575050826000602080949584010152601f8019910116010190565b602081830181015184830182015201610dcf565b600435906001600160a01b038216820361010357565b600254811015610e515760026000527f405787fa12a823e0f2b7631cc41b3ba8828b3321ca811111fa75cd3aa3bb5ace0190600090565b634e487b7160e01b600052603260045260246000fd5b8054821015610e515760005260206000200190600090565b602090602060408183019282815285518094520193019160005b828110610ea7575050505090565b835185529381019392810192600101610e99565b90600182811c92168015610eeb575b6020831014610ed557565b634e487b7160e01b600052602260045260246000fd5b91607f1691610eca565b60c0810190811067ffffffffffffffff8211176108e657604052565b90601f8019910116810190811067ffffffffffffffff8211176108e657604052565b90604051918260008254610f4681610ebb565b90818452602094600191600181169081600014610fb65750600114610f77575b505050610f7592500383610f11565b565b600090815285812095935091905b818310610f9e575050610f759350820101388080610f66565b85548884018501529485019487945091830191610f85565b92505050610f7594925060ff191682840152151560051b820101388080610f66565b15610fdf57565b60405162461bcd60e51b81526020600482015260126024820152712737ba1031b7b73a3930b1ba1037bbb732b960711b6044820152606490fd5b1561102057565b60405162461bcd60e51b815260206004820152600f60248201526e2737ba103937b137ba1037bbb732b960891b6044820152606490fd5b67ffffffffffffffff81116108e657601f01601f191660200190565b9190820391821161027557565b67ffffffffffffffff81116108e65760051b6020019056fea264697066735822122048afd462d9a68efc7a95ff9b01c533d3331ff8f3767a99ad31003d58b45eeb8e64736f6c63430008180033",
  "linkReferences": {},
  "deployedLinkReferences": {}
}